{
  "contracts/LMRevertReasons.sol": {
    "LMRevertReasons": {
      "abi": [
        {
          "inputs": [],
          "stateMutability": "nonpayable",
          "type": "constructor"
        },
        {
          "inputs": [
            {
              "internalType": "uint256",
              "name": "id",
              "type": "uint256"
            }
          ],
          "name": "getReason",
          "outputs": [
            {
              "internalType": "string",
              "name": "",
              "type": "string"
            }
          ],
          "stateMutability": "view",
          "type": "function"
        },
        {
          "inputs": [],
          "name": "nReason",
          "outputs": [
            {
              "internalType": "uint256",
              "name": "",
              "type": "uint256"
            }
          ],
          "stateMutability": "view",
          "type": "function"
        },
        {
          "inputs": [
            {
              "internalType": "uint256",
              "name": "",
              "type": "uint256"
            }
          ],
          "name": "reasons",
          "outputs": [
            {
              "internalType": "string",
              "name": "",
              "type": "string"
            }
          ],
          "stateMutability": "view",
          "type": "function"
        }
      ],
      "evm": {
        "bytecode": {
          "linkReferences": {},
          "object": "6080604052604051806102e001604052806040518060600160405280602d8152602001610b0e602d913981526020016040518060400160405280601381526020017f6c656167756520646f65732774206578697374000000000000000000000000008152508152602001604051806060016040528060368152602001610ad86036913981526020016040518060400160405280601481526020017f706c6179657220646f65736e277420657869737400000000000000000000000081525081526020016040518060400160405280601c81526020017f43616e206f6e6c7920656469742077616974696e67206c6561677565000000008152508152602001604051806060016040528060228152602001610b976022913981526020016040518060400160405280601281526020017f6c69766554696d65206d757374203e3d2030000000000000000000000000000081525081526020016040518060400160405280601a81526020017f636c6f736554696d65206d757374203e3d206c69766554696d6500000000000081525081526020016040518060400160405280601381526020017f6d6178506c61796572206d757374203e3d20300000000000000000000000000081525081526020016040518060600160405280602a8152602001610aae602a913981526020016040518060400160405280601781526020017f696e697452657761726420213d206d73672e76616c756500000000000000000081525081526020016040518060400160405280601281526020017f6d696e456e747279206d757374203e3d2030000000000000000000000000000081525081526020016040518060400160405280601781526020017f54686973206c6561677565206973206e6f74206f70656e0000000000000000008152508152602001604051806060016040528060228152602001610b756022913981526020016040518060400160405280600b81526020017f6c65616775652046756c6c00000000000000000000000000000000000000000081525081526020016040518060400160405280600e81526020017f4e69636b6e616d652074616b656e00000000000000000000000000000000000081525081526020016040518060400160405280601581526020017f416464726573732776652072656769737465726564000000000000000000000081525081526020016040518060400160405280601f81526020017f41636320626c6f636b65642066726f6d206a6f696e696e67207468696e67730081525081526020016040518060600160405280603a8152602001610b3b603a913981526020016040518060400160405280601181526020017f696e73756666696369656e742066756e6400000000000000000000000000000081525081526020016040518060400160405280601781526020017f4d757374206265205b4c6976655d20746f20636c6f736500000000000000000081525081526020016040518060400160405280601481526020017f706c61796572206e6f7420696e206c656167756500000000000000000000000081525081526020016040518060400160405280601f81526020017f626c6f636b656420706c617965722c2063616e27742062652077696e6e65720081525081525060009060176104bd9291906104d0565b503480156104ca57600080fd5b5061068b565b8260178101928215610512579160200282015b82811115610511578251829080519060200190610501929190610523565b50916020019190600101906104e3565b5b50905061051f91906105a9565b5090565b82805461052f9061062a565b90600052602060002090601f0160209004810192826105515760008555610598565b82601f1061056a57805160ff1916838001178555610598565b82800160010185558215610598579182015b8281111561059757825182559160200191906001019061057c565b5b5090506105a591906105cd565b5090565b5b808211156105c957600081816105c091906105ea565b506001016105aa565b5090565b5b808211156105e65760008160009055506001016105ce565b5090565b5080546105f69061062a565b6000825580601f106106085750610627565b601f01602090049060005260206000209081019061062691906105cd565b5b50565b6000600282049050600182168061064257607f821691505b602082108114156106565761065561065c565b5b50919050565b7f4e487b7100000000000000000000000000000000000000000000000000000000600052602260045260246000fd5b6104148061069a6000396000f3fe608060405234801561001057600080fd5b50600436106100415760003560e01c80633bf8af6514610046578063b41ace1714610064578063b7928b4f14610094575b600080fd5b61004e6100c4565b60405161005b91906102e1565b60405180910390f35b61007e6004803603810190610079919061024e565b6100c9565b60405161008b91906102bf565b60405180910390f35b6100ae60048036038101906100a9919061024e565b61016c565b6040516100bb91906102bf565b60405180910390f35b601681565b600081601781106100d957600080fd5b0160009150905080546100eb90610355565b80601f016020809104026020016040519081016040528092919081815260200182805461011790610355565b80156101645780601f1061013957610100808354040283529160200191610164565b820191906000526020600020905b81548152906001019060200180831161014757829003601f168201915b505050505081565b6060600082601781106101a8577f4e487b7100000000000000000000000000000000000000000000000000000000600052603260045260246000fd5b0180546101b490610355565b80601f01602080910402602001604051908101604052809291908181526020018280546101e090610355565b801561022d5780601f106102025761010080835404028352916020019161022d565b820191906000526020600020905b81548152906001019060200180831161021057829003601f168201915b50505050509050919050565b600081359050610248816103c7565b92915050565b60006020828403121561026057600080fd5b600061026e84828501610239565b91505092915050565b6000610282826102fc565b61028c8185610307565b935061029c818560208601610322565b6102a5816103b6565b840191505092915050565b6102b981610318565b82525050565b600060208201905081810360008301526102d98184610277565b905092915050565b60006020820190506102f660008301846102b0565b92915050565b600081519050919050565b600082825260208201905092915050565b6000819050919050565b60005b83811015610340578082015181840152602081019050610325565b8381111561034f576000848401525b50505050565b6000600282049050600182168061036d57607f821691505b6020821081141561038157610380610387565b5b50919050565b7f4e487b7100000000000000000000000000000000000000000000000000000000600052602260045260246000fd5b6000601f19601f8301169050919050565b6103d081610318565b81146103db57600080fd5b5056fea2646970667358221220988e3f1881753b242081215c383e0db3aaecaf9f09d3f45dfdb557d28f9d991a64736f6c634300080400336d6178506c61796572206d757374203e3d206e756d626572206f66206a6f696e656420706c6179657273596f752063616e277420706572666f726d207468697320616374696f6e2028696e206c6561677565416374696f6e436f6e74726f6c29596f752061726520747279696e6720746f206368616e676520796f7572206f776e2061646d696e20737461746550726f76696465207468652065786163742076616c7565206f66206d696e696d756d20656e74727920726571756972656d656e742028776569296d616e616765722077686f206d616465206c65616775652063616e2774206a6f696e6c656e2877696e436f6e64732920213d206c656e2877696e436f6e644f7073292b31",
          "opcodes": "PUSH1 0x80 PUSH1 0x40 MSTORE PUSH1 0x40 MLOAD DUP1 PUSH2 0x2E0 ADD PUSH1 0x40 MSTORE DUP1 PUSH1 0x40 MLOAD DUP1 PUSH1 0x60 ADD PUSH1 0x40 MSTORE DUP1 PUSH1 0x2D DUP2 MSTORE PUSH1 0x20 ADD PUSH2 0xB0E PUSH1 0x2D SWAP2 CODECOPY DUP2 MSTORE PUSH1 0x20 ADD PUSH1 0x40 MLOAD DUP1 PUSH1 0x40 ADD PUSH1 0x40 MSTORE DUP1 PUSH1 0x13 DUP2 MSTORE PUSH1 0x20 ADD PUSH32 0x6C656167756520646F6573277420657869737400000000000000000000000000 DUP2 MSTORE POP DUP2 MSTORE PUSH1 0x20 ADD PUSH1 0x40 MLOAD DUP1 PUSH1 0x60 ADD PUSH1 0x40 MSTORE DUP1 PUSH1 0x36 DUP2 MSTORE PUSH1 0x20 ADD PUSH2 0xAD8 PUSH1 0x36 SWAP2 CODECOPY DUP2 MSTORE PUSH1 0x20 ADD PUSH1 0x40 MLOAD DUP1 PUSH1 0x40 ADD PUSH1 0x40 MSTORE DUP1 PUSH1 0x14 DUP2 MSTORE PUSH1 0x20 ADD PUSH32 0x706C6179657220646F65736E2774206578697374000000000000000000000000 DUP2 MSTORE POP DUP2 MSTORE PUSH1 0x20 ADD PUSH1 0x40 MLOAD DUP1 PUSH1 0x40 ADD PUSH1 0x40 MSTORE DUP1 PUSH1 0x1C DUP2 MSTORE PUSH1 0x20 ADD PUSH32 0x43616E206F6E6C7920656469742077616974696E67206C656167756500000000 DUP2 MSTORE POP DUP2 MSTORE PUSH1 0x20 ADD PUSH1 0x40 MLOAD DUP1 PUSH1 0x60 ADD PUSH1 0x40 MSTORE DUP1 PUSH1 0x22 DUP2 MSTORE PUSH1 0x20 ADD PUSH2 0xB97 PUSH1 0x22 SWAP2 CODECOPY DUP2 MSTORE PUSH1 0x20 ADD PUSH1 0x40 MLOAD DUP1 PUSH1 0x40 ADD PUSH1 0x40 MSTORE DUP1 PUSH1 0x12 DUP2 MSTORE PUSH1 0x20 ADD PUSH32 0x6C69766554696D65206D757374203E3D20300000000000000000000000000000 DUP2 MSTORE POP DUP2 MSTORE PUSH1 0x20 ADD PUSH1 0x40 MLOAD DUP1 PUSH1 0x40 ADD PUSH1 0x40 MSTORE DUP1 PUSH1 0x1A DUP2 MSTORE PUSH1 0x20 ADD PUSH32 0x636C6F736554696D65206D757374203E3D206C69766554696D65000000000000 DUP2 MSTORE POP DUP2 MSTORE PUSH1 0x20 ADD PUSH1 0x40 MLOAD DUP1 PUSH1 0x40 ADD PUSH1 0x40 MSTORE DUP1 PUSH1 0x13 DUP2 MSTORE PUSH1 0x20 ADD PUSH32 0x6D6178506C61796572206D757374203E3D203000000000000000000000000000 DUP2 MSTORE POP DUP2 MSTORE PUSH1 0x20 ADD PUSH1 0x40 MLOAD DUP1 PUSH1 0x60 ADD PUSH1 0x40 MSTORE DUP1 PUSH1 0x2A DUP2 MSTORE PUSH1 0x20 ADD PUSH2 0xAAE PUSH1 0x2A SWAP2 CODECOPY DUP2 MSTORE PUSH1 0x20 ADD PUSH1 0x40 MLOAD DUP1 PUSH1 0x40 ADD PUSH1 0x40 MSTORE DUP1 PUSH1 0x17 DUP2 MSTORE PUSH1 0x20 ADD PUSH32 0x696E697452657761726420213D206D73672E76616C7565000000000000000000 DUP2 MSTORE POP DUP2 MSTORE PUSH1 0x20 ADD PUSH1 0x40 MLOAD DUP1 PUSH1 0x40 ADD PUSH1 0x40 MSTORE DUP1 PUSH1 0x12 DUP2 MSTORE PUSH1 0x20 ADD PUSH32 0x6D696E456E747279206D757374203E3D20300000000000000000000000000000 DUP2 MSTORE POP DUP2 MSTORE PUSH1 0x20 ADD PUSH1 0x40 MLOAD DUP1 PUSH1 0x40 ADD PUSH1 0x40 MSTORE DUP1 PUSH1 0x17 DUP2 MSTORE PUSH1 0x20 ADD PUSH32 0x54686973206C6561677565206973206E6F74206F70656E000000000000000000 DUP2 MSTORE POP DUP2 MSTORE PUSH1 0x20 ADD PUSH1 0x40 MLOAD DUP1 PUSH1 0x60 ADD PUSH1 0x40 MSTORE DUP1 PUSH1 0x22 DUP2 MSTORE PUSH1 0x20 ADD PUSH2 0xB75 PUSH1 0x22 SWAP2 CODECOPY DUP2 MSTORE PUSH1 0x20 ADD PUSH1 0x40 MLOAD DUP1 PUSH1 0x40 ADD PUSH1 0x40 MSTORE DUP1 PUSH1 0xB DUP2 MSTORE PUSH1 0x20 ADD PUSH32 0x6C65616775652046756C6C000000000000000000000000000000000000000000 DUP2 MSTORE POP DUP2 MSTORE PUSH1 0x20 ADD PUSH1 0x40 MLOAD DUP1 PUSH1 0x40 ADD PUSH1 0x40 MSTORE DUP1 PUSH1 0xE DUP2 MSTORE PUSH1 0x20 ADD PUSH32 0x4E69636B6E616D652074616B656E000000000000000000000000000000000000 DUP2 MSTORE POP DUP2 MSTORE PUSH1 0x20 ADD PUSH1 0x40 MLOAD DUP1 PUSH1 0x40 ADD PUSH1 0x40 MSTORE DUP1 PUSH1 0x15 DUP2 MSTORE PUSH1 0x20 ADD PUSH32 0x4164647265737327766520726567697374657265640000000000000000000000 DUP2 MSTORE POP DUP2 MSTORE PUSH1 0x20 ADD PUSH1 0x40 MLOAD DUP1 PUSH1 0x40 ADD PUSH1 0x40 MSTORE DUP1 PUSH1 0x1F DUP2 MSTORE PUSH1 0x20 ADD PUSH32 0x41636320626C6F636B65642066726F6D206A6F696E696E67207468696E677300 DUP2 MSTORE POP DUP2 MSTORE PUSH1 0x20 ADD PUSH1 0x40 MLOAD DUP1 PUSH1 0x60 ADD PUSH1 0x40 MSTORE DUP1 PUSH1 0x3A DUP2 MSTORE PUSH1 0x20 ADD PUSH2 0xB3B PUSH1 0x3A SWAP2 CODECOPY DUP2 MSTORE PUSH1 0x20 ADD PUSH1 0x40 MLOAD DUP1 PUSH1 0x40 ADD PUSH1 0x40 MSTORE DUP1 PUSH1 0x11 DUP2 MSTORE PUSH1 0x20 ADD PUSH32 0x696E73756666696369656E742066756E64000000000000000000000000000000 DUP2 MSTORE POP DUP2 MSTORE PUSH1 0x20 ADD PUSH1 0x40 MLOAD DUP1 PUSH1 0x40 ADD PUSH1 0x40 MSTORE DUP1 PUSH1 0x17 DUP2 MSTORE PUSH1 0x20 ADD PUSH32 0x4D757374206265205B4C6976655D20746F20636C6F7365000000000000000000 DUP2 MSTORE POP DUP2 MSTORE PUSH1 0x20 ADD PUSH1 0x40 MLOAD DUP1 PUSH1 0x40 ADD PUSH1 0x40 MSTORE DUP1 PUSH1 0x14 DUP2 MSTORE PUSH1 0x20 ADD PUSH32 0x706C61796572206E6F7420696E206C6561677565000000000000000000000000 DUP2 MSTORE POP DUP2 MSTORE PUSH1 0x20 ADD PUSH1 0x40 MLOAD DUP1 PUSH1 0x40 ADD PUSH1 0x40 MSTORE DUP1 PUSH1 0x1F DUP2 MSTORE PUSH1 0x20 ADD PUSH32 0x626C6F636B656420706C617965722C2063616E27742062652077696E6E657200 DUP2 MSTORE POP DUP2 MSTORE POP PUSH1 0x0 SWAP1 PUSH1 0x17 PUSH2 0x4BD SWAP3 SWAP2 SWAP1 PUSH2 0x4D0 JUMP JUMPDEST POP CALLVALUE DUP1 ISZERO PUSH2 0x4CA JUMPI PUSH1 0x0 DUP1 REVERT JUMPDEST POP PUSH2 0x68B JUMP JUMPDEST DUP3 PUSH1 0x17 DUP2 ADD SWAP3 DUP3 ISZERO PUSH2 0x512 JUMPI SWAP2 PUSH1 0x20 MUL DUP3 ADD JUMPDEST DUP3 DUP2 GT ISZERO PUSH2 0x511 JUMPI DUP3 MLOAD DUP3 SWAP1 DUP1 MLOAD SWAP1 PUSH1 0x20 ADD SWAP1 PUSH2 0x501 SWAP3 SWAP2 SWAP1 PUSH2 0x523 JUMP JUMPDEST POP SWAP2 PUSH1 0x20 ADD SWAP2 SWAP1 PUSH1 0x1 ADD SWAP1 PUSH2 0x4E3 JUMP JUMPDEST JUMPDEST POP SWAP1 POP PUSH2 0x51F SWAP2 SWAP1 PUSH2 0x5A9 JUMP JUMPDEST POP SWAP1 JUMP JUMPDEST DUP3 DUP1 SLOAD PUSH2 0x52F SWAP1 PUSH2 0x62A JUMP JUMPDEST SWAP1 PUSH1 0x0 MSTORE PUSH1 0x20 PUSH1 0x0 KECCAK256 SWAP1 PUSH1 0x1F ADD PUSH1 0x20 SWAP1 DIV DUP2 ADD SWAP3 DUP3 PUSH2 0x551 JUMPI PUSH1 0x0 DUP6 SSTORE PUSH2 0x598 JUMP JUMPDEST DUP3 PUSH1 0x1F LT PUSH2 0x56A JUMPI DUP1 MLOAD PUSH1 0xFF NOT AND DUP4 DUP1 ADD OR DUP6 SSTORE PUSH2 0x598 JUMP JUMPDEST DUP3 DUP1 ADD PUSH1 0x1 ADD DUP6 SSTORE DUP3 ISZERO PUSH2 0x598 JUMPI SWAP2 DUP3 ADD JUMPDEST DUP3 DUP2 GT ISZERO PUSH2 0x597 JUMPI DUP3 MLOAD DUP3 SSTORE SWAP2 PUSH1 0x20 ADD SWAP2 SWAP1 PUSH1 0x1 ADD SWAP1 PUSH2 0x57C JUMP JUMPDEST JUMPDEST POP SWAP1 POP PUSH2 0x5A5 SWAP2 SWAP1 PUSH2 0x5CD JUMP JUMPDEST POP SWAP1 JUMP JUMPDEST JUMPDEST DUP1 DUP3 GT ISZERO PUSH2 0x5C9 JUMPI PUSH1 0x0 DUP2 DUP2 PUSH2 0x5C0 SWAP2 SWAP1 PUSH2 0x5EA JUMP JUMPDEST POP PUSH1 0x1 ADD PUSH2 0x5AA JUMP JUMPDEST POP SWAP1 JUMP JUMPDEST JUMPDEST DUP1 DUP3 GT ISZERO PUSH2 0x5E6 JUMPI PUSH1 0x0 DUP2 PUSH1 0x0 SWAP1 SSTORE POP PUSH1 0x1 ADD PUSH2 0x5CE JUMP JUMPDEST POP SWAP1 JUMP JUMPDEST POP DUP1 SLOAD PUSH2 0x5F6 SWAP1 PUSH2 0x62A JUMP JUMPDEST PUSH1 0x0 DUP3 SSTORE DUP1 PUSH1 0x1F LT PUSH2 0x608 JUMPI POP PUSH2 0x627 JUMP JUMPDEST PUSH1 0x1F ADD PUSH1 0x20 SWAP1 DIV SWAP1 PUSH1 0x0 MSTORE PUSH1 0x20 PUSH1 0x0 KECCAK256 SWAP1 DUP2 ADD SWAP1 PUSH2 0x626 SWAP2 SWAP1 PUSH2 0x5CD JUMP JUMPDEST JUMPDEST POP JUMP JUMPDEST PUSH1 0x0 PUSH1 0x2 DUP3 DIV SWAP1 POP PUSH1 0x1 DUP3 AND DUP1 PUSH2 0x642 JUMPI PUSH1 0x7F DUP3 AND SWAP2 POP JUMPDEST PUSH1 0x20 DUP3 LT DUP2 EQ ISZERO PUSH2 0x656 JUMPI PUSH2 0x655 PUSH2 0x65C JUMP JUMPDEST JUMPDEST POP SWAP2 SWAP1 POP JUMP JUMPDEST PUSH32 0x4E487B7100000000000000000000000000000000000000000000000000000000 PUSH1 0x0 MSTORE PUSH1 0x22 PUSH1 0x4 MSTORE PUSH1 0x24 PUSH1 0x0 REVERT JUMPDEST PUSH2 0x414 DUP1 PUSH2 0x69A PUSH1 0x0 CODECOPY PUSH1 0x0 RETURN INVALID PUSH1 0x80 PUSH1 0x40 MSTORE CALLVALUE DUP1 ISZERO PUSH2 0x10 JUMPI PUSH1 0x0 DUP1 REVERT JUMPDEST POP PUSH1 0x4 CALLDATASIZE LT PUSH2 0x41 JUMPI PUSH1 0x0 CALLDATALOAD PUSH1 0xE0 SHR DUP1 PUSH4 0x3BF8AF65 EQ PUSH2 0x46 JUMPI DUP1 PUSH4 0xB41ACE17 EQ PUSH2 0x64 JUMPI DUP1 PUSH4 0xB7928B4F EQ PUSH2 0x94 JUMPI JUMPDEST PUSH1 0x0 DUP1 REVERT JUMPDEST PUSH2 0x4E PUSH2 0xC4 JUMP JUMPDEST PUSH1 0x40 MLOAD PUSH2 0x5B SWAP2 SWAP1 PUSH2 0x2E1 JUMP JUMPDEST PUSH1 0x40 MLOAD DUP1 SWAP2 SUB SWAP1 RETURN JUMPDEST PUSH2 0x7E PUSH1 0x4 DUP1 CALLDATASIZE SUB DUP2 ADD SWAP1 PUSH2 0x79 SWAP2 SWAP1 PUSH2 0x24E JUMP JUMPDEST PUSH2 0xC9 JUMP JUMPDEST PUSH1 0x40 MLOAD PUSH2 0x8B SWAP2 SWAP1 PUSH2 0x2BF JUMP JUMPDEST PUSH1 0x40 MLOAD DUP1 SWAP2 SUB SWAP1 RETURN JUMPDEST PUSH2 0xAE PUSH1 0x4 DUP1 CALLDATASIZE SUB DUP2 ADD SWAP1 PUSH2 0xA9 SWAP2 SWAP1 PUSH2 0x24E JUMP JUMPDEST PUSH2 0x16C JUMP JUMPDEST PUSH1 0x40 MLOAD PUSH2 0xBB SWAP2 SWAP1 PUSH2 0x2BF JUMP JUMPDEST PUSH1 0x40 MLOAD DUP1 SWAP2 SUB SWAP1 RETURN JUMPDEST PUSH1 0x16 DUP2 JUMP JUMPDEST PUSH1 0x0 DUP2 PUSH1 0x17 DUP2 LT PUSH2 0xD9 JUMPI PUSH1 0x0 DUP1 REVERT JUMPDEST ADD PUSH1 0x0 SWAP2 POP SWAP1 POP DUP1 SLOAD PUSH2 0xEB SWAP1 PUSH2 0x355 JUMP JUMPDEST DUP1 PUSH1 0x1F ADD PUSH1 0x20 DUP1 SWAP2 DIV MUL PUSH1 0x20 ADD PUSH1 0x40 MLOAD SWAP1 DUP2 ADD PUSH1 0x40 MSTORE DUP1 SWAP3 SWAP2 SWAP1 DUP2 DUP2 MSTORE PUSH1 0x20 ADD DUP3 DUP1 SLOAD PUSH2 0x117 SWAP1 PUSH2 0x355 JUMP JUMPDEST DUP1 ISZERO PUSH2 0x164 JUMPI DUP1 PUSH1 0x1F LT PUSH2 0x139 JUMPI PUSH2 0x100 DUP1 DUP4 SLOAD DIV MUL DUP4 MSTORE SWAP2 PUSH1 0x20 ADD SWAP2 PUSH2 0x164 JUMP JUMPDEST DUP3 ADD SWAP2 SWAP1 PUSH1 0x0 MSTORE PUSH1 0x20 PUSH1 0x0 KECCAK256 SWAP1 JUMPDEST DUP2 SLOAD DUP2 MSTORE SWAP1 PUSH1 0x1 ADD SWAP1 PUSH1 0x20 ADD DUP1 DUP4 GT PUSH2 0x147 JUMPI DUP3 SWAP1 SUB PUSH1 0x1F AND DUP3 ADD SWAP2 JUMPDEST POP POP POP POP POP DUP2 JUMP JUMPDEST PUSH1 0x60 PUSH1 0x0 DUP3 PUSH1 0x17 DUP2 LT PUSH2 0x1A8 JUMPI PUSH32 0x4E487B7100000000000000000000000000000000000000000000000000000000 PUSH1 0x0 MSTORE PUSH1 0x32 PUSH1 0x4 MSTORE PUSH1 0x24 PUSH1 0x0 REVERT JUMPDEST ADD DUP1 SLOAD PUSH2 0x1B4 SWAP1 PUSH2 0x355 JUMP JUMPDEST DUP1 PUSH1 0x1F ADD PUSH1 0x20 DUP1 SWAP2 DIV MUL PUSH1 0x20 ADD PUSH1 0x40 MLOAD SWAP1 DUP2 ADD PUSH1 0x40 MSTORE DUP1 SWAP3 SWAP2 SWAP1 DUP2 DUP2 MSTORE PUSH1 0x20 ADD DUP3 DUP1 SLOAD PUSH2 0x1E0 SWAP1 PUSH2 0x355 JUMP JUMPDEST DUP1 ISZERO PUSH2 0x22D JUMPI DUP1 PUSH1 0x1F LT PUSH2 0x202 JUMPI PUSH2 0x100 DUP1 DUP4 SLOAD DIV MUL DUP4 MSTORE SWAP2 PUSH1 0x20 ADD SWAP2 PUSH2 0x22D JUMP JUMPDEST DUP3 ADD SWAP2 SWAP1 PUSH1 0x0 MSTORE PUSH1 0x20 PUSH1 0x0 KECCAK256 SWAP1 JUMPDEST DUP2 SLOAD DUP2 MSTORE SWAP1 PUSH1 0x1 ADD SWAP1 PUSH1 0x20 ADD DUP1 DUP4 GT PUSH2 0x210 JUMPI DUP3 SWAP1 SUB PUSH1 0x1F AND DUP3 ADD SWAP2 JUMPDEST POP POP POP POP POP SWAP1 POP SWAP2 SWAP1 POP JUMP JUMPDEST PUSH1 0x0 DUP2 CALLDATALOAD SWAP1 POP PUSH2 0x248 DUP2 PUSH2 0x3C7 JUMP JUMPDEST SWAP3 SWAP2 POP POP JUMP JUMPDEST PUSH1 0x0 PUSH1 0x20 DUP3 DUP5 SUB SLT ISZERO PUSH2 0x260 JUMPI PUSH1 0x0 DUP1 REVERT JUMPDEST PUSH1 0x0 PUSH2 0x26E DUP5 DUP3 DUP6 ADD PUSH2 0x239 JUMP JUMPDEST SWAP2 POP POP SWAP3 SWAP2 POP POP JUMP JUMPDEST PUSH1 0x0 PUSH2 0x282 DUP3 PUSH2 0x2FC JUMP JUMPDEST PUSH2 0x28C DUP2 DUP6 PUSH2 0x307 JUMP JUMPDEST SWAP4 POP PUSH2 0x29C DUP2 DUP6 PUSH1 0x20 DUP7 ADD PUSH2 0x322 JUMP JUMPDEST PUSH2 0x2A5 DUP2 PUSH2 0x3B6 JUMP JUMPDEST DUP5 ADD SWAP2 POP POP SWAP3 SWAP2 POP POP JUMP JUMPDEST PUSH2 0x2B9 DUP2 PUSH2 0x318 JUMP JUMPDEST DUP3 MSTORE POP POP JUMP JUMPDEST PUSH1 0x0 PUSH1 0x20 DUP3 ADD SWAP1 POP DUP2 DUP2 SUB PUSH1 0x0 DUP4 ADD MSTORE PUSH2 0x2D9 DUP2 DUP5 PUSH2 0x277 JUMP JUMPDEST SWAP1 POP SWAP3 SWAP2 POP POP JUMP JUMPDEST PUSH1 0x0 PUSH1 0x20 DUP3 ADD SWAP1 POP PUSH2 0x2F6 PUSH1 0x0 DUP4 ADD DUP5 PUSH2 0x2B0 JUMP JUMPDEST SWAP3 SWAP2 POP POP JUMP JUMPDEST PUSH1 0x0 DUP2 MLOAD SWAP1 POP SWAP2 SWAP1 POP JUMP JUMPDEST PUSH1 0x0 DUP3 DUP3 MSTORE PUSH1 0x20 DUP3 ADD SWAP1 POP SWAP3 SWAP2 POP POP JUMP JUMPDEST PUSH1 0x0 DUP2 SWAP1 POP SWAP2 SWAP1 POP JUMP JUMPDEST PUSH1 0x0 JUMPDEST DUP4 DUP2 LT ISZERO PUSH2 0x340 JUMPI DUP1 DUP3 ADD MLOAD DUP2 DUP5 ADD MSTORE PUSH1 0x20 DUP2 ADD SWAP1 POP PUSH2 0x325 JUMP JUMPDEST DUP4 DUP2 GT ISZERO PUSH2 0x34F JUMPI PUSH1 0x0 DUP5 DUP5 ADD MSTORE JUMPDEST POP POP POP POP JUMP JUMPDEST PUSH1 0x0 PUSH1 0x2 DUP3 DIV SWAP1 POP PUSH1 0x1 DUP3 AND DUP1 PUSH2 0x36D JUMPI PUSH1 0x7F DUP3 AND SWAP2 POP JUMPDEST PUSH1 0x20 DUP3 LT DUP2 EQ ISZERO PUSH2 0x381 JUMPI PUSH2 0x380 PUSH2 0x387 JUMP JUMPDEST JUMPDEST POP SWAP2 SWAP1 POP JUMP JUMPDEST PUSH32 0x4E487B7100000000000000000000000000000000000000000000000000000000 PUSH1 0x0 MSTORE PUSH1 0x22 PUSH1 0x4 MSTORE PUSH1 0x24 PUSH1 0x0 REVERT JUMPDEST PUSH1 0x0 PUSH1 0x1F NOT PUSH1 0x1F DUP4 ADD AND SWAP1 POP SWAP2 SWAP1 POP JUMP JUMPDEST PUSH2 0x3D0 DUP2 PUSH2 0x318 JUMP JUMPDEST DUP2 EQ PUSH2 0x3DB JUMPI PUSH1 0x0 DUP1 REVERT JUMPDEST POP JUMP INVALID LOG2 PUSH5 0x6970667358 0x22 SLT KECCAK256 SWAP9 DUP15 EXTCODEHASH XOR DUP2 PUSH22 0x3B242081215C383E0DB3AAECAF9F09D3F45DFDB557D2 DUP16 SWAP14 SWAP10 BYTE PUSH5 0x736F6C6343 STOP ADDMOD DIV STOP CALLER PUSH14 0x6178506C61796572206D75737420 RETURNDATACOPY RETURNDATASIZE KECCAK256 PUSH15 0x756D626572206F66206A6F696E6564 KECCAK256 PUSH17 0x6C6179657273596F752063616E27742070 PUSH6 0x72666F726D20 PUSH21 0x68697320616374696F6E2028696E206C6561677565 COINBASE PUSH4 0x74696F6E NUMBER PUSH16 0x6E74726F6C29596F7520617265207472 PUSH26 0x696E6720746F206368616E676520796F7572206F776E2061646D PUSH10 0x6E20737461746550726F PUSH23 0x696465207468652065786163742076616C7565206F6620 PUSH14 0x696E696D756D20656E7472792072 PUSH6 0x71756972656D PUSH6 0x6E7420287765 PUSH10 0x296D616E616765722077 PUSH9 0x6F206D616465206C65 PUSH2 0x6775 PUSH6 0x2063616E2774 KECCAK256 PUSH11 0x6F696E6C656E2877696E43 PUSH16 0x6E64732920213D206C656E2877696E43 PUSH16 0x6E644F7073292B310000000000000000 "
        },
        "methodIdentifiers": {
          "getReason(uint256)": "b7928b4f",
          "nReason()": "3bf8af65",
          "reasons(uint256)": "b41ace17"
        }
      }
    }
  }
}