{
  "_format": "hh-sol-artifact-1",
  "contractName": "ThanksPay",
  "sourceName": "contracts/ThanksPay.sol",
  "abi": [
    {
      "inputs": [
        {
          "internalType": "address",
          "name": "dataAddress",
          "type": "address"
        },
        {
          "internalType": "address",
          "name": "_partnerWon",
          "type": "address"
        },
        {
          "internalType": "address",
          "name": "_workerWon",
          "type": "address"
        },
        {
          "internalType": "address",
          "name": "_security",
          "type": "address"
        }
      ],
      "stateMutability": "nonpayable",
      "type": "constructor"
    },
    {
      "inputs": [
        {
          "internalType": "address",
          "name": "",
          "type": "address"
        }
      ],
      "name": "companyPools",
      "outputs": [
        {
          "internalType": "uint256",
          "name": "balance",
          "type": "uint256"
        }
      ],
      "stateMutability": "view",
      "type": "function"
    },
    {
      "inputs": [
        {
          "internalType": "uint256",
          "name": "addRemove",
          "type": "uint256"
        },
        {
          "internalType": "address",
          "name": "company",
          "type": "address"
        },
        {
          "internalType": "address",
          "name": "pledger",
          "type": "address"
        },
        {
          "internalType": "uint256",
          "name": "amount",
          "type": "uint256"
        },
        {
          "internalType": "string",
          "name": "bankReceipt",
          "type": "string"
        }
      ],
      "name": "partnerTransaction",
      "outputs": [],
      "stateMutability": "nonpayable",
      "type": "function"
    },
    {
      "inputs": [
        {
          "internalType": "address",
          "name": "pId",
          "type": "address"
        },
        {
          "internalType": "uint256",
          "name": "relativePayday",
          "type": "uint256"
        },
        {
          "internalType": "uint256",
          "name": "latestPay",
          "type": "uint256"
        }
      ],
      "name": "registerPartner",
      "outputs": [],
      "stateMutability": "nonpayable",
      "type": "function"
    },
    {
      "inputs": [
        {
          "internalType": "address",
          "name": "wId",
          "type": "address"
        },
        {
          "internalType": "address",
          "name": "pId",
          "type": "address"
        },
        {
          "internalType": "uint256",
          "name": "wage",
          "type": "uint256"
        }
      ],
      "name": "registerWorker",
      "outputs": [],
      "stateMutability": "nonpayable",
      "type": "function"
    },
    {
      "inputs": [
        {
          "internalType": "address",
          "name": "worker",
          "type": "address"
        },
        {
          "internalType": "address",
          "name": "company",
          "type": "address"
        },
        {
          "internalType": "uint256",
          "name": "amount",
          "type": "uint256"
        },
        {
          "internalType": "string",
          "name": "bankReceipt",
          "type": "string"
        }
      ],
      "name": "workerTransaction",
      "outputs": [],
      "stateMutability": "nonpayable",
      "type": "function"
    }
  ],
  "bytecode": "0x60806040523480156200001157600080fd5b5060405162001071380380620010718339818101604052810190620000379190620001ae565b836000806101000a81548173ffffffffffffffffffffffffffffffffffffffff021916908373ffffffffffffffffffffffffffffffffffffffff16021790555082600160006101000a81548173ffffffffffffffffffffffffffffffffffffffff021916908373ffffffffffffffffffffffffffffffffffffffff16021790555081600260006101000a81548173ffffffffffffffffffffffffffffffffffffffff021916908373ffffffffffffffffffffffffffffffffffffffff16021790555080600360006101000a81548173ffffffffffffffffffffffffffffffffffffffff021916908373ffffffffffffffffffffffffffffffffffffffff1602179055505050505062000220565b600080fd5b600073ffffffffffffffffffffffffffffffffffffffff82169050919050565b6000620001768262000149565b9050919050565b620001888162000169565b81146200019457600080fd5b50565b600081519050620001a8816200017d565b92915050565b60008060008060808587031215620001cb57620001ca62000144565b5b6000620001db8782880162000197565b9450506020620001ee8782880162000197565b9350506040620002018782880162000197565b9250506060620002148782880162000197565b91505092959194509250565b610e4180620002306000396000f3fe608060405234801561001057600080fd5b50600436106100575760003560e01c80631a078ed81461005c5780633c2bbd1914610078578063516884cb146100a85780635c8b206f146100c4578063fbebd6c1146100e0575b600080fd5b61007660048036038101906100719190610875565b6100fc565b005b610092600480360381019061008d91906108c8565b610190565b60405161009f9190610904565b60405180910390f35b6100c260048036038101906100bd9190610a65565b6101ae565b005b6100de60048036038101906100d99190610afc565b610509565b005b6100fa60048036038101906100f59190610b7f565b6106b1565b005b60008054906101000a900473ffffffffffffffffffffffffffffffffffffffff1673ffffffffffffffffffffffffffffffffffffffff16631a078ed88484846040518463ffffffff1660e01b815260040161015993929190610be1565b600060405180830381600087803b15801561017357600080fd5b505af1158015610187573d6000803e3d6000fd5b50505050505050565b60046020528060005260406000206000915090508060000154905081565b60008514156102e257600160009054906101000a900473ffffffffffffffffffffffffffffffffffffffff1673ffffffffffffffffffffffffffffffffffffffff1663da1919b384846040518363ffffffff1660e01b8152600401610214929190610c18565b600060405180830381600087803b15801561022e57600080fd5b505af1158015610242573d6000803e3d6000fd5b5050505061029b82600460008773ffffffffffffffffffffffffffffffffffffffff1673ffffffffffffffffffffffffffffffffffffffff168152602001908152602001600020600001546107a190919063ffffffff16565b600460008673ffffffffffffffffffffffffffffffffffffffff1673ffffffffffffffffffffffffffffffffffffffff168152602001908152602001600020600001819055505b60018514156105025781600160009054906101000a900473ffffffffffffffffffffffffffffffffffffffff1673ffffffffffffffffffffffffffffffffffffffff166370a08231856040518263ffffffff1660e01b81526004016103479190610c41565b60206040518083038186803b15801561035f57600080fd5b505afa158015610373573d6000803e3d6000fd5b505050506040513d601f19601f820116820180604052508101906103979190610c71565b116103d7576040517f08c379a00000000000000000000000000000000000000000000000000000000081526004016103ce90610cfb565b60405180910390fd5b600160009054906101000a900473ffffffffffffffffffffffffffffffffffffffff1673ffffffffffffffffffffffffffffffffffffffff166379cc679084846040518363ffffffff1660e01b8152600401610434929190610c18565b600060405180830381600087803b15801561044e57600080fd5b505af1158015610462573d6000803e3d6000fd5b505050506104bb82600460008773ffffffffffffffffffffffffffffffffffffffff1673ffffffffffffffffffffffffffffffffffffffff168152602001908152602001600020600001546107b790919063ffffffff16565b600460008673ffffffffffffffffffffffffffffffffffffffff1673ffffffffffffffffffffffffffffffffffffffff168152602001908152602001600020600001819055505b5050505050565b81600460008573ffffffffffffffffffffffffffffffffffffffff1673ffffffffffffffffffffffffffffffffffffffff168152602001908152602001600020600001541161058d576040517f08c379a000000000000000000000000000000000000000000000000000000000815260040161058490610cfb565b60405180910390fd5b600160009054906101000a900473ffffffffffffffffffffffffffffffffffffffff1673ffffffffffffffffffffffffffffffffffffffff166379cc679084846040518363ffffffff1660e01b81526004016105ea929190610c18565b600060405180830381600087803b15801561060457600080fd5b505af1158015610618573d6000803e3d6000fd5b50505050600260009054906101000a900473ffffffffffffffffffffffffffffffffffffffff1673ffffffffffffffffffffffffffffffffffffffff166379cc679085846040518363ffffffff1660e01b8152600401610679929190610c18565b600060405180830381600087803b15801561069357600080fd5b505af11580156106a7573d6000803e3d6000fd5b5050505050505050565b60008054906101000a900473ffffffffffffffffffffffffffffffffffffffff1673ffffffffffffffffffffffffffffffffffffffff1663fbebd6c18484846040518463ffffffff1660e01b815260040161070e93929190610d1b565b600060405180830381600087803b15801561072857600080fd5b505af115801561073c573d6000803e3d6000fd5b5050505060405180602001604052806000815250600460008573ffffffffffffffffffffffffffffffffffffffff1673ffffffffffffffffffffffffffffffffffffffff16815260200190815260200160002060008201518160000155905050505050565b600081836107af9190610d81565b905092915050565b600081836107c59190610dd7565b905092915050565b6000604051905090565b600080fd5b600080fd5b600073ffffffffffffffffffffffffffffffffffffffff82169050919050565b600061080c826107e1565b9050919050565b61081c81610801565b811461082757600080fd5b50565b60008135905061083981610813565b92915050565b6000819050919050565b6108528161083f565b811461085d57600080fd5b50565b60008135905061086f81610849565b92915050565b60008060006060848603121561088e5761088d6107d7565b5b600061089c8682870161082a565b93505060206108ad8682870161082a565b92505060406108be86828701610860565b9150509250925092565b6000602082840312156108de576108dd6107d7565b5b60006108ec8482850161082a565b91505092915050565b6108fe8161083f565b82525050565b600060208201905061091960008301846108f5565b92915050565b600080fd5b600080fd5b6000601f19601f8301169050919050565b7f4e487b7100000000000000000000000000000000000000000000000000000000600052604160045260246000fd5b61097282610929565b810181811067ffffffffffffffff821117156109915761099061093a565b5b80604052505050565b60006109a46107cd565b90506109b08282610969565b919050565b600067ffffffffffffffff8211156109d0576109cf61093a565b5b6109d982610929565b9050602081019050919050565b82818337600083830152505050565b6000610a08610a03846109b5565b61099a565b905082815260208101848484011115610a2457610a23610924565b5b610a2f8482856109e6565b509392505050565b600082601f830112610a4c57610a4b61091f565b5b8135610a5c8482602086016109f5565b91505092915050565b600080600080600060a08688031215610a8157610a806107d7565b5b6000610a8f88828901610860565b9550506020610aa08882890161082a565b9450506040610ab18882890161082a565b9350506060610ac288828901610860565b925050608086013567ffffffffffffffff811115610ae357610ae26107dc565b5b610aef88828901610a37565b9150509295509295909350565b60008060008060808587031215610b1657610b156107d7565b5b6000610b248782880161082a565b9450506020610b358782880161082a565b9350506040610b4687828801610860565b925050606085013567ffffffffffffffff811115610b6757610b666107dc565b5b610b7387828801610a37565b91505092959194509250565b600080600060608486031215610b9857610b976107d7565b5b6000610ba68682870161082a565b9350506020610bb786828701610860565b9250506040610bc886828701610860565b9150509250925092565b610bdb81610801565b82525050565b6000606082019050610bf66000830186610bd2565b610c036020830185610bd2565b610c1060408301846108f5565b949350505050565b6000604082019050610c2d6000830185610bd2565b610c3a60208301846108f5565b9392505050565b6000602082019050610c566000830184610bd2565b92915050565b600081519050610c6b81610849565b92915050565b600060208284031215610c8757610c866107d7565b5b6000610c9584828501610c5c565b91505092915050565b600082825260208201905092915050565b7f596f752063616e6e6f742077697468647261772074686973206d756368210000600082015250565b6000610ce5601e83610c9e565b9150610cf082610caf565b602082019050919050565b60006020820190508181036000830152610d1481610cd8565b9050919050565b6000606082019050610d306000830186610bd2565b610d3d60208301856108f5565b610d4a60408301846108f5565b949350505050565b7f4e487b7100000000000000000000000000000000000000000000000000000000600052601160045260246000fd5b6000610d8c8261083f565b9150610d978361083f565b9250827fffffffffffffffffffffffffffffffffffffffffffffffffffffffffffffffff03821115610dcc57610dcb610d52565b5b828201905092915050565b6000610de28261083f565b9150610ded8361083f565b925082821015610e0057610dff610d52565b5b82820390509291505056fea26469706673582212209bd371f90046455977c89c9c2a38edf2cef91eebd0c0a379188501eb1b76c62564736f6c63430008090033",
  "linkReferences": {},
  "deployedLinkReferences": {}
}