{
  "_format": "hh-sol-artifact-1",
  "contractName": "ThanksData",
  "sourceName": "contracts/data/ThanksData.sol",
  "abi": [
    {
      "inputs": [
        {
          "internalType": "address",
          "name": "securityAddr",
          "type": "address"
        }
      ],
      "stateMutability": "nonpayable",
      "type": "constructor"
    },
    {
      "anonymous": false,
      "inputs": [
        {
          "indexed": false,
          "internalType": "uint256",
          "name": "pId",
          "type": "uint256"
        },
        {
          "indexed": false,
          "internalType": "uint256",
          "name": "latestPay",
          "type": "uint256"
        }
      ],
      "name": "companyRegistered",
      "type": "event"
    },
    {
      "anonymous": false,
      "inputs": [
        {
          "indexed": false,
          "internalType": "uint256",
          "name": "pId",
          "type": "uint256"
        },
        {
          "indexed": false,
          "internalType": "uint256",
          "name": "newBalance",
          "type": "uint256"
        }
      ],
      "name": "partnerBalanceChanged",
      "type": "event"
    },
    {
      "anonymous": false,
      "inputs": [
        {
          "indexed": false,
          "internalType": "uint256",
          "name": "pId",
          "type": "uint256"
        },
        {
          "indexed": false,
          "internalType": "uint256",
          "name": "latestPay",
          "type": "uint256"
        }
      ],
      "name": "partnerRegistered",
      "type": "event"
    },
    {
      "anonymous": false,
      "inputs": [
        {
          "indexed": false,
          "internalType": "uint256",
          "name": "wId",
          "type": "uint256"
        },
        {
          "indexed": false,
          "internalType": "uint256",
          "name": "newBalance",
          "type": "uint256"
        }
      ],
      "name": "workerBalanceChanged",
      "type": "event"
    },
    {
      "anonymous": false,
      "inputs": [
        {
          "indexed": false,
          "internalType": "uint256",
          "name": "wId",
          "type": "uint256"
        },
        {
          "indexed": false,
          "internalType": "uint256",
          "name": "pId",
          "type": "uint256"
        },
        {
          "indexed": false,
          "internalType": "uint256",
          "name": "wage",
          "type": "uint256"
        }
      ],
      "name": "workerRegistered",
      "type": "event"
    },
    {
      "inputs": [
        {
          "internalType": "uint256",
          "name": "pId",
          "type": "uint256"
        }
      ],
      "name": "getPartner",
      "outputs": [
        {
          "internalType": "uint256",
          "name": "balance",
          "type": "uint256"
        },
        {
          "internalType": "uint256",
          "name": "bonus",
          "type": "uint256"
        },
        {
          "internalType": "uint256",
          "name": "latestPay",
          "type": "uint256"
        }
      ],
      "stateMutability": "view",
      "type": "function"
    },
    {
      "inputs": [
        {
          "internalType": "uint256",
          "name": "partner",
          "type": "uint256"
        }
      ],
      "name": "getPartnerThanksPayableBalance",
      "outputs": [
        {
          "internalType": "uint256",
          "name": "",
          "type": "uint256"
        }
      ],
      "stateMutability": "view",
      "type": "function"
    },
    {
      "inputs": [
        {
          "internalType": "uint256",
          "name": "partner",
          "type": "uint256"
        }
      ],
      "name": "getPartnerWithdrawableBalance",
      "outputs": [
        {
          "internalType": "uint256",
          "name": "",
          "type": "uint256"
        }
      ],
      "stateMutability": "view",
      "type": "function"
    },
    {
      "inputs": [
        {
          "internalType": "uint256",
          "name": "wId",
          "type": "uint256"
        }
      ],
      "name": "getWorker",
      "outputs": [
        {
          "internalType": "uint256",
          "name": "balance",
          "type": "uint256"
        },
        {
          "internalType": "uint256",
          "name": "wage",
          "type": "uint256"
        },
        {
          "internalType": "uint256",
          "name": "pId",
          "type": "uint256"
        },
        {
          "internalType": "uint256",
          "name": "latestRequest",
          "type": "uint256"
        }
      ],
      "stateMutability": "view",
      "type": "function"
    },
    {
      "inputs": [
        {
          "internalType": "uint256",
          "name": "wId",
          "type": "uint256"
        }
      ],
      "name": "getWorkerBalance",
      "outputs": [
        {
          "internalType": "uint256",
          "name": "",
          "type": "uint256"
        }
      ],
      "stateMutability": "view",
      "type": "function"
    },
    {
      "inputs": [
        {
          "internalType": "uint256",
          "name": "",
          "type": "uint256"
        }
      ],
      "name": "partners",
      "outputs": [
        {
          "internalType": "uint256",
          "name": "balance",
          "type": "uint256"
        },
        {
          "internalType": "uint256",
          "name": "bonus",
          "type": "uint256"
        },
        {
          "internalType": "uint256",
          "name": "latestPay",
          "type": "uint256"
        }
      ],
      "stateMutability": "view",
      "type": "function"
    },
    {
      "inputs": [
        {
          "internalType": "uint256",
          "name": "pId",
          "type": "uint256"
        },
        {
          "internalType": "uint256",
          "name": "latestPay",
          "type": "uint256"
        }
      ],
      "name": "registerPartner",
      "outputs": [],
      "stateMutability": "nonpayable",
      "type": "function"
    },
    {
      "inputs": [
        {
          "internalType": "uint256",
          "name": "wId",
          "type": "uint256"
        },
        {
          "internalType": "uint256",
          "name": "pId",
          "type": "uint256"
        },
        {
          "internalType": "uint256",
          "name": "wage",
          "type": "uint256"
        }
      ],
      "name": "registerWorker",
      "outputs": [],
      "stateMutability": "nonpayable",
      "type": "function"
    },
    {
      "inputs": [
        {
          "internalType": "uint256",
          "name": "wId",
          "type": "uint256"
        },
        {
          "internalType": "uint256",
          "name": "latestRequest",
          "type": "uint256"
        }
      ],
      "name": "setLatestRequest",
      "outputs": [],
      "stateMutability": "nonpayable",
      "type": "function"
    },
    {
      "inputs": [
        {
          "internalType": "uint256",
          "name": "pId",
          "type": "uint256"
        },
        {
          "internalType": "uint256",
          "name": "timestamp",
          "type": "uint256"
        }
      ],
      "name": "setLatestWagePay",
      "outputs": [],
      "stateMutability": "nonpayable",
      "type": "function"
    },
    {
      "inputs": [
        {
          "internalType": "uint256",
          "name": "pId",
          "type": "uint256"
        },
        {
          "internalType": "uint256",
          "name": "newBalance",
          "type": "uint256"
        }
      ],
      "name": "setPartnerBalance",
      "outputs": [],
      "stateMutability": "nonpayable",
      "type": "function"
    },
    {
      "inputs": [
        {
          "internalType": "uint256",
          "name": "pId",
          "type": "uint256"
        },
        {
          "internalType": "uint256",
          "name": "bonus",
          "type": "uint256"
        }
      ],
      "name": "setPartnerBonus",
      "outputs": [],
      "stateMutability": "nonpayable",
      "type": "function"
    },
    {
      "inputs": [
        {
          "internalType": "uint256",
          "name": "wId",
          "type": "uint256"
        },
        {
          "internalType": "uint256",
          "name": "newBalance",
          "type": "uint256"
        }
      ],
      "name": "setWorkerBalance",
      "outputs": [],
      "stateMutability": "nonpayable",
      "type": "function"
    },
    {
      "inputs": [
        {
          "internalType": "uint256",
          "name": "",
          "type": "uint256"
        }
      ],
      "name": "types",
      "outputs": [
        {
          "internalType": "uint256",
          "name": "",
          "type": "uint256"
        }
      ],
      "stateMutability": "view",
      "type": "function"
    },
    {
      "inputs": [
        {
          "internalType": "uint256",
          "name": "",
          "type": "uint256"
        }
      ],
      "name": "workers",
      "outputs": [
        {
          "internalType": "uint256",
          "name": "balance",
          "type": "uint256"
        },
        {
          "internalType": "uint256",
          "name": "wage",
          "type": "uint256"
        },
        {
          "internalType": "uint256",
          "name": "pId",
          "type": "uint256"
        },
        {
          "internalType": "uint256",
          "name": "latestRequest",
          "type": "uint256"
        }
      ],
      "stateMutability": "view",
      "type": "function"
    }
  ],
  "bytecode": "0x60806040523480156200001157600080fd5b50604051620011a3380380620011a38339818101604052810190620000379190620000eb565b8080600460006101000a81548173ffffffffffffffffffffffffffffffffffffffff021916908373ffffffffffffffffffffffffffffffffffffffff16021790555050506200011d565b600080fd5b600073ffffffffffffffffffffffffffffffffffffffff82169050919050565b6000620000b38262000086565b9050919050565b620000c581620000a6565b8114620000d157600080fd5b50565b600081519050620000e581620000ba565b92915050565b60006020828403121562000104576200010362000081565b5b60006200011484828501620000d4565b91505092915050565b611076806200012d6000396000f3fe608060405234801561001057600080fd5b50600436106100f45760003560e01c8063a39dbdb911610097578063d59b9cde11610066578063d59b9cde146102c0578063dfd9c726146102dc578063f1a22dc2146102f8578063ff6d38371461032b576100f4565b8063a39dbdb9146101fb578063b63f98041461022e578063c3b49d041461025e578063cefbfa3614610290576100f4565b80636b835f0e116100d35780636b835f0e1461014d5780637a91e8311461017d5780637fc96619146101995780638fe9e3d4146101cb576100f4565b8062581cb3146100f9578063571f2f6d1461011557806369821b7d14610131575b600080fd5b610113600480360381019061010e9190610d6b565b610347565b005b61012f600480360381019061012a9190610d6b565b610455565b005b61014b60048036038101906101469190610d6b565b610563565b005b61016760048036038101906101629190610dab565b610638565b6040516101749190610de7565b60405180910390f35b61019760048036038101906101929190610e02565b610658565b005b6101b360048036038101906101ae9190610dab565b6107c8565b6040516101c293929190610e55565b60405180910390f35b6101e560048036038101906101e09190610dab565b610829565b6040516101f29190610de7565b60405180910390f35b61021560048036038101906102109190610dab565b6108e5565b6040516102259493929190610e8c565b60405180910390f35b61024860048036038101906102439190610dab565b610959565b6040516102559190610de7565b60405180910390f35b61027860048036038101906102739190610dab565b6109a1565b60405161028793929190610e55565b60405180910390f35b6102aa60048036038101906102a59190610dab565b6109cb565b6040516102b79190610de7565b60405180910390f35b6102da60048036038101906102d59190610d6b565b6109e3565b005b6102f660048036038101906102f19190610d6b565b610b40565b005b610312600480360381019061030d9190610dab565b610c15565b6040516103229493929190610e8c565b60405180910390f35b61034560048036038101906103409190610d6b565b610c45565b005b33600460009054906101000a900473ffffffffffffffffffffffffffffffffffffffff1673ffffffffffffffffffffffffffffffffffffffff1663fe9fbb80826040518263ffffffff1660e01b81526004016103a39190610f12565b60206040518083038186803b1580156103bb57600080fd5b505afa1580156103cf573d6000803e3d6000fd5b505050506040513d601f19601f820116820180604052508101906103f39190610f65565b6103fc57600080fd5b8160016000858152602001908152602001600020600001819055507ff0392502814d803ae434ee14e5c92ec8bcf3862c90c1abac55cdd382d912adf78383604051610448929190610f92565b60405180910390a1505050565b33600460009054906101000a900473ffffffffffffffffffffffffffffffffffffffff1673ffffffffffffffffffffffffffffffffffffffff1663fe9fbb80826040518263ffffffff1660e01b81526004016104b19190610f12565b60206040518083038186803b1580156104c957600080fd5b505afa1580156104dd573d6000803e3d6000fd5b505050506040513d601f19601f820116820180604052508101906105019190610f65565b61050a57600080fd5b8160026000858152602001908152602001600020600001819055507f6f8d0739b0bfc4ed36a6dbb2356548f06dfa56e5462ff4ca0bf5ba69db5211988383604051610556929190610f92565b60405180910390a1505050565b33600460009054906101000a900473ffffffffffffffffffffffffffffffffffffffff1673ffffffffffffffffffffffffffffffffffffffff1663fe9fbb80826040518263ffffffff1660e01b81526004016105bf9190610f12565b60206040518083038186803b1580156105d757600080fd5b505afa1580156105eb573d6000803e3d6000fd5b505050506040513d601f19601f8201168201806040525081019061060f9190610f65565b61061857600080fd5b816001600085815260200190815260200160002060020181905550505050565b600060016000838152602001908152602001600020600001549050919050565b33600460009054906101000a900473ffffffffffffffffffffffffffffffffffffffff1673ffffffffffffffffffffffffffffffffffffffff1663fe9fbb80826040518263ffffffff1660e01b81526004016106b49190610f12565b60206040518083038186803b1580156106cc57600080fd5b505afa1580156106e0573d6000803e3d6000fd5b505050506040513d601f19601f820116820180604052508101906107049190610f65565b61070d57600080fd5b60405180608001604052806000815260200183815260200184815260200160008152506002600086815260200190815260200160002060008201518160000155602082015181600101556040820151816002015560608201518160030155905050600260036000868152602001908152602001600020819055507f0a602962b575a00b750b8a4a4400f35d2d138dfb2f524fc85e72f7e91643ec058484846040516107ba93929190610e55565b60405180910390a150505050565b6000806000806001600086815260200190815260200160002060405180606001604052908160008201548152602001600182015481526020016002820154815250509050806000015181602001518260400151935093509350509193909250565b60008060026000848152602001908152602001600020604051806080016040529081600082015481526020016001820154815260200160028201548152602001600382015481525050905060006001600083604001518152602001908152602001600020604051806060016040529081600082015481526020016001820154815260200160028201548152505090508060400151826060015110156108d6578160200151925050506108e0565b8160000151925050505b919050565b600080600080600060026000878152602001908152602001600020604051806080016040529081600082015481526020016001820154815260200160028201548152602001600382015481525050905080600001518160200151826040015183606001519450945094509450509193509193565b600061099a60016000848152602001908152602001600020600101546001600085815260200190815260200160002060000154610d1a90919063ffffffff16565b9050919050565b60016020528060005260406000206000915090508060000154908060010154908060020154905083565b60036020528060005260406000206000915090505481565b33600460009054906101000a900473ffffffffffffffffffffffffffffffffffffffff1673ffffffffffffffffffffffffffffffffffffffff1663fe9fbb80826040518263ffffffff1660e01b8152600401610a3f9190610f12565b60206040518083038186803b158015610a5757600080fd5b505afa158015610a6b573d6000803e3d6000fd5b505050506040513d601f19601f82011682018060405250810190610a8f9190610f65565b610a9857600080fd5b604051806060016040528060008152602001600081526020018381525060016000858152602001908152602001600020600082015181600001556020820151816001015560408201518160020155905050600160036000858152602001908152602001600020819055507f43682a84fb08e941778401f9a9d2efc89dfdfe22c376ae1330d74869a60eaed38383604051610b33929190610f92565b60405180910390a1505050565b33600460009054906101000a900473ffffffffffffffffffffffffffffffffffffffff1673ffffffffffffffffffffffffffffffffffffffff1663fe9fbb80826040518263ffffffff1660e01b8152600401610b9c9190610f12565b60206040518083038186803b158015610bb457600080fd5b505afa158015610bc8573d6000803e3d6000fd5b505050506040513d601f19601f82011682018060405250810190610bec9190610f65565b610bf557600080fd5b816002600085815260200190815260200160002060030181905550505050565b60026020528060005260406000206000915090508060000154908060010154908060020154908060030154905084565b33600460009054906101000a900473ffffffffffffffffffffffffffffffffffffffff1673ffffffffffffffffffffffffffffffffffffffff1663fe9fbb80826040518263ffffffff1660e01b8152600401610ca19190610f12565b60206040518083038186803b158015610cb957600080fd5b505afa158015610ccd573d6000803e3d6000fd5b505050506040513d601f19601f82011682018060405250810190610cf19190610f65565b610cfa57600080fd5b816001600085815260200190815260200160002060010181905550505050565b60008183610d289190610fea565b905092915050565b600080fd5b6000819050919050565b610d4881610d35565b8114610d5357600080fd5b50565b600081359050610d6581610d3f565b92915050565b60008060408385031215610d8257610d81610d30565b5b6000610d9085828601610d56565b9250506020610da185828601610d56565b9150509250929050565b600060208284031215610dc157610dc0610d30565b5b6000610dcf84828501610d56565b91505092915050565b610de181610d35565b82525050565b6000602082019050610dfc6000830184610dd8565b92915050565b600080600060608486031215610e1b57610e1a610d30565b5b6000610e2986828701610d56565b9350506020610e3a86828701610d56565b9250506040610e4b86828701610d56565b9150509250925092565b6000606082019050610e6a6000830186610dd8565b610e776020830185610dd8565b610e846040830184610dd8565b949350505050565b6000608082019050610ea16000830187610dd8565b610eae6020830186610dd8565b610ebb6040830185610dd8565b610ec86060830184610dd8565b95945050505050565b600073ffffffffffffffffffffffffffffffffffffffff82169050919050565b6000610efc82610ed1565b9050919050565b610f0c81610ef1565b82525050565b6000602082019050610f276000830184610f03565b92915050565b60008115159050919050565b610f4281610f2d565b8114610f4d57600080fd5b50565b600081519050610f5f81610f39565b92915050565b600060208284031215610f7b57610f7a610d30565b5b6000610f8984828501610f50565b91505092915050565b6000604082019050610fa76000830185610dd8565b610fb46020830184610dd8565b9392505050565b7f4e487b7100000000000000000000000000000000000000000000000000000000600052601160045260246000fd5b6000610ff582610d35565b915061100083610d35565b9250827fffffffffffffffffffffffffffffffffffffffffffffffffffffffffffffffff0382111561103557611034610fbb565b5b82820190509291505056fea26469706673582212205f0c6bee72e04868c381f088a7a2df9755f9962a33d048a5f1471c8ff5eab0c564736f6c63430008090033",
  "linkReferences": {},
  "deployedLinkReferences": {}
}