{
  "_format": "hh-sol-artifact-1",
  "contractName": "PartnerWon",
  "sourceName": "contracts/ERC20/PartnerWon.sol",
  "abi": [
    {
      "inputs": [
        {
          "internalType": "address",
          "name": "dataAddress",
          "type": "address"
        },
        {
          "internalType": "address",
          "name": "securityAddress",
          "type": "address"
        }
      ],
      "stateMutability": "nonpayable",
      "type": "constructor"
    },
    {
      "anonymous": false,
      "inputs": [
        {
          "indexed": true,
          "internalType": "address",
          "name": "owner",
          "type": "address"
        },
        {
          "indexed": true,
          "internalType": "address",
          "name": "spender",
          "type": "address"
        },
        {
          "indexed": false,
          "internalType": "uint256",
          "name": "value",
          "type": "uint256"
        }
      ],
      "name": "Approval",
      "type": "event"
    },
    {
      "anonymous": false,
      "inputs": [
        {
          "indexed": true,
          "internalType": "address",
          "name": "from",
          "type": "address"
        },
        {
          "indexed": true,
          "internalType": "address",
          "name": "to",
          "type": "address"
        },
        {
          "indexed": false,
          "internalType": "uint256",
          "name": "value",
          "type": "uint256"
        }
      ],
      "name": "Transfer",
      "type": "event"
    },
    {
      "inputs": [
        {
          "internalType": "address",
          "name": "",
          "type": "address"
        },
        {
          "internalType": "address",
          "name": "",
          "type": "address"
        }
      ],
      "name": "allowance",
      "outputs": [
        {
          "internalType": "uint256",
          "name": "",
          "type": "uint256"
        }
      ],
      "stateMutability": "view",
      "type": "function"
    },
    {
      "inputs": [
        {
          "internalType": "address",
          "name": "spender",
          "type": "address"
        },
        {
          "internalType": "uint256",
          "name": "amount",
          "type": "uint256"
        }
      ],
      "name": "approve",
      "outputs": [
        {
          "internalType": "bool",
          "name": "",
          "type": "bool"
        }
      ],
      "stateMutability": "nonpayable",
      "type": "function"
    },
    {
      "inputs": [
        {
          "internalType": "address",
          "name": "account",
          "type": "address"
        }
      ],
      "name": "balanceOf",
      "outputs": [
        {
          "internalType": "uint256",
          "name": "",
          "type": "uint256"
        }
      ],
      "stateMutability": "view",
      "type": "function"
    },
    {
      "inputs": [
        {
          "internalType": "address",
          "name": "from",
          "type": "address"
        },
        {
          "internalType": "uint256",
          "name": "amount",
          "type": "uint256"
        }
      ],
      "name": "burnFrom",
      "outputs": [],
      "stateMutability": "nonpayable",
      "type": "function"
    },
    {
      "inputs": [],
      "name": "decimals",
      "outputs": [
        {
          "internalType": "uint8",
          "name": "",
          "type": "uint8"
        }
      ],
      "stateMutability": "view",
      "type": "function"
    },
    {
      "inputs": [
        {
          "internalType": "address",
          "name": "account",
          "type": "address"
        }
      ],
      "name": "getPartnerBalance",
      "outputs": [
        {
          "internalType": "uint256",
          "name": "",
          "type": "uint256"
        }
      ],
      "stateMutability": "view",
      "type": "function"
    },
    {
      "inputs": [
        {
          "internalType": "address",
          "name": "account",
          "type": "address"
        }
      ],
      "name": "getWorkerBalance",
      "outputs": [
        {
          "internalType": "uint256",
          "name": "",
          "type": "uint256"
        }
      ],
      "stateMutability": "view",
      "type": "function"
    },
    {
      "inputs": [
        {
          "internalType": "address",
          "name": "for_",
          "type": "address"
        },
        {
          "internalType": "uint256",
          "name": "amount",
          "type": "uint256"
        }
      ],
      "name": "mintFor",
      "outputs": [],
      "stateMutability": "nonpayable",
      "type": "function"
    },
    {
      "inputs": [],
      "name": "name",
      "outputs": [
        {
          "internalType": "string",
          "name": "",
          "type": "string"
        }
      ],
      "stateMutability": "view",
      "type": "function"
    },
    {
      "inputs": [
        {
          "internalType": "address",
          "name": "pId",
          "type": "address"
        }
      ],
      "name": "readPartner",
      "outputs": [
        {
          "internalType": "uint256",
          "name": "balance",
          "type": "uint256"
        },
        {
          "internalType": "uint256",
          "name": "latestPay",
          "type": "uint256"
        }
      ],
      "stateMutability": "view",
      "type": "function"
    },
    {
      "inputs": [
        {
          "internalType": "address",
          "name": "wId",
          "type": "address"
        }
      ],
      "name": "readWorker",
      "outputs": [
        {
          "internalType": "uint256",
          "name": "balance",
          "type": "uint256"
        },
        {
          "internalType": "uint256",
          "name": "wage",
          "type": "uint256"
        },
        {
          "internalType": "address",
          "name": "pId",
          "type": "address"
        },
        {
          "internalType": "uint256",
          "name": "latestRequest",
          "type": "uint256"
        }
      ],
      "stateMutability": "view",
      "type": "function"
    },
    {
      "inputs": [],
      "name": "symbol",
      "outputs": [
        {
          "internalType": "string",
          "name": "",
          "type": "string"
        }
      ],
      "stateMutability": "view",
      "type": "function"
    },
    {
      "inputs": [],
      "name": "totalSupply",
      "outputs": [
        {
          "internalType": "uint256",
          "name": "",
          "type": "uint256"
        }
      ],
      "stateMutability": "view",
      "type": "function"
    },
    {
      "inputs": [
        {
          "internalType": "address",
          "name": "recipient",
          "type": "address"
        },
        {
          "internalType": "uint256",
          "name": "amount",
          "type": "uint256"
        }
      ],
      "name": "transfer",
      "outputs": [
        {
          "internalType": "bool",
          "name": "",
          "type": "bool"
        }
      ],
      "stateMutability": "nonpayable",
      "type": "function"
    },
    {
      "inputs": [
        {
          "internalType": "address",
          "name": "sender",
          "type": "address"
        },
        {
          "internalType": "address",
          "name": "recipient",
          "type": "address"
        },
        {
          "internalType": "uint256",
          "name": "amount",
          "type": "uint256"
        }
      ],
      "name": "transferFrom",
      "outputs": [
        {
          "internalType": "bool",
          "name": "",
          "type": "bool"
        }
      ],
      "stateMutability": "nonpayable",
      "type": "function"
    }
  ],
  "bytecode": "0x60806040526040518060400160405280601581526020017f5468616e6b7350617920506172746e657220576f6e000000000000000000000081525060039080519060200190620000519291906200017a565b506040518060400160405280600381526020017f5450570000000000000000000000000000000000000000000000000000000000815250600490805190602001906200009f9291906200017a565b506000600560006101000a81548160ff021916908360ff160217905550348015620000c957600080fd5b5060405162001e9d38038062001e9d8339818101604052810190620000ef919062000294565b81806000806101000a81548173ffffffffffffffffffffffffffffffffffffffff021916908373ffffffffffffffffffffffffffffffffffffffff1602179055505080600560016101000a81548173ffffffffffffffffffffffffffffffffffffffff021916908373ffffffffffffffffffffffffffffffffffffffff160217905550505062000340565b82805462000188906200030a565b90600052602060002090601f016020900481019282620001ac5760008555620001f8565b82601f10620001c757805160ff1916838001178555620001f8565b82800160010185558215620001f8579182015b82811115620001f7578251825591602001919060010190620001da565b5b5090506200020791906200020b565b5090565b5b80821115620002265760008160009055506001016200020c565b5090565b600080fd5b600073ffffffffffffffffffffffffffffffffffffffff82169050919050565b60006200025c826200022f565b9050919050565b6200026e816200024f565b81146200027a57600080fd5b50565b6000815190506200028e8162000263565b92915050565b60008060408385031215620002ae57620002ad6200022a565b5b6000620002be858286016200027d565b9250506020620002d1858286016200027d565b9150509250929050565b7f4e487b7100000000000000000000000000000000000000000000000000000000600052602260045260246000fd5b600060028204905060018216806200032357607f821691505b602082108114156200033a5762000339620002db565b5b50919050565b611b4d80620003506000396000f3fe608060405234801561001057600080fd5b50600436106100f55760003560e01c80634d0de22511610097578063a9059cbb11610066578063a9059cbb146102b1578063ba49cdb5146102e1578063da1919b314610312578063dd62ed3e1461032e576100f5565b80634d0de2251461021757806370a082311461024757806379cc67901461027757806395d89b4114610293576100f5565b8063095ea7b3116100d3578063095ea7b31461017b57806318160ddd146101ab57806323b872dd146101c9578063313ce567146101f9576100f5565b8063016fa018146100fa578063065611551461012a57806306fdde031461015d575b600080fd5b610114600480360381019061010f91906114b2565b61035e565b60405161012191906114f8565b60405180910390f35b610144600480360381019061013f91906114b2565b610376565b6040516101549493929190611522565b60405180910390f35b610165610434565b6040516101729190611600565b60405180910390f35b6101956004803603810190610190919061164e565b6104c2565b6040516101a291906116a9565b60405180910390f35b6101b3610668565b6040516101c091906114f8565b60405180910390f35b6101e360048036038101906101de91906116c4565b61066e565b6040516101f091906116a9565b60405180910390f35b6102016109b2565b60405161020e9190611733565b60405180910390f35b610231600480360381019061022c91906114b2565b6109c5565b60405161023e91906114f8565b60405180910390f35b610261600480360381019061025c91906114b2565b610a0f565b60405161026e91906114f8565b60405180910390f35b610291600480360381019061028c919061164e565b610a21565b005b61029b610e06565b6040516102a89190611600565b60405180910390f35b6102cb60048036038101906102c6919061164e565b610e94565b6040516102d891906116a9565b60405180910390f35b6102fb60048036038101906102f691906114b2565b610fb9565b60405161030992919061174e565b60405180910390f35b61032c6004803603810190610327919061164e565b61106d565b005b61034860048036038101906103439190611777565b6113fe565b60405161035591906114f8565b60405180910390f35b60008061036a83610fb9565b50905080915050919050565b60008060008060008054906101000a900473ffffffffffffffffffffffffffffffffffffffff1673ffffffffffffffffffffffffffffffffffffffff16634048a257866040518263ffffffff1660e01b81526004016103d591906117b7565b60806040518083038186803b1580156103ed57600080fd5b505afa158015610401573d6000803e3d6000fd5b505050506040513d601f19601f8201168201806040525081019061042591906117fc565b93509350935093509193509193565b6003805461044190611892565b80601f016020809104026020016040519081016040528092919081815260200182805461046d90611892565b80156104ba5780601f1061048f576101008083540402835291602001916104ba565b820191906000526020600020905b81548152906001019060200180831161049d57829003601f168201915b505050505081565b6000600560019054906101000a900473ffffffffffffffffffffffffffffffffffffffff1673ffffffffffffffffffffffffffffffffffffffff1663fe9fbb80336040518263ffffffff1660e01b815260040161051f91906117b7565b60206040518083038186803b15801561053757600080fd5b505afa15801561054b573d6000803e3d6000fd5b505050506040513d601f19601f8201168201806040525081019061056f91906118f0565b61057857600080fd5b81600260003373ffffffffffffffffffffffffffffffffffffffff1673ffffffffffffffffffffffffffffffffffffffff16815260200190815260200160002060008573ffffffffffffffffffffffffffffffffffffffff1673ffffffffffffffffffffffffffffffffffffffff168152602001908152602001600020819055508273ffffffffffffffffffffffffffffffffffffffff163373ffffffffffffffffffffffffffffffffffffffff167f8c5be1e5ebec7d5bd14f71427d1e84f3dd0314c0f7b2291e5b200ac8c7c3b9258460405161065691906114f8565b60405180910390a36001905092915050565b60015481565b6000600560019054906101000a900473ffffffffffffffffffffffffffffffffffffffff1673ffffffffffffffffffffffffffffffffffffffff1663fe9fbb80336040518263ffffffff1660e01b81526004016106cb91906117b7565b60206040518083038186803b1580156106e357600080fd5b505afa1580156106f7573d6000803e3d6000fd5b505050506040513d601f19601f8201168201806040525081019061071b91906118f0565b61072457600080fd5b6107b382600260008773ffffffffffffffffffffffffffffffffffffffff1673ffffffffffffffffffffffffffffffffffffffff16815260200190815260200160002060003373ffffffffffffffffffffffffffffffffffffffff1673ffffffffffffffffffffffffffffffffffffffff1681526020019081526020016000205461142390919063ffffffff16565b600260008673ffffffffffffffffffffffffffffffffffffffff1673ffffffffffffffffffffffffffffffffffffffff16815260200190815260200160002060003373ffffffffffffffffffffffffffffffffffffffff1673ffffffffffffffffffffffffffffffffffffffff168152602001908152602001600020819055506108c282600260008673ffffffffffffffffffffffffffffffffffffffff1673ffffffffffffffffffffffffffffffffffffffff16815260200190815260200160002060003373ffffffffffffffffffffffffffffffffffffffff1673ffffffffffffffffffffffffffffffffffffffff1681526020019081526020016000205461143990919063ffffffff16565b600260008573ffffffffffffffffffffffffffffffffffffffff1673ffffffffffffffffffffffffffffffffffffffff16815260200190815260200160002060003373ffffffffffffffffffffffffffffffffffffffff1673ffffffffffffffffffffffffffffffffffffffff168152602001908152602001600020819055508273ffffffffffffffffffffffffffffffffffffffff168473ffffffffffffffffffffffffffffffffffffffff167fddf252ad1be2c89b69c2b068fc378daa952ba7f163c4a11628f55a4df523b3ef8460405161099f91906114f8565b60405180910390a3600190509392505050565b600560009054906101000a900460ff1681565b60008060008060006109d686610376565b935093509350935060006109e983610fb9565b91505080821015610a01578395505050505050610a0a565b84955050505050505b919050565b6000610a1a8261035e565b9050919050565b600560019054906101000a900473ffffffffffffffffffffffffffffffffffffffff1673ffffffffffffffffffffffffffffffffffffffff1663fe9fbb80336040518263ffffffff1660e01b8152600401610a7c91906117b7565b60206040518083038186803b158015610a9457600080fd5b505afa158015610aa8573d6000803e3d6000fd5b505050506040513d601f19601f82011682018060405250810190610acc91906118f0565b610ad557600080fd5b80600260008473ffffffffffffffffffffffffffffffffffffffff1673ffffffffffffffffffffffffffffffffffffffff16815260200190815260200160002060003373ffffffffffffffffffffffffffffffffffffffff1673ffffffffffffffffffffffffffffffffffffffff1681526020019081526020016000205411610b93576040517f08c379a0000000000000000000000000000000000000000000000000000000008152600401610b8a90611969565b60405180910390fd5b80610b9d83610a0f565b11610bdd576040517f08c379a0000000000000000000000000000000000000000000000000000000008152600401610bd4906119d5565b60405180910390fd5b610c6c81600260008573ffffffffffffffffffffffffffffffffffffffff1673ffffffffffffffffffffffffffffffffffffffff16815260200190815260200160002060003373ffffffffffffffffffffffffffffffffffffffff1673ffffffffffffffffffffffffffffffffffffffff1681526020019081526020016000205461142390919063ffffffff16565b600260008473ffffffffffffffffffffffffffffffffffffffff1673ffffffffffffffffffffffffffffffffffffffff16815260200190815260200160002060003373ffffffffffffffffffffffffffffffffffffffff1673ffffffffffffffffffffffffffffffffffffffff168152602001908152602001600020819055506000610cf78361035e565b9050610d0c828261142390919063ffffffff16565b905060008054906101000a900473ffffffffffffffffffffffffffffffffffffffff1673ffffffffffffffffffffffffffffffffffffffff166369b43b5684836040518363ffffffff1660e01b8152600401610d699291906119f5565b600060405180830381600087803b158015610d8357600080fd5b505af1158015610d97573d6000803e3d6000fd5b50505050600073ffffffffffffffffffffffffffffffffffffffff168373ffffffffffffffffffffffffffffffffffffffff167fddf252ad1be2c89b69c2b068fc378daa952ba7f163c4a11628f55a4df523b3ef84604051610df991906114f8565b60405180910390a3505050565b60048054610e1390611892565b80601f0160208091040260200160405190810160405280929190818152602001828054610e3f90611892565b8015610e8c5780601f10610e6157610100808354040283529160200191610e8c565b820191906000526020600020905b815481529060010190602001808311610e6f57829003601f168201915b505050505081565b6000600560019054906101000a900473ffffffffffffffffffffffffffffffffffffffff1673ffffffffffffffffffffffffffffffffffffffff1663fe9fbb80336040518263ffffffff1660e01b8152600401610ef191906117b7565b60206040518083038186803b158015610f0957600080fd5b505afa158015610f1d573d6000803e3d6000fd5b505050506040513d601f19601f82011682018060405250810190610f4191906118f0565b610f4a57600080fd5b8273ffffffffffffffffffffffffffffffffffffffff163373ffffffffffffffffffffffffffffffffffffffff167fddf252ad1be2c89b69c2b068fc378daa952ba7f163c4a11628f55a4df523b3ef84604051610fa791906114f8565b60405180910390a36001905092915050565b60008060008054906101000a900473ffffffffffffffffffffffffffffffffffffffff1673ffffffffffffffffffffffffffffffffffffffff166395c33652846040518263ffffffff1660e01b815260040161101591906117b7565b604080518083038186803b15801561102c57600080fd5b505afa158015611040573d6000803e3d6000fd5b505050506040513d601f19601f820116820180604052508101906110649190611a1e565b91509150915091565b600560019054906101000a900473ffffffffffffffffffffffffffffffffffffffff1673ffffffffffffffffffffffffffffffffffffffff1663fe9fbb80336040518263ffffffff1660e01b81526004016110c891906117b7565b60206040518083038186803b1580156110e057600080fd5b505afa1580156110f4573d6000803e3d6000fd5b505050506040513d601f19601f8201168201806040525081019061111891906118f0565b61112157600080fd5b600560019054906101000a900473ffffffffffffffffffffffffffffffffffffffff1673ffffffffffffffffffffffffffffffffffffffff1663fe9fbb80336040518263ffffffff1660e01b815260040161117c91906117b7565b60206040518083038186803b15801561119457600080fd5b505afa1580156111a8573d6000803e3d6000fd5b505050506040513d601f19601f820116820180604052508101906111cc91906118f0565b6111d557600080fd5b60006111e08361035e565b90506111f5828261143990919063ffffffff16565b905060008054906101000a900473ffffffffffffffffffffffffffffffffffffffff1673ffffffffffffffffffffffffffffffffffffffff166369b43b5684836040518363ffffffff1660e01b81526004016112529291906119f5565b600060405180830381600087803b15801561126c57600080fd5b505af1158015611280573d6000803e3d6000fd5b5050505061131382600260008673ffffffffffffffffffffffffffffffffffffffff1673ffffffffffffffffffffffffffffffffffffffff16815260200190815260200160002060003373ffffffffffffffffffffffffffffffffffffffff1673ffffffffffffffffffffffffffffffffffffffff1681526020019081526020016000205461143990919063ffffffff16565b600260008573ffffffffffffffffffffffffffffffffffffffff1673ffffffffffffffffffffffffffffffffffffffff16815260200190815260200160002060003373ffffffffffffffffffffffffffffffffffffffff1673ffffffffffffffffffffffffffffffffffffffff168152602001908152602001600020819055508273ffffffffffffffffffffffffffffffffffffffff16600073ffffffffffffffffffffffffffffffffffffffff167fddf252ad1be2c89b69c2b068fc378daa952ba7f163c4a11628f55a4df523b3ef846040516113f191906114f8565b60405180910390a3505050565b6002602052816000526040600020602052806000526040600020600091509150505481565b600081836114319190611a8d565b905092915050565b600081836114479190611ac1565b905092915050565b600080fd5b600073ffffffffffffffffffffffffffffffffffffffff82169050919050565b600061147f82611454565b9050919050565b61148f81611474565b811461149a57600080fd5b50565b6000813590506114ac81611486565b92915050565b6000602082840312156114c8576114c761144f565b5b60006114d68482850161149d565b91505092915050565b6000819050919050565b6114f2816114df565b82525050565b600060208201905061150d60008301846114e9565b92915050565b61151c81611474565b82525050565b600060808201905061153760008301876114e9565b61154460208301866114e9565b6115516040830185611513565b61155e60608301846114e9565b95945050505050565b600081519050919050565b600082825260208201905092915050565b60005b838110156115a1578082015181840152602081019050611586565b838111156115b0576000848401525b50505050565b6000601f19601f8301169050919050565b60006115d282611567565b6115dc8185611572565b93506115ec818560208601611583565b6115f5816115b6565b840191505092915050565b6000602082019050818103600083015261161a81846115c7565b905092915050565b61162b816114df565b811461163657600080fd5b50565b60008135905061164881611622565b92915050565b600080604083850312156116655761166461144f565b5b60006116738582860161149d565b925050602061168485828601611639565b9150509250929050565b60008115159050919050565b6116a38161168e565b82525050565b60006020820190506116be600083018461169a565b92915050565b6000806000606084860312156116dd576116dc61144f565b5b60006116eb8682870161149d565b93505060206116fc8682870161149d565b925050604061170d86828701611639565b9150509250925092565b600060ff82169050919050565b61172d81611717565b82525050565b60006020820190506117486000830184611724565b92915050565b600060408201905061176360008301856114e9565b61177060208301846114e9565b9392505050565b6000806040838503121561178e5761178d61144f565b5b600061179c8582860161149d565b92505060206117ad8582860161149d565b9150509250929050565b60006020820190506117cc6000830184611513565b92915050565b6000815190506117e181611622565b92915050565b6000815190506117f681611486565b92915050565b600080600080608085870312156118165761181561144f565b5b6000611824878288016117d2565b9450506020611835878288016117d2565b9350506040611846878288016117e7565b9250506060611857878288016117d2565b91505092959194509250565b7f4e487b7100000000000000000000000000000000000000000000000000000000600052602260045260246000fd5b600060028204905060018216806118aa57607f821691505b602082108114156118be576118bd611863565b5b50919050565b6118cd8161168e565b81146118d857600080fd5b50565b6000815190506118ea816118c4565b92915050565b6000602082840312156119065761190561144f565b5b6000611914848285016118db565b91505092915050565b7f4e6f7420656e6f75676820616c6c6f77616e6365000000000000000000000000600082015250565b6000611953601483611572565b915061195e8261191d565b602082019050919050565b6000602082019050818103600083015261198281611946565b9050919050565b7f4e6f7420656e6f7567682062616c616e63650000000000000000000000000000600082015250565b60006119bf601283611572565b91506119ca82611989565b602082019050919050565b600060208201905081810360008301526119ee816119b2565b9050919050565b6000604082019050611a0a6000830185611513565b611a1760208301846114e9565b9392505050565b60008060408385031215611a3557611a3461144f565b5b6000611a43858286016117d2565b9250506020611a54858286016117d2565b9150509250929050565b7f4e487b7100000000000000000000000000000000000000000000000000000000600052601160045260246000fd5b6000611a98826114df565b9150611aa3836114df565b925082821015611ab657611ab5611a5e565b5b828203905092915050565b6000611acc826114df565b9150611ad7836114df565b9250827fffffffffffffffffffffffffffffffffffffffffffffffffffffffffffffffff03821115611b0c57611b0b611a5e565b5b82820190509291505056fea2646970667358221220e1e3eb752317214264c4846383e27a93fd7654450f29e5b3a91034e2ee4dbc5e64736f6c63430008090033",
  "linkReferences": {},
  "deployedLinkReferences": {}
}