{
  "_format": "hh-sol-artifact-1",
  "contractName": "PartnerWon",
  "sourceName": "contracts/ERC20/PartnerWon.sol",
  "abi": [
    {
      "inputs": [
        {
          "internalType": "address",
          "name": "dataAddress",
          "type": "address"
        },
        {
          "internalType": "address",
          "name": "securityAddress",
          "type": "address"
        }
      ],
      "stateMutability": "nonpayable",
      "type": "constructor"
    },
    {
      "anonymous": false,
      "inputs": [
        {
          "indexed": true,
          "internalType": "address",
          "name": "owner",
          "type": "address"
        },
        {
          "indexed": true,
          "internalType": "address",
          "name": "spender",
          "type": "address"
        },
        {
          "indexed": false,
          "internalType": "uint256",
          "name": "value",
          "type": "uint256"
        }
      ],
      "name": "Approval",
      "type": "event"
    },
    {
      "anonymous": false,
      "inputs": [
        {
          "indexed": true,
          "internalType": "address",
          "name": "from",
          "type": "address"
        },
        {
          "indexed": true,
          "internalType": "address",
          "name": "to",
          "type": "address"
        },
        {
          "indexed": false,
          "internalType": "uint256",
          "name": "value",
          "type": "uint256"
        }
      ],
      "name": "Transfer",
      "type": "event"
    },
    {
      "inputs": [
        {
          "internalType": "address",
          "name": "",
          "type": "address"
        },
        {
          "internalType": "address",
          "name": "",
          "type": "address"
        }
      ],
      "name": "allowance",
      "outputs": [
        {
          "internalType": "uint256",
          "name": "",
          "type": "uint256"
        }
      ],
      "stateMutability": "view",
      "type": "function"
    },
    {
      "inputs": [
        {
          "internalType": "address",
          "name": "spender",
          "type": "address"
        },
        {
          "internalType": "uint256",
          "name": "amount",
          "type": "uint256"
        }
      ],
      "name": "approve",
      "outputs": [
        {
          "internalType": "bool",
          "name": "",
          "type": "bool"
        }
      ],
      "stateMutability": "nonpayable",
      "type": "function"
    },
    {
      "inputs": [
        {
          "internalType": "address",
          "name": "account",
          "type": "address"
        }
      ],
      "name": "balanceOf",
      "outputs": [
        {
          "internalType": "uint256",
          "name": "",
          "type": "uint256"
        }
      ],
      "stateMutability": "view",
      "type": "function"
    },
    {
      "inputs": [
        {
          "internalType": "address",
          "name": "",
          "type": "address"
        }
      ],
      "name": "balances",
      "outputs": [
        {
          "internalType": "uint256",
          "name": "",
          "type": "uint256"
        }
      ],
      "stateMutability": "view",
      "type": "function"
    },
    {
      "inputs": [
        {
          "internalType": "address",
          "name": "from",
          "type": "address"
        },
        {
          "internalType": "uint256",
          "name": "amount",
          "type": "uint256"
        }
      ],
      "name": "burnFrom",
      "outputs": [],
      "stateMutability": "nonpayable",
      "type": "function"
    },
    {
      "inputs": [],
      "name": "decimals",
      "outputs": [
        {
          "internalType": "uint8",
          "name": "",
          "type": "uint8"
        }
      ],
      "stateMutability": "view",
      "type": "function"
    },
    {
      "inputs": [
        {
          "internalType": "address",
          "name": "account",
          "type": "address"
        }
      ],
      "name": "getPartnerBalance",
      "outputs": [
        {
          "internalType": "uint256",
          "name": "",
          "type": "uint256"
        }
      ],
      "stateMutability": "view",
      "type": "function"
    },
    {
      "inputs": [
        {
          "internalType": "address",
          "name": "account",
          "type": "address"
        }
      ],
      "name": "getWorkerBalance",
      "outputs": [
        {
          "internalType": "uint256",
          "name": "",
          "type": "uint256"
        }
      ],
      "stateMutability": "view",
      "type": "function"
    },
    {
      "inputs": [
        {
          "internalType": "address",
          "name": "for_",
          "type": "address"
        },
        {
          "internalType": "uint256",
          "name": "amount",
          "type": "uint256"
        }
      ],
      "name": "mintFor",
      "outputs": [],
      "stateMutability": "nonpayable",
      "type": "function"
    },
    {
      "inputs": [],
      "name": "name",
      "outputs": [
        {
          "internalType": "string",
          "name": "",
          "type": "string"
        }
      ],
      "stateMutability": "view",
      "type": "function"
    },
    {
      "inputs": [
        {
          "internalType": "address",
          "name": "pId",
          "type": "address"
        }
      ],
      "name": "readPartner",
      "outputs": [
        {
          "internalType": "uint256",
          "name": "balance",
          "type": "uint256"
        },
        {
          "internalType": "uint256",
          "name": "relativePayday",
          "type": "uint256"
        },
        {
          "internalType": "uint256",
          "name": "latestPay",
          "type": "uint256"
        }
      ],
      "stateMutability": "view",
      "type": "function"
    },
    {
      "inputs": [
        {
          "internalType": "address",
          "name": "wId",
          "type": "address"
        }
      ],
      "name": "readWorker",
      "outputs": [
        {
          "internalType": "uint256",
          "name": "balance",
          "type": "uint256"
        },
        {
          "internalType": "uint256",
          "name": "wage",
          "type": "uint256"
        },
        {
          "internalType": "address",
          "name": "pId",
          "type": "address"
        },
        {
          "internalType": "uint256",
          "name": "latestRequest",
          "type": "uint256"
        }
      ],
      "stateMutability": "view",
      "type": "function"
    },
    {
      "inputs": [],
      "name": "symbol",
      "outputs": [
        {
          "internalType": "string",
          "name": "",
          "type": "string"
        }
      ],
      "stateMutability": "view",
      "type": "function"
    },
    {
      "inputs": [],
      "name": "totalSupply",
      "outputs": [
        {
          "internalType": "uint256",
          "name": "",
          "type": "uint256"
        }
      ],
      "stateMutability": "view",
      "type": "function"
    },
    {
      "inputs": [
        {
          "internalType": "address",
          "name": "recipient",
          "type": "address"
        },
        {
          "internalType": "uint256",
          "name": "amount",
          "type": "uint256"
        }
      ],
      "name": "transfer",
      "outputs": [
        {
          "internalType": "bool",
          "name": "",
          "type": "bool"
        }
      ],
      "stateMutability": "nonpayable",
      "type": "function"
    },
    {
      "inputs": [
        {
          "internalType": "address",
          "name": "sender",
          "type": "address"
        },
        {
          "internalType": "address",
          "name": "recipient",
          "type": "address"
        },
        {
          "internalType": "uint256",
          "name": "amount",
          "type": "uint256"
        }
      ],
      "name": "transferFrom",
      "outputs": [
        {
          "internalType": "bool",
          "name": "",
          "type": "bool"
        }
      ],
      "stateMutability": "nonpayable",
      "type": "function"
    }
  ],
  "bytecode": "0x60806040526040518060400160405280601581526020017f5468616e6b7350617920506172746e657220576f6e000000000000000000000081525060049080519060200190620000519291906200019c565b506040518060400160405280600381526020017f5450570000000000000000000000000000000000000000000000000000000000815250600590805190602001906200009f9291906200019c565b506000600660006101000a81548160ff021916908360ff160217905550348015620000c957600080fd5b5060405162002005380380620020058339818101604052810190620000ef9190620002b6565b81806000806101000a81548173ffffffffffffffffffffffffffffffffffffffff021916908373ffffffffffffffffffffffffffffffffffffffff16021790555050600660019054906101000a900473ffffffffffffffffffffffffffffffffffffffff16600660016101000a81548173ffffffffffffffffffffffffffffffffffffffff021916908373ffffffffffffffffffffffffffffffffffffffff160217905550505062000362565b828054620001aa906200032c565b90600052602060002090601f016020900481019282620001ce57600085556200021a565b82601f10620001e957805160ff19168380011785556200021a565b828001600101855582156200021a579182015b8281111562000219578251825591602001919060010190620001fc565b5b5090506200022991906200022d565b5090565b5b80821115620002485760008160009055506001016200022e565b5090565b600080fd5b600073ffffffffffffffffffffffffffffffffffffffff82169050919050565b60006200027e8262000251565b9050919050565b620002908162000271565b81146200029c57600080fd5b50565b600081519050620002b08162000285565b92915050565b60008060408385031215620002d057620002cf6200024c565b5b6000620002e0858286016200029f565b9250506020620002f3858286016200029f565b9150509250929050565b7f4e487b7100000000000000000000000000000000000000000000000000000000600052602260045260246000fd5b600060028204905060018216806200034557607f821691505b602082108114156200035c576200035b620002fd565b5b50919050565b611c9380620003726000396000f3fe608060405234801561001057600080fd5b50600436106101005760003560e01c80634d0de22511610097578063a9059cbb11610066578063a9059cbb146102ec578063ba49cdb51461031c578063da1919b31461034e578063dd62ed3e1461036a57610100565b80634d0de2251461025257806370a082311461028257806379cc6790146102b257806395d89b41146102ce57610100565b806318160ddd116100d357806318160ddd146101b657806323b872dd146101d457806327e235e314610204578063313ce5671461023457610100565b8063016fa01814610105578063065611551461013557806306fdde0314610168578063095ea7b314610186575b600080fd5b61011f600480360381019061011a9190611600565b61039a565b60405161012c9190611646565b60405180910390f35b61014f600480360381019061014a9190611600565b6103ba565b60405161015f9493929190611670565b60405180910390f35b610170610478565b60405161017d919061174e565b60405180910390f35b6101a0600480360381019061019b919061179c565b610506565b6040516101ad91906117f7565b60405180910390f35b6101be6106ac565b6040516101cb9190611646565b60405180910390f35b6101ee60048036038101906101e99190611812565b6106b2565b6040516101fb91906117f7565b60405180910390f35b61021e60048036038101906102199190611600565b610b20565b60405161022b9190611646565b60405180910390f35b61023c610b38565b6040516102499190611881565b60405180910390f35b61026c60048036038101906102679190611600565b610b4b565b6040516102799190611646565b60405180910390f35b61029c60048036038101906102979190611600565b610b9a565b6040516102a99190611646565b60405180910390f35b6102cc60048036038101906102c7919061179c565b610bac565b005b6102d6610f76565b6040516102e3919061174e565b60405180910390f35b6103066004803603810190610301919061179c565b611004565b60405161031391906117f7565b60405180910390f35b61033660048036038101906103319190611600565b6111d5565b6040516103459392919061189c565b60405180910390f35b6103686004803603810190610363919061179c565b611291565b005b610384600480360381019061037f91906118d3565b61154c565b6040516103919190611646565b60405180910390f35b6000806000806103a9856111d5565b925092509250829350505050919050565b60008060008060008054906101000a900473ffffffffffffffffffffffffffffffffffffffff1673ffffffffffffffffffffffffffffffffffffffff16634048a257866040518263ffffffff1660e01b81526004016104199190611913565b60806040518083038186803b15801561043157600080fd5b505afa158015610445573d6000803e3d6000fd5b505050506040513d601f19601f820116820180604052508101906104699190611958565b93509350935093509193509193565b60048054610485906119ee565b80601f01602080910402602001604051908101604052809291908181526020018280546104b1906119ee565b80156104fe5780601f106104d3576101008083540402835291602001916104fe565b820191906000526020600020905b8154815290600101906020018083116104e157829003601f168201915b505050505081565b6000600660019054906101000a900473ffffffffffffffffffffffffffffffffffffffff1673ffffffffffffffffffffffffffffffffffffffff1663fe9fbb80336040518263ffffffff1660e01b81526004016105639190611913565b60206040518083038186803b15801561057b57600080fd5b505afa15801561058f573d6000803e3d6000fd5b505050506040513d601f19601f820116820180604052508101906105b39190611a4c565b6105bc57600080fd5b81600260003373ffffffffffffffffffffffffffffffffffffffff1673ffffffffffffffffffffffffffffffffffffffff16815260200190815260200160002060008573ffffffffffffffffffffffffffffffffffffffff1673ffffffffffffffffffffffffffffffffffffffff168152602001908152602001600020819055508273ffffffffffffffffffffffffffffffffffffffff163373ffffffffffffffffffffffffffffffffffffffff167f8c5be1e5ebec7d5bd14f71427d1e84f3dd0314c0f7b2291e5b200ac8c7c3b9258460405161069a9190611646565b60405180910390a36001905092915050565b60015481565b6000600660019054906101000a900473ffffffffffffffffffffffffffffffffffffffff1673ffffffffffffffffffffffffffffffffffffffff1663fe9fbb80336040518263ffffffff1660e01b815260040161070f9190611913565b60206040518083038186803b15801561072757600080fd5b505afa15801561073b573d6000803e3d6000fd5b505050506040513d601f19601f8201168201806040525081019061075f9190611a4c565b61076857600080fd5b6107f782600260008773ffffffffffffffffffffffffffffffffffffffff1673ffffffffffffffffffffffffffffffffffffffff16815260200190815260200160002060003373ffffffffffffffffffffffffffffffffffffffff1673ffffffffffffffffffffffffffffffffffffffff1681526020019081526020016000205461157190919063ffffffff16565b600260008673ffffffffffffffffffffffffffffffffffffffff1673ffffffffffffffffffffffffffffffffffffffff16815260200190815260200160002060003373ffffffffffffffffffffffffffffffffffffffff1673ffffffffffffffffffffffffffffffffffffffff1681526020019081526020016000208190555061090682600260008673ffffffffffffffffffffffffffffffffffffffff1673ffffffffffffffffffffffffffffffffffffffff16815260200190815260200160002060003373ffffffffffffffffffffffffffffffffffffffff1673ffffffffffffffffffffffffffffffffffffffff1681526020019081526020016000205461158790919063ffffffff16565b600260008573ffffffffffffffffffffffffffffffffffffffff1673ffffffffffffffffffffffffffffffffffffffff16815260200190815260200160002060003373ffffffffffffffffffffffffffffffffffffffff1673ffffffffffffffffffffffffffffffffffffffff168152602001908152602001600020819055506109d882600360008773ffffffffffffffffffffffffffffffffffffffff1673ffffffffffffffffffffffffffffffffffffffff1681526020019081526020016000205461157190919063ffffffff16565b600360008673ffffffffffffffffffffffffffffffffffffffff1673ffffffffffffffffffffffffffffffffffffffff16815260200190815260200160002081905550610a6d82600360008673ffffffffffffffffffffffffffffffffffffffff1673ffffffffffffffffffffffffffffffffffffffff1681526020019081526020016000205461157190919063ffffffff16565b600360008573ffffffffffffffffffffffffffffffffffffffff1673ffffffffffffffffffffffffffffffffffffffff168152602001908152602001600020819055508273ffffffffffffffffffffffffffffffffffffffff168473ffffffffffffffffffffffffffffffffffffffff167fddf252ad1be2c89b69c2b068fc378daa952ba7f163c4a11628f55a4df523b3ef84604051610b0d9190611646565b60405180910390a3600190509392505050565b60036020528060005260406000206000915090505481565b600660009054906101000a900460ff1681565b6000806000806000610b5c866103ba565b9350935093509350600080610b70846111d5565b925092505080831015610b8b57849650505050505050610b95565b8596505050505050505b919050565b6000610ba58261039a565b9050919050565b600660019054906101000a900473ffffffffffffffffffffffffffffffffffffffff1673ffffffffffffffffffffffffffffffffffffffff1663fe9fbb80336040518263ffffffff1660e01b8152600401610c079190611913565b60206040518083038186803b158015610c1f57600080fd5b505afa158015610c33573d6000803e3d6000fd5b505050506040513d601f19601f82011682018060405250810190610c579190611a4c565b610c6057600080fd5b80600260008473ffffffffffffffffffffffffffffffffffffffff1673ffffffffffffffffffffffffffffffffffffffff16815260200190815260200160002060003373ffffffffffffffffffffffffffffffffffffffff1673ffffffffffffffffffffffffffffffffffffffff1681526020019081526020016000205411610d1e576040517f08c379a0000000000000000000000000000000000000000000000000000000008152600401610d1590611ac5565b60405180910390fd5b80610d2883610b9a565b11610d68576040517f08c379a0000000000000000000000000000000000000000000000000000000008152600401610d5f90611b31565b60405180910390fd5b610df781600260008573ffffffffffffffffffffffffffffffffffffffff1673ffffffffffffffffffffffffffffffffffffffff16815260200190815260200160002060003373ffffffffffffffffffffffffffffffffffffffff1673ffffffffffffffffffffffffffffffffffffffff1681526020019081526020016000205461157190919063ffffffff16565b600260008473ffffffffffffffffffffffffffffffffffffffff1673ffffffffffffffffffffffffffffffffffffffff16815260200190815260200160002060003373ffffffffffffffffffffffffffffffffffffffff1673ffffffffffffffffffffffffffffffffffffffff16815260200190815260200160002081905550610ec981600360008573ffffffffffffffffffffffffffffffffffffffff1673ffffffffffffffffffffffffffffffffffffffff1681526020019081526020016000205461157190919063ffffffff16565b600360008473ffffffffffffffffffffffffffffffffffffffff1673ffffffffffffffffffffffffffffffffffffffff16815260200190815260200160002081905550600073ffffffffffffffffffffffffffffffffffffffff168273ffffffffffffffffffffffffffffffffffffffff167fddf252ad1be2c89b69c2b068fc378daa952ba7f163c4a11628f55a4df523b3ef83604051610f6a9190611646565b60405180910390a35050565b60058054610f83906119ee565b80601f0160208091040260200160405190810160405280929190818152602001828054610faf906119ee565b8015610ffc5780601f10610fd157610100808354040283529160200191610ffc565b820191906000526020600020905b815481529060010190602001808311610fdf57829003601f168201915b505050505081565b6000600660019054906101000a900473ffffffffffffffffffffffffffffffffffffffff1673ffffffffffffffffffffffffffffffffffffffff1663fe9fbb80336040518263ffffffff1660e01b81526004016110619190611913565b60206040518083038186803b15801561107957600080fd5b505afa15801561108d573d6000803e3d6000fd5b505050506040513d601f19601f820116820180604052508101906110b19190611a4c565b6110ba57600080fd5b81600360003373ffffffffffffffffffffffffffffffffffffffff1673ffffffffffffffffffffffffffffffffffffffff16815260200190815260200160002060008282546111099190611b80565b9250508190555081600360008573ffffffffffffffffffffffffffffffffffffffff1673ffffffffffffffffffffffffffffffffffffffff168152602001908152602001600020600082825461115f9190611bb4565b925050819055508273ffffffffffffffffffffffffffffffffffffffff163373ffffffffffffffffffffffffffffffffffffffff167fddf252ad1be2c89b69c2b068fc378daa952ba7f163c4a11628f55a4df523b3ef846040516111c39190611646565b60405180910390a36001905092915050565b60008060008060009054906101000a900473ffffffffffffffffffffffffffffffffffffffff1673ffffffffffffffffffffffffffffffffffffffff166395c33652856040518263ffffffff1660e01b81526004016112349190611913565b60606040518083038186803b15801561124c57600080fd5b505afa158015611260573d6000803e3d6000fd5b505050506040513d601f19601f820116820180604052508101906112849190611c0a565b9250925092509193909250565b600660019054906101000a900473ffffffffffffffffffffffffffffffffffffffff1673ffffffffffffffffffffffffffffffffffffffff1663fe9fbb80336040518263ffffffff1660e01b81526004016112ec9190611913565b60206040518083038186803b15801561130457600080fd5b505afa158015611318573d6000803e3d6000fd5b505050506040513d601f19601f8201168201806040525081019061133c9190611a4c565b61134557600080fd5b600660019054906101000a900473ffffffffffffffffffffffffffffffffffffffff1673ffffffffffffffffffffffffffffffffffffffff1663fe9fbb80336040518263ffffffff1660e01b81526004016113a09190611913565b60206040518083038186803b1580156113b857600080fd5b505afa1580156113cc573d6000803e3d6000fd5b505050506040513d601f19601f820116820180604052508101906113f09190611a4c565b6113f957600080fd5b80600360008473ffffffffffffffffffffffffffffffffffffffff1673ffffffffffffffffffffffffffffffffffffffff16815260200190815260200160002060008282546114489190611bb4565b9250508190555080600260008473ffffffffffffffffffffffffffffffffffffffff1673ffffffffffffffffffffffffffffffffffffffff16815260200190815260200160002060003373ffffffffffffffffffffffffffffffffffffffff1673ffffffffffffffffffffffffffffffffffffffff16815260200190815260200160002060008282546114db9190611bb4565b925050819055508173ffffffffffffffffffffffffffffffffffffffff16600073ffffffffffffffffffffffffffffffffffffffff167fddf252ad1be2c89b69c2b068fc378daa952ba7f163c4a11628f55a4df523b3ef836040516115409190611646565b60405180910390a35050565b6002602052816000526040600020602052806000526040600020600091509150505481565b6000818361157f9190611b80565b905092915050565b600081836115959190611bb4565b905092915050565b600080fd5b600073ffffffffffffffffffffffffffffffffffffffff82169050919050565b60006115cd826115a2565b9050919050565b6115dd816115c2565b81146115e857600080fd5b50565b6000813590506115fa816115d4565b92915050565b6000602082840312156116165761161561159d565b5b6000611624848285016115eb565b91505092915050565b6000819050919050565b6116408161162d565b82525050565b600060208201905061165b6000830184611637565b92915050565b61166a816115c2565b82525050565b60006080820190506116856000830187611637565b6116926020830186611637565b61169f6040830185611661565b6116ac6060830184611637565b95945050505050565b600081519050919050565b600082825260208201905092915050565b60005b838110156116ef5780820151818401526020810190506116d4565b838111156116fe576000848401525b50505050565b6000601f19601f8301169050919050565b6000611720826116b5565b61172a81856116c0565b935061173a8185602086016116d1565b61174381611704565b840191505092915050565b600060208201905081810360008301526117688184611715565b905092915050565b6117798161162d565b811461178457600080fd5b50565b60008135905061179681611770565b92915050565b600080604083850312156117b3576117b261159d565b5b60006117c1858286016115eb565b92505060206117d285828601611787565b9150509250929050565b60008115159050919050565b6117f1816117dc565b82525050565b600060208201905061180c60008301846117e8565b92915050565b60008060006060848603121561182b5761182a61159d565b5b6000611839868287016115eb565b935050602061184a868287016115eb565b925050604061185b86828701611787565b9150509250925092565b600060ff82169050919050565b61187b81611865565b82525050565b60006020820190506118966000830184611872565b92915050565b60006060820190506118b16000830186611637565b6118be6020830185611637565b6118cb6040830184611637565b949350505050565b600080604083850312156118ea576118e961159d565b5b60006118f8858286016115eb565b9250506020611909858286016115eb565b9150509250929050565b60006020820190506119286000830184611661565b92915050565b60008151905061193d81611770565b92915050565b600081519050611952816115d4565b92915050565b600080600080608085870312156119725761197161159d565b5b60006119808782880161192e565b94505060206119918782880161192e565b93505060406119a287828801611943565b92505060606119b38782880161192e565b91505092959194509250565b7f4e487b7100000000000000000000000000000000000000000000000000000000600052602260045260246000fd5b60006002820490506001821680611a0657607f821691505b60208210811415611a1a57611a196119bf565b5b50919050565b611a29816117dc565b8114611a3457600080fd5b50565b600081519050611a4681611a20565b92915050565b600060208284031215611a6257611a6161159d565b5b6000611a7084828501611a37565b91505092915050565b7f4e6f7420656e6f75676820616c6c6f77616e6365000000000000000000000000600082015250565b6000611aaf6014836116c0565b9150611aba82611a79565b602082019050919050565b60006020820190508181036000830152611ade81611aa2565b9050919050565b7f4e6f7420656e6f7567682062616c616e63650000000000000000000000000000600082015250565b6000611b1b6012836116c0565b9150611b2682611ae5565b602082019050919050565b60006020820190508181036000830152611b4a81611b0e565b9050919050565b7f4e487b7100000000000000000000000000000000000000000000000000000000600052601160045260246000fd5b6000611b8b8261162d565b9150611b968361162d565b925082821015611ba957611ba8611b51565b5b828203905092915050565b6000611bbf8261162d565b9150611bca8361162d565b9250827fffffffffffffffffffffffffffffffffffffffffffffffffffffffffffffffff03821115611bff57611bfe611b51565b5b828201905092915050565b600080600060608486031215611c2357611c2261159d565b5b6000611c318682870161192e565b9350506020611c428682870161192e565b9250506040611c538682870161192e565b915050925092509256fea2646970667358221220d6c5e4fbc5488fbbcdaa71607b0ca8307dab22d14e17b7bca266dd5ad188ba5e64736f6c63430008090033",
  "linkReferences": {},
  "deployedLinkReferences": {}
}