{
  "_format": "hh-sol-artifact-1",
  "contractName": "ThanksPayRelay",
  "sourceName": "contracts/data/ThanksRelay.sol",
  "abi": [
    {
      "inputs": [
        {
          "internalType": "address",
          "name": "securityAddr",
          "type": "address"
        }
      ],
      "stateMutability": "nonpayable",
      "type": "constructor"
    },
    {
      "anonymous": false,
      "inputs": [
        {
          "indexed": false,
          "internalType": "uint256",
          "name": "entityID",
          "type": "uint256"
        },
        {
          "indexed": false,
          "internalType": "uint256",
          "name": "blockchainID",
          "type": "uint256"
        },
        {
          "indexed": false,
          "internalType": "uint256[]",
          "name": "propertyID",
          "type": "uint256[]"
        },
        {
          "indexed": false,
          "internalType": "string[]",
          "name": "propertyValue",
          "type": "string[]"
        }
      ],
      "name": "propertyAdded",
      "type": "event"
    },
    {
      "inputs": [
        {
          "internalType": "uint256",
          "name": "entityID",
          "type": "uint256"
        },
        {
          "internalType": "uint256[]",
          "name": "propertyIDs",
          "type": "uint256[]"
        },
        {
          "internalType": "string[]",
          "name": "_propertyNames",
          "type": "string[]"
        }
      ],
      "name": "addProperty",
      "outputs": [],
      "stateMutability": "nonpayable",
      "type": "function"
    },
    {
      "inputs": [
        {
          "internalType": "uint256",
          "name": "entityID",
          "type": "uint256"
        },
        {
          "internalType": "uint256",
          "name": "propertyID",
          "type": "uint256"
        }
      ],
      "name": "getPropertyName",
      "outputs": [
        {
          "internalType": "string",
          "name": "",
          "type": "string"
        }
      ],
      "stateMutability": "view",
      "type": "function"
    },
    {
      "inputs": [
        {
          "internalType": "uint256",
          "name": "entityID",
          "type": "uint256"
        },
        {
          "internalType": "uint256",
          "name": "blockchainID",
          "type": "uint256"
        },
        {
          "internalType": "uint256[]",
          "name": "propertyIDs",
          "type": "uint256[]"
        },
        {
          "internalType": "string[]",
          "name": "propertyValues",
          "type": "string[]"
        }
      ],
      "name": "setProperty",
      "outputs": [],
      "stateMutability": "nonpayable",
      "type": "function"
    }
  ],
  "bytecode": "0x608060405234801561001057600080fd5b50604051610ee2380380610ee2833981810160405281019061003291906100dd565b80806000806101000a81548173ffffffffffffffffffffffffffffffffffffffff021916908373ffffffffffffffffffffffffffffffffffffffff160217905550505061010a565b600080fd5b600073ffffffffffffffffffffffffffffffffffffffff82169050919050565b60006100aa8261007f565b9050919050565b6100ba8161009f565b81146100c557600080fd5b50565b6000815190506100d7816100b1565b92915050565b6000602082840312156100f3576100f261007a565b5b6000610101848285016100c8565b91505092915050565b610dc9806101196000396000f3fe608060405234801561001057600080fd5b50600436106100415760003560e01c806314f7d5f0146100465780631ffa80d014610062578063eb84ff5e1461007e575b600080fd5b610060600480360381019061005b919061078a565b6100ae565b005b61007c60048036038101906100779190610829565b6101a5565b005b610098600480360381019061009391906108b4565b6102f7565b6040516100a5919061097c565b60405180910390f35b3360008054906101000a900473ffffffffffffffffffffffffffffffffffffffff1673ffffffffffffffffffffffffffffffffffffffff1663fe9fbb80826040518263ffffffff1660e01b815260040161010891906109df565b60206040518083038186803b15801561012057600080fd5b505afa158015610134573d6000803e3d6000fd5b505050506040513d601f19601f820116820180604052508101906101589190610a32565b61016157600080fd5b7ffae5bc2601fc2bb63029893d9b34381dc0a6f9c39e7efd71f1be3ad075ead6b0858585856040516101969493929190610c38565b60405180910390a15050505050565b3360008054906101000a900473ffffffffffffffffffffffffffffffffffffffff1673ffffffffffffffffffffffffffffffffffffffff1663fe9fbb80826040518263ffffffff1660e01b81526004016101ff91906109df565b60206040518083038186803b15801561021757600080fd5b505afa15801561022b573d6000803e3d6000fd5b505050506040513d601f19601f8201168201806040525081019061024f9190610a32565b61025857600080fd5b60005b82518110156102f057600084828151811061027957610278610c8b565b5b60200260200101519050600084838151811061029857610297610c8b565b5b602002602001015190508060016000898152602001908152602001600020600084815260200190815260200160002090805190602001906102da9291906103ae565b50505080806102e890610ce9565b91505061025b565b5050505050565b6060600160008481526020019081526020016000206000838152602001908152602001600020805461032890610d61565b80601f016020809104026020016040519081016040528092919081815260200182805461035490610d61565b80156103a15780601f10610376576101008083540402835291602001916103a1565b820191906000526020600020905b81548152906001019060200180831161038457829003601f168201915b5050505050905092915050565b8280546103ba90610d61565b90600052602060002090601f0160209004810192826103dc5760008555610423565b82601f106103f557805160ff1916838001178555610423565b82800160010185558215610423579182015b82811115610422578251825591602001919060010190610407565b5b5090506104309190610434565b5090565b5b8082111561044d576000816000905550600101610435565b5090565b6000604051905090565b600080fd5b600080fd5b6000819050919050565b61047881610465565b811461048357600080fd5b50565b6000813590506104958161046f565b92915050565b600080fd5b6000601f19601f8301169050919050565b7f4e487b7100000000000000000000000000000000000000000000000000000000600052604160045260246000fd5b6104e9826104a0565b810181811067ffffffffffffffff82111715610508576105076104b1565b5b80604052505050565b600061051b610451565b905061052782826104e0565b919050565b600067ffffffffffffffff821115610547576105466104b1565b5b602082029050602081019050919050565b600080fd5b600061057061056b8461052c565b610511565b9050808382526020820190506020840283018581111561059357610592610558565b5b835b818110156105bc57806105a88882610486565b845260208401935050602081019050610595565b5050509392505050565b600082601f8301126105db576105da61049b565b5b81356105eb84826020860161055d565b91505092915050565b600067ffffffffffffffff82111561060f5761060e6104b1565b5b602082029050602081019050919050565b600080fd5b600067ffffffffffffffff8211156106405761063f6104b1565b5b610649826104a0565b9050602081019050919050565b82818337600083830152505050565b600061067861067384610625565b610511565b90508281526020810184848401111561069457610693610620565b5b61069f848285610656565b509392505050565b600082601f8301126106bc576106bb61049b565b5b81356106cc848260208601610665565b91505092915050565b60006106e86106e3846105f4565b610511565b9050808382526020820190506020840283018581111561070b5761070a610558565b5b835b8181101561075257803567ffffffffffffffff8111156107305761072f61049b565b5b80860161073d89826106a7565b8552602085019450505060208101905061070d565b5050509392505050565b600082601f8301126107715761077061049b565b5b81356107818482602086016106d5565b91505092915050565b600080600080608085870312156107a4576107a361045b565b5b60006107b287828801610486565b94505060206107c387828801610486565b935050604085013567ffffffffffffffff8111156107e4576107e3610460565b5b6107f0878288016105c6565b925050606085013567ffffffffffffffff81111561081157610810610460565b5b61081d8782880161075c565b91505092959194509250565b6000806000606084860312156108425761084161045b565b5b600061085086828701610486565b935050602084013567ffffffffffffffff81111561087157610870610460565b5b61087d868287016105c6565b925050604084013567ffffffffffffffff81111561089e5761089d610460565b5b6108aa8682870161075c565b9150509250925092565b600080604083850312156108cb576108ca61045b565b5b60006108d985828601610486565b92505060206108ea85828601610486565b9150509250929050565b600081519050919050565b600082825260208201905092915050565b60005b8381101561092e578082015181840152602081019050610913565b8381111561093d576000848401525b50505050565b600061094e826108f4565b61095881856108ff565b9350610968818560208601610910565b610971816104a0565b840191505092915050565b600060208201905081810360008301526109968184610943565b905092915050565b600073ffffffffffffffffffffffffffffffffffffffff82169050919050565b60006109c98261099e565b9050919050565b6109d9816109be565b82525050565b60006020820190506109f460008301846109d0565b92915050565b60008115159050919050565b610a0f816109fa565b8114610a1a57600080fd5b50565b600081519050610a2c81610a06565b92915050565b600060208284031215610a4857610a4761045b565b5b6000610a5684828501610a1d565b91505092915050565b610a6881610465565b82525050565b600081519050919050565b600082825260208201905092915050565b6000819050602082019050919050565b610aa381610465565b82525050565b6000610ab58383610a9a565b60208301905092915050565b6000602082019050919050565b6000610ad982610a6e565b610ae38185610a79565b9350610aee83610a8a565b8060005b83811015610b1f578151610b068882610aa9565b9750610b1183610ac1565b925050600181019050610af2565b5085935050505092915050565b600081519050919050565b600082825260208201905092915050565b6000819050602082019050919050565b600082825260208201905092915050565b6000610b74826108f4565b610b7e8185610b58565b9350610b8e818560208601610910565b610b97816104a0565b840191505092915050565b6000610bae8383610b69565b905092915050565b6000602082019050919050565b6000610bce82610b2c565b610bd88185610b37565b935083602082028501610bea85610b48565b8060005b85811015610c265784840389528151610c078582610ba2565b9450610c1283610bb6565b925060208a01995050600181019050610bee565b50829750879550505050505092915050565b6000608082019050610c4d6000830187610a5f565b610c5a6020830186610a5f565b8181036040830152610c6c8185610ace565b90508181036060830152610c808184610bc3565b905095945050505050565b7f4e487b7100000000000000000000000000000000000000000000000000000000600052603260045260246000fd5b7f4e487b7100000000000000000000000000000000000000000000000000000000600052601160045260246000fd5b6000610cf482610465565b91507fffffffffffffffffffffffffffffffffffffffffffffffffffffffffffffffff821415610d2757610d26610cba565b5b600182019050919050565b7f4e487b7100000000000000000000000000000000000000000000000000000000600052602260045260246000fd5b60006002820490506001821680610d7957607f821691505b60208210811415610d8d57610d8c610d32565b5b5091905056fea26469706673582212206d321d020ae2a067ab8eb4d0be4962fc79e3f2fafbaf8d3b5f14db2a45927a5764736f6c63430008090033",
  "linkReferences": {},
  "deployedLinkReferences": {}
}