{
  "_format": "hh-sol-artifact-1",
  "contractName": "ThanksPayData",
  "sourceName": "contracts/data/ThanksPayData.sol",
  "abi": [
    {
      "inputs": [
        {
          "internalType": "address",
          "name": "securityAddress",
          "type": "address"
        }
      ],
      "stateMutability": "nonpayable",
      "type": "constructor"
    },
    {
      "inputs": [],
      "name": "revertEmpty",
      "type": "error"
    },
    {
      "inputs": [
        {
          "internalType": "uint16",
          "name": "exitCode",
          "type": "uint16"
        }
      ],
      "name": "revertExitCode",
      "type": "error"
    },
    {
      "inputs": [
        {
          "internalType": "string",
          "name": "reason",
          "type": "string"
        }
      ],
      "name": "revertReason",
      "type": "error"
    },
    {
      "anonymous": false,
      "inputs": [
        {
          "indexed": false,
          "internalType": "address",
          "name": "pId",
          "type": "address"
        },
        {
          "indexed": false,
          "internalType": "uint256",
          "name": "latestPay",
          "type": "uint256"
        }
      ],
      "name": "companyRegistered",
      "type": "event"
    },
    {
      "anonymous": false,
      "inputs": [
        {
          "indexed": false,
          "internalType": "address",
          "name": "pId",
          "type": "address"
        },
        {
          "indexed": false,
          "internalType": "uint256",
          "name": "newBalance",
          "type": "uint256"
        }
      ],
      "name": "partnerBalanceChanged",
      "type": "event"
    },
    {
      "anonymous": false,
      "inputs": [
        {
          "indexed": false,
          "internalType": "address",
          "name": "pId",
          "type": "address"
        },
        {
          "indexed": false,
          "internalType": "uint256",
          "name": "latestPay",
          "type": "uint256"
        }
      ],
      "name": "partnerRegistered",
      "type": "event"
    },
    {
      "anonymous": false,
      "inputs": [
        {
          "indexed": false,
          "internalType": "uint256",
          "name": "wId",
          "type": "uint256"
        },
        {
          "indexed": false,
          "internalType": "uint256",
          "name": "newBalance",
          "type": "uint256"
        }
      ],
      "name": "workerBalanceChanged",
      "type": "event"
    },
    {
      "anonymous": false,
      "inputs": [
        {
          "indexed": false,
          "internalType": "address",
          "name": "wId",
          "type": "address"
        },
        {
          "indexed": false,
          "internalType": "address",
          "name": "pId",
          "type": "address"
        },
        {
          "indexed": false,
          "internalType": "uint256",
          "name": "wage",
          "type": "uint256"
        }
      ],
      "name": "workerRegistered",
      "type": "event"
    },
    {
      "inputs": [
        {
          "internalType": "address",
          "name": "",
          "type": "address"
        }
      ],
      "name": "companies",
      "outputs": [
        {
          "internalType": "uint256",
          "name": "balance",
          "type": "uint256"
        }
      ],
      "stateMutability": "view",
      "type": "function"
    },
    {
      "inputs": [
        {
          "internalType": "address",
          "name": "",
          "type": "address"
        }
      ],
      "name": "partners",
      "outputs": [
        {
          "internalType": "uint256",
          "name": "balance",
          "type": "uint256"
        },
        {
          "internalType": "uint256",
          "name": "latestPay",
          "type": "uint256"
        }
      ],
      "stateMutability": "view",
      "type": "function"
    },
    {
      "inputs": [
        {
          "internalType": "address",
          "name": "pId",
          "type": "address"
        },
        {
          "internalType": "uint256",
          "name": "latestPay",
          "type": "uint256"
        }
      ],
      "name": "registerPartner",
      "outputs": [],
      "stateMutability": "nonpayable",
      "type": "function"
    },
    {
      "inputs": [
        {
          "internalType": "address",
          "name": "wId",
          "type": "address"
        },
        {
          "internalType": "address",
          "name": "pId",
          "type": "address"
        },
        {
          "internalType": "uint256",
          "name": "wage",
          "type": "uint256"
        }
      ],
      "name": "registerWorker",
      "outputs": [],
      "stateMutability": "nonpayable",
      "type": "function"
    },
    {
      "inputs": [
        {
          "internalType": "bool",
          "name": "condition",
          "type": "bool"
        }
      ],
      "name": "revertCheck",
      "outputs": [],
      "stateMutability": "pure",
      "type": "function"
    },
    {
      "inputs": [
        {
          "internalType": "bool",
          "name": "condition",
          "type": "bool"
        },
        {
          "internalType": "string",
          "name": "reason",
          "type": "string"
        }
      ],
      "name": "revertCheck",
      "outputs": [],
      "stateMutability": "pure",
      "type": "function"
    },
    {
      "inputs": [
        {
          "internalType": "bool",
          "name": "condition",
          "type": "bool"
        },
        {
          "internalType": "uint16",
          "name": "exitCode",
          "type": "uint16"
        }
      ],
      "name": "revertCheck",
      "outputs": [],
      "stateMutability": "pure",
      "type": "function"
    },
    {
      "inputs": [
        {
          "internalType": "address",
          "name": "pId",
          "type": "address"
        },
        {
          "internalType": "uint256",
          "name": "newBalance",
          "type": "uint256"
        }
      ],
      "name": "setCompanyBalance",
      "outputs": [],
      "stateMutability": "nonpayable",
      "type": "function"
    },
    {
      "inputs": [
        {
          "internalType": "address",
          "name": "wId",
          "type": "address"
        },
        {
          "internalType": "uint256",
          "name": "latestRequest",
          "type": "uint256"
        }
      ],
      "name": "setLatestRequest",
      "outputs": [],
      "stateMutability": "nonpayable",
      "type": "function"
    },
    {
      "inputs": [
        {
          "internalType": "address",
          "name": "pId",
          "type": "address"
        },
        {
          "internalType": "uint256",
          "name": "timestamp",
          "type": "uint256"
        }
      ],
      "name": "setLatestWagePay",
      "outputs": [],
      "stateMutability": "nonpayable",
      "type": "function"
    },
    {
      "inputs": [
        {
          "internalType": "address",
          "name": "pId",
          "type": "address"
        },
        {
          "internalType": "uint256",
          "name": "newBalance",
          "type": "uint256"
        }
      ],
      "name": "setPartnerBalance",
      "outputs": [],
      "stateMutability": "nonpayable",
      "type": "function"
    },
    {
      "inputs": [
        {
          "internalType": "address",
          "name": "wId",
          "type": "address"
        },
        {
          "internalType": "uint256",
          "name": "newBalance",
          "type": "uint256"
        }
      ],
      "name": "setWorkerBalance",
      "outputs": [],
      "stateMutability": "nonpayable",
      "type": "function"
    },
    {
      "inputs": [
        {
          "internalType": "address",
          "name": "",
          "type": "address"
        }
      ],
      "name": "types",
      "outputs": [
        {
          "internalType": "uint256",
          "name": "",
          "type": "uint256"
        }
      ],
      "stateMutability": "view",
      "type": "function"
    },
    {
      "inputs": [
        {
          "internalType": "address",
          "name": "",
          "type": "address"
        }
      ],
      "name": "workers",
      "outputs": [
        {
          "internalType": "uint256",
          "name": "balance",
          "type": "uint256"
        },
        {
          "internalType": "uint256",
          "name": "wage",
          "type": "uint256"
        },
        {
          "internalType": "address",
          "name": "pId",
          "type": "address"
        },
        {
          "internalType": "uint256",
          "name": "latestRequest",
          "type": "uint256"
        }
      ],
      "stateMutability": "view",
      "type": "function"
    }
  ],
  "bytecode": "0x60806040523480156200001157600080fd5b50604051620017aa380380620017aa8339818101604052810190620000379190620001e7565b62000067604051806060016040528060378152602001620017736037913982620000ae60201b62000dad1760201c565b806000806101000a81548173ffffffffffffffffffffffffffffffffffffffff021916908373ffffffffffffffffffffffffffffffffffffffff1602179055505062000302565b620001508282604051602401620000c7929190620002ce565b6040516020818303038152906040527f319af333000000000000000000000000000000000000000000000000000000007bffffffffffffffffffffffffffffffffffffffffffffffffffffffff19166020820180517bffffffffffffffffffffffffffffffffffffffffffffffffffffffff83818316178352505050506200015460201b60201c565b5050565b60008151905060006a636f6e736f6c652e6c6f679050602083016000808483855afa5050505050565b600080fd5b600073ffffffffffffffffffffffffffffffffffffffff82169050919050565b6000620001af8262000182565b9050919050565b620001c181620001a2565b8114620001cd57600080fd5b50565b600081519050620001e181620001b6565b92915050565b6000602082840312156200020057620001ff6200017d565b5b60006200021084828501620001d0565b91505092915050565b600081519050919050565b600082825260208201905092915050565b60005b838110156200025557808201518184015260208101905062000238565b8381111562000265576000848401525b50505050565b6000601f19601f8301169050919050565b6000620002898262000219565b62000295818562000224565b9350620002a781856020860162000235565b620002b2816200026b565b840191505092915050565b620002c881620001a2565b82525050565b60006040820190508181036000830152620002ea81856200027c565b9050620002fb6020830184620002bd565b9392505050565b61146180620003126000396000f3fe608060405234801561001057600080fd5b50600436106100ea5760003560e01c80635b69860b1161008c57806395c336521161006657806395c3365214610246578063acced23114610277578063beee8cf914610293578063d5ea23d6146102af576100ea565b80635b69860b146101f257806369b43b561461020e5780637cc2097d1461022a576100ea565b806309b9aef3116100c857806309b9aef3146101435780631a078ed814610173578063355e6ce81461018f5780634048a257146101bf576100ea565b806303952c62146100ef57806307f6d0a41461010b5780630870665114610127575b600080fd5b61010960048036038101906101049190610eb4565b6102cb565b005b61012560048036038101906101209190610f75565b610305565b005b610141600480360381019061013c919061101a565b610401565b005b61015d6004803603810190610158919061107a565b61044a565b60405161016a91906110b6565b60405180910390f35b61018d600480360381019061018891906110d1565b610462565b005b6101a960048036038101906101a4919061107a565b610678565b6040516101b691906110b6565b60405180910390f35b6101d960048036038101906101d4919061107a565b610696565b6040516101e99493929190611133565b60405180910390f35b61020c60048036038101906102079190610f75565b6106e6565b005b61022860048036038101906102239190610f75565b6107e2565b005b610244600480360381019061023f9190610f75565b610917565b005b610260600480360381019061025b919061107a565b610b12565b60405161026e929190611178565b60405180910390f35b610291600480360381019061028c9190610f75565b610b36565b005b6102ad60048036038101906102a89190610f75565b610c32565b005b6102c960048036038101906102c491906111db565b610d67565b005b80610302576040517f4926c4c600000000000000000000000000000000000000000000000000000000815260040160405180910390fd5b50565b6103b660008054906101000a900473ffffffffffffffffffffffffffffffffffffffff1673ffffffffffffffffffffffffffffffffffffffff1663fe9fbb80336040518263ffffffff1660e01b8152600401610361919061121b565b60206040518083038186803b15801561037957600080fd5b505afa15801561038d573d6000803e3d6000fd5b505050506040513d601f19601f820116820180604052508101906103b1919061124b565b6102cb565b80600260008473ffffffffffffffffffffffffffffffffffffffff1673ffffffffffffffffffffffffffffffffffffffff168152602001908152602001600020600101819055505050565b826104455781816040517f88720fae00000000000000000000000000000000000000000000000000000000815260040161043c9291906112d6565b60405180910390fd5b505050565b60046020528060005260406000206000915090505481565b61051360008054906101000a900473ffffffffffffffffffffffffffffffffffffffff1673ffffffffffffffffffffffffffffffffffffffff1663fe9fbb80336040518263ffffffff1660e01b81526004016104be919061121b565b60206040518083038186803b1580156104d657600080fd5b505afa1580156104ea573d6000803e3d6000fd5b505050506040513d601f19601f8201168201806040525081019061050e919061124b565b6102cb565b6040518060800160405280600081526020018281526020018373ffffffffffffffffffffffffffffffffffffffff1681526020016000815250600160008573ffffffffffffffffffffffffffffffffffffffff1673ffffffffffffffffffffffffffffffffffffffff168152602001908152602001600020600082015181600001556020820151816001015560408201518160020160006101000a81548173ffffffffffffffffffffffffffffffffffffffff021916908373ffffffffffffffffffffffffffffffffffffffff160217905550606082015181600301559050506002600460008573ffffffffffffffffffffffffffffffffffffffff1673ffffffffffffffffffffffffffffffffffffffff168152602001908152602001600020819055507f56f761bd6e53ed4ba3090c7eae15640bd1d25ee4db8acb2b0cd835c9142ba6d083838360405161066b939291906112fa565b60405180910390a1505050565b60036020528060005260406000206000915090508060000154905081565b60016020528060005260406000206000915090508060000154908060010154908060020160009054906101000a900473ffffffffffffffffffffffffffffffffffffffff16908060030154905084565b61079760008054906101000a900473ffffffffffffffffffffffffffffffffffffffff1673ffffffffffffffffffffffffffffffffffffffff1663fe9fbb80336040518263ffffffff1660e01b8152600401610742919061121b565b60206040518083038186803b15801561075a57600080fd5b505afa15801561076e573d6000803e3d6000fd5b505050506040513d601f19601f82011682018060405250810190610792919061124b565b6102cb565b80600160008473ffffffffffffffffffffffffffffffffffffffff1673ffffffffffffffffffffffffffffffffffffffff168152602001908152602001600020600301819055505050565b61089360008054906101000a900473ffffffffffffffffffffffffffffffffffffffff1673ffffffffffffffffffffffffffffffffffffffff1663fe9fbb80336040518263ffffffff1660e01b815260040161083e919061121b565b60206040518083038186803b15801561085657600080fd5b505afa15801561086a573d6000803e3d6000fd5b505050506040513d601f19601f8201168201806040525081019061088e919061124b565b6102cb565b80600260008473ffffffffffffffffffffffffffffffffffffffff1673ffffffffffffffffffffffffffffffffffffffff168152602001908152602001600020600001819055507f0c3bcae7e61591af02bb2812a964a3d2b74e34edae27feca4b070cd7b8959b44828260405161090b929190611331565b60405180910390a15050565b6109c860008054906101000a900473ffffffffffffffffffffffffffffffffffffffff1673ffffffffffffffffffffffffffffffffffffffff1663fe9fbb80336040518263ffffffff1660e01b8152600401610973919061121b565b60206040518083038186803b15801561098b57600080fd5b505afa15801561099f573d6000803e3d6000fd5b505050506040513d601f19601f820116820180604052508101906109c3919061124b565b6102cb565b60405180604001604052806000815260200182815250600260008473ffffffffffffffffffffffffffffffffffffffff1673ffffffffffffffffffffffffffffffffffffffff168152602001908152602001600020600082015181600001556020820151816001015590505060405180602001604052806000815250600360008473ffffffffffffffffffffffffffffffffffffffff1673ffffffffffffffffffffffffffffffffffffffff168152602001908152602001600020600082015181600001559050506001600460008473ffffffffffffffffffffffffffffffffffffffff1673ffffffffffffffffffffffffffffffffffffffff168152602001908152602001600020819055507f4944f1bb890742e6929853c2e03499a2438afb211e23e1cc762a64423e60d81e8282604051610b06929190611331565b60405180910390a15050565b60026020528060005260406000206000915090508060000154908060010154905082565b610be760008054906101000a900473ffffffffffffffffffffffffffffffffffffffff1673ffffffffffffffffffffffffffffffffffffffff1663fe9fbb80336040518263ffffffff1660e01b8152600401610b92919061121b565b60206040518083038186803b158015610baa57600080fd5b505afa158015610bbe573d6000803e3d6000fd5b505050506040513d601f19601f82011682018060405250810190610be2919061124b565b6102cb565b80600360008473ffffffffffffffffffffffffffffffffffffffff1673ffffffffffffffffffffffffffffffffffffffff168152602001908152602001600020600001819055505050565b610ce360008054906101000a900473ffffffffffffffffffffffffffffffffffffffff1673ffffffffffffffffffffffffffffffffffffffff1663fe9fbb80336040518263ffffffff1660e01b8152600401610c8e919061121b565b60206040518083038186803b158015610ca657600080fd5b505afa158015610cba573d6000803e3d6000fd5b505050506040513d601f19601f82011682018060405250810190610cde919061124b565b6102cb565b80600160008473ffffffffffffffffffffffffffffffffffffffff1673ffffffffffffffffffffffffffffffffffffffff168152602001908152602001600020600001819055507f0c3bcae7e61591af02bb2812a964a3d2b74e34edae27feca4b070cd7b8959b448282604051610d5b929190611331565b60405180910390a15050565b81610da957806040517f8604d400000000000000000000000000000000000000000000000000000000008152600401610da09190611369565b60405180910390fd5b5050565b610e458282604051602401610dc39291906113fb565b6040516020818303038152906040527f319af333000000000000000000000000000000000000000000000000000000007bffffffffffffffffffffffffffffffffffffffffffffffffffffffff19166020820180517bffffffffffffffffffffffffffffffffffffffffffffffffffffffff8381831617835250505050610e49565b5050565b60008151905060006a636f6e736f6c652e6c6f679050602083016000808483855afa5050505050565b600080fd5b600080fd5b60008115159050919050565b610e9181610e7c565b8114610e9c57600080fd5b50565b600081359050610eae81610e88565b92915050565b600060208284031215610eca57610ec9610e72565b5b6000610ed884828501610e9f565b91505092915050565b600073ffffffffffffffffffffffffffffffffffffffff82169050919050565b6000610f0c82610ee1565b9050919050565b610f1c81610f01565b8114610f2757600080fd5b50565b600081359050610f3981610f13565b92915050565b6000819050919050565b610f5281610f3f565b8114610f5d57600080fd5b50565b600081359050610f6f81610f49565b92915050565b60008060408385031215610f8c57610f8b610e72565b5b6000610f9a85828601610f2a565b9250506020610fab85828601610f60565b9150509250929050565b600080fd5b600080fd5b600080fd5b60008083601f840112610fda57610fd9610fb5565b5b8235905067ffffffffffffffff811115610ff757610ff6610fba565b5b60208301915083600182028301111561101357611012610fbf565b5b9250929050565b60008060006040848603121561103357611032610e72565b5b600061104186828701610e9f565b935050602084013567ffffffffffffffff81111561106257611061610e77565b5b61106e86828701610fc4565b92509250509250925092565b6000602082840312156110905761108f610e72565b5b600061109e84828501610f2a565b91505092915050565b6110b081610f3f565b82525050565b60006020820190506110cb60008301846110a7565b92915050565b6000806000606084860312156110ea576110e9610e72565b5b60006110f886828701610f2a565b935050602061110986828701610f2a565b925050604061111a86828701610f60565b9150509250925092565b61112d81610f01565b82525050565b600060808201905061114860008301876110a7565b61115560208301866110a7565b6111626040830185611124565b61116f60608301846110a7565b95945050505050565b600060408201905061118d60008301856110a7565b61119a60208301846110a7565b9392505050565b600061ffff82169050919050565b6111b8816111a1565b81146111c357600080fd5b50565b6000813590506111d5816111af565b92915050565b600080604083850312156111f2576111f1610e72565b5b600061120085828601610e9f565b9250506020611211858286016111c6565b9150509250929050565b60006020820190506112306000830184611124565b92915050565b60008151905061124581610e88565b92915050565b60006020828403121561126157611260610e72565b5b600061126f84828501611236565b91505092915050565b600082825260208201905092915050565b82818337600083830152505050565b6000601f19601f8301169050919050565b60006112b58385611278565b93506112c2838584611289565b6112cb83611298565b840190509392505050565b600060208201905081810360008301526112f18184866112a9565b90509392505050565b600060608201905061130f6000830186611124565b61131c6020830185611124565b61132960408301846110a7565b949350505050565b60006040820190506113466000830185611124565b61135360208301846110a7565b9392505050565b611363816111a1565b82525050565b600060208201905061137e600083018461135a565b92915050565b600081519050919050565b60005b838110156113ad578082015181840152602081019050611392565b838111156113bc576000848401525b50505050565b60006113cd82611384565b6113d78185611278565b93506113e781856020860161138f565b6113f081611298565b840191505092915050565b6000604082019050818103600083015261141581856113c2565b90506114246020830184611124565b939250505056fea2646970667358221220939a773d2436e6c2e1b08bfc72821b785f62bfb7d2b18d322a7bdec9d0585a5c64736f6c63430008090033696e205468616e6b735061794461746120636f6e7374727563746f722c206164647265737320666f722073656375726974792069733a20",
  "linkReferences": {},
  "deployedLinkReferences": {}
}