{
  "_format": "hh-sol-artifact-1",
  "contractName": "ThanksPayData",
  "sourceName": "contracts/data/ThanksPayData.sol",
  "abi": [
    {
      "inputs": [
        {
          "internalType": "address",
          "name": "securityAddress",
          "type": "address"
        }
      ],
      "stateMutability": "nonpayable",
      "type": "constructor"
    },
    {
      "anonymous": false,
      "inputs": [
        {
          "indexed": false,
          "internalType": "address",
          "name": "pId",
          "type": "address"
        },
        {
          "indexed": false,
          "internalType": "uint256",
          "name": "relativePayday",
          "type": "uint256"
        }
      ],
      "name": "companyPoolRegistered",
      "type": "event"
    },
    {
      "anonymous": false,
      "inputs": [
        {
          "indexed": false,
          "internalType": "address",
          "name": "pId",
          "type": "address"
        },
        {
          "indexed": false,
          "internalType": "uint256",
          "name": "newBalance",
          "type": "uint256"
        }
      ],
      "name": "partnerBalanceChanged",
      "type": "event"
    },
    {
      "anonymous": false,
      "inputs": [
        {
          "indexed": false,
          "internalType": "address",
          "name": "pId",
          "type": "address"
        },
        {
          "indexed": false,
          "internalType": "uint256",
          "name": "relativePayday",
          "type": "uint256"
        }
      ],
      "name": "partnerRegistered",
      "type": "event"
    },
    {
      "anonymous": false,
      "inputs": [
        {
          "indexed": false,
          "internalType": "uint256",
          "name": "wId",
          "type": "uint256"
        },
        {
          "indexed": false,
          "internalType": "uint256",
          "name": "newBalance",
          "type": "uint256"
        }
      ],
      "name": "workerBalanceChanged",
      "type": "event"
    },
    {
      "anonymous": false,
      "inputs": [
        {
          "indexed": false,
          "internalType": "address",
          "name": "wId",
          "type": "address"
        },
        {
          "indexed": false,
          "internalType": "address",
          "name": "pId",
          "type": "address"
        },
        {
          "indexed": false,
          "internalType": "uint256",
          "name": "wage",
          "type": "uint256"
        }
      ],
      "name": "workerRegistered",
      "type": "event"
    },
    {
      "inputs": [
        {
          "internalType": "address",
          "name": "",
          "type": "address"
        }
      ],
      "name": "companyPools",
      "outputs": [
        {
          "internalType": "uint256",
          "name": "balance",
          "type": "uint256"
        }
      ],
      "stateMutability": "view",
      "type": "function"
    },
    {
      "inputs": [
        {
          "internalType": "address",
          "name": "",
          "type": "address"
        }
      ],
      "name": "partners",
      "outputs": [
        {
          "internalType": "uint256",
          "name": "balance",
          "type": "uint256"
        },
        {
          "internalType": "uint256",
          "name": "relativePayday",
          "type": "uint256"
        },
        {
          "internalType": "uint256",
          "name": "latestPay",
          "type": "uint256"
        }
      ],
      "stateMutability": "view",
      "type": "function"
    },
    {
      "inputs": [
        {
          "internalType": "address",
          "name": "pId",
          "type": "address"
        },
        {
          "internalType": "uint256",
          "name": "relativePayday",
          "type": "uint256"
        },
        {
          "internalType": "uint256",
          "name": "latestPay",
          "type": "uint256"
        }
      ],
      "name": "registerPartner",
      "outputs": [],
      "stateMutability": "nonpayable",
      "type": "function"
    },
    {
      "inputs": [
        {
          "internalType": "address",
          "name": "wId",
          "type": "address"
        },
        {
          "internalType": "address",
          "name": "pId",
          "type": "address"
        },
        {
          "internalType": "uint256",
          "name": "wage",
          "type": "uint256"
        }
      ],
      "name": "registerWorker",
      "outputs": [],
      "stateMutability": "nonpayable",
      "type": "function"
    },
    {
      "inputs": [
        {
          "internalType": "address",
          "name": "wId",
          "type": "address"
        },
        {
          "internalType": "uint256",
          "name": "latestRequest",
          "type": "uint256"
        }
      ],
      "name": "setLatestRequest",
      "outputs": [],
      "stateMutability": "nonpayable",
      "type": "function"
    },
    {
      "inputs": [
        {
          "internalType": "address",
          "name": "pId",
          "type": "address"
        },
        {
          "internalType": "uint256",
          "name": "newBalance",
          "type": "uint256"
        }
      ],
      "name": "setPartnerBalance",
      "outputs": [],
      "stateMutability": "nonpayable",
      "type": "function"
    },
    {
      "inputs": [
        {
          "internalType": "address",
          "name": "pId",
          "type": "address"
        },
        {
          "internalType": "uint256",
          "name": "relativePayday",
          "type": "uint256"
        }
      ],
      "name": "setRelativePayday",
      "outputs": [],
      "stateMutability": "nonpayable",
      "type": "function"
    },
    {
      "inputs": [
        {
          "internalType": "address",
          "name": "wId",
          "type": "address"
        },
        {
          "internalType": "uint256",
          "name": "newBalance",
          "type": "uint256"
        }
      ],
      "name": "setWorkerBalance",
      "outputs": [],
      "stateMutability": "nonpayable",
      "type": "function"
    },
    {
      "inputs": [
        {
          "internalType": "address",
          "name": "",
          "type": "address"
        }
      ],
      "name": "types",
      "outputs": [
        {
          "internalType": "uint256",
          "name": "",
          "type": "uint256"
        }
      ],
      "stateMutability": "view",
      "type": "function"
    },
    {
      "inputs": [
        {
          "internalType": "address",
          "name": "",
          "type": "address"
        }
      ],
      "name": "workers",
      "outputs": [
        {
          "internalType": "uint256",
          "name": "balance",
          "type": "uint256"
        },
        {
          "internalType": "uint256",
          "name": "wage",
          "type": "uint256"
        },
        {
          "internalType": "address",
          "name": "pId",
          "type": "address"
        },
        {
          "internalType": "uint256",
          "name": "latestRequest",
          "type": "uint256"
        }
      ],
      "stateMutability": "view",
      "type": "function"
    }
  ],
  "bytecode": "0x60806040523480156200001157600080fd5b506040516200156b3803806200156b8339818101604052810190620000379190620001e7565b62000067604051806060016040528060378152602001620015346037913982620000ae60201b62000c621760201c565b806000806101000a81548173ffffffffffffffffffffffffffffffffffffffff021916908373ffffffffffffffffffffffffffffffffffffffff1602179055505062000302565b620001508282604051602401620000c7929190620002ce565b6040516020818303038152906040527f319af333000000000000000000000000000000000000000000000000000000007bffffffffffffffffffffffffffffffffffffffffffffffffffffffff19166020820180517bffffffffffffffffffffffffffffffffffffffffffffffffffffffff83818316178352505050506200015460201b60201c565b5050565b60008151905060006a636f6e736f6c652e6c6f679050602083016000808483855afa5050505050565b600080fd5b600073ffffffffffffffffffffffffffffffffffffffff82169050919050565b6000620001af8262000182565b9050919050565b620001c181620001a2565b8114620001cd57600080fd5b50565b600081519050620001e181620001b6565b92915050565b6000602082840312156200020057620001ff6200017d565b5b60006200021084828501620001d0565b91505092915050565b600081519050919050565b600082825260208201905092915050565b60005b838110156200025557808201518184015260208101905062000238565b8381111562000265576000848401525b50505050565b6000601f19601f8301169050919050565b6000620002898262000219565b62000295818562000224565b9350620002a781856020860162000235565b620002b2816200026b565b840191505092915050565b620002c881620001a2565b82525050565b60006040820190508181036000830152620002ea81856200027c565b9050620002fb6020830184620002bd565b9392505050565b61122280620003126000396000f3fe608060405234801561001057600080fd5b506004361061009e5760003560e01c806369b43b561161006657806369b43b561461016e57806395c336521461018a578063beee8cf9146101bc578063d5962e8f146101d8578063fbebd6c1146101f45761009e565b806309b9aef3146100a35780631a078ed8146100d35780633c2bbd19146100ef5780634048a2571461011f5780635b69860b14610152575b600080fd5b6100bd60048036038101906100b89190610e23565b610210565b6040516100ca9190610e69565b60405180910390f35b6100ed60048036038101906100e89190610eb0565b610228565b005b61010960048036038101906101049190610e23565b61047d565b6040516101169190610e69565b60405180910390f35b61013960048036038101906101349190610e23565b61049b565b6040516101499493929190610f12565b60405180910390f35b61016c60048036038101906101679190610f57565b6104eb565b005b61018860048036038101906101839190610f57565b610626565b005b6101a4600480360381019061019f9190610e23565b61079a565b6040516101b393929190610f97565b60405180910390f35b6101d660048036038101906101d19190610f57565b6107c4565b005b6101f260048036038101906101ed9190610f57565b610938565b005b61020e60048036038101906102099190610fce565b610a73565b005b60046020528060005260406000206000915090505481565b6102666040518060400160405280601881526020017f696e206973417574686f72697a6564206d6f6469666965720000000000000000815250610cfe565b60008054906101000a900473ffffffffffffffffffffffffffffffffffffffff1673ffffffffffffffffffffffffffffffffffffffff1663fe9fbb80336040518263ffffffff1660e01b81526004016102bf9190611021565b60206040518083038186803b1580156102d757600080fd5b505afa1580156102eb573d6000803e3d6000fd5b505050506040513d601f19601f8201168201806040525081019061030f9190611074565b61031857600080fd5b6040518060800160405280600081526020018281526020018373ffffffffffffffffffffffffffffffffffffffff1681526020016000815250600160008573ffffffffffffffffffffffffffffffffffffffff1673ffffffffffffffffffffffffffffffffffffffff168152602001908152602001600020600082015181600001556020820151816001015560408201518160020160006101000a81548173ffffffffffffffffffffffffffffffffffffffff021916908373ffffffffffffffffffffffffffffffffffffffff160217905550606082015181600301559050506002600460008573ffffffffffffffffffffffffffffffffffffffff1673ffffffffffffffffffffffffffffffffffffffff168152602001908152602001600020819055507f56f761bd6e53ed4ba3090c7eae15640bd1d25ee4db8acb2b0cd835c9142ba6d0838383604051610470939291906110a1565b60405180910390a1505050565b60036020528060005260406000206000915090508060000154905081565b60016020528060005260406000206000915090508060000154908060010154908060020160009054906101000a900473ffffffffffffffffffffffffffffffffffffffff16908060030154905084565b6105296040518060400160405280601881526020017f696e206973417574686f72697a6564206d6f6469666965720000000000000000815250610cfe565b60008054906101000a900473ffffffffffffffffffffffffffffffffffffffff1673ffffffffffffffffffffffffffffffffffffffff1663fe9fbb80336040518263ffffffff1660e01b81526004016105829190611021565b60206040518083038186803b15801561059a57600080fd5b505afa1580156105ae573d6000803e3d6000fd5b505050506040513d601f19601f820116820180604052508101906105d29190611074565b6105db57600080fd5b80600160008473ffffffffffffffffffffffffffffffffffffffff1673ffffffffffffffffffffffffffffffffffffffff168152602001908152602001600020600301819055505050565b6106646040518060400160405280601881526020017f696e206973417574686f72697a6564206d6f6469666965720000000000000000815250610cfe565b60008054906101000a900473ffffffffffffffffffffffffffffffffffffffff1673ffffffffffffffffffffffffffffffffffffffff1663fe9fbb80336040518263ffffffff1660e01b81526004016106bd9190611021565b60206040518083038186803b1580156106d557600080fd5b505afa1580156106e9573d6000803e3d6000fd5b505050506040513d601f19601f8201168201806040525081019061070d9190611074565b61071657600080fd5b80600260008473ffffffffffffffffffffffffffffffffffffffff1673ffffffffffffffffffffffffffffffffffffffff168152602001908152602001600020600001819055507f0c3bcae7e61591af02bb2812a964a3d2b74e34edae27feca4b070cd7b8959b44828260405161078e9291906110d8565b60405180910390a15050565b60026020528060005260406000206000915090508060000154908060010154908060020154905083565b6108026040518060400160405280601881526020017f696e206973417574686f72697a6564206d6f6469666965720000000000000000815250610cfe565b60008054906101000a900473ffffffffffffffffffffffffffffffffffffffff1673ffffffffffffffffffffffffffffffffffffffff1663fe9fbb80336040518263ffffffff1660e01b815260040161085b9190611021565b60206040518083038186803b15801561087357600080fd5b505afa158015610887573d6000803e3d6000fd5b505050506040513d601f19601f820116820180604052508101906108ab9190611074565b6108b457600080fd5b80600160008473ffffffffffffffffffffffffffffffffffffffff1673ffffffffffffffffffffffffffffffffffffffff168152602001908152602001600020600001819055507f0c3bcae7e61591af02bb2812a964a3d2b74e34edae27feca4b070cd7b8959b44828260405161092c9291906110d8565b60405180910390a15050565b6109766040518060400160405280601881526020017f696e206973417574686f72697a6564206d6f6469666965720000000000000000815250610cfe565b60008054906101000a900473ffffffffffffffffffffffffffffffffffffffff1673ffffffffffffffffffffffffffffffffffffffff1663fe9fbb80336040518263ffffffff1660e01b81526004016109cf9190611021565b60206040518083038186803b1580156109e757600080fd5b505afa1580156109fb573d6000803e3d6000fd5b505050506040513d601f19601f82011682018060405250810190610a1f9190611074565b610a2857600080fd5b80600260008473ffffffffffffffffffffffffffffffffffffffff1673ffffffffffffffffffffffffffffffffffffffff168152602001908152602001600020600101819055505050565b610ab16040518060400160405280601881526020017f696e206973417574686f72697a6564206d6f6469666965720000000000000000815250610cfe565b60008054906101000a900473ffffffffffffffffffffffffffffffffffffffff1673ffffffffffffffffffffffffffffffffffffffff1663fe9fbb80336040518263ffffffff1660e01b8152600401610b0a9190611021565b60206040518083038186803b158015610b2257600080fd5b505afa158015610b36573d6000803e3d6000fd5b505050506040513d601f19601f82011682018060405250810190610b5a9190611074565b610b6357600080fd5b60405180606001604052806000815260200183815260200182815250600260008573ffffffffffffffffffffffffffffffffffffffff1673ffffffffffffffffffffffffffffffffffffffff1681526020019081526020016000206000820151816000015560208201518160010155604082015181600201559050506001600460008573ffffffffffffffffffffffffffffffffffffffff1673ffffffffffffffffffffffffffffffffffffffff168152602001908152602001600020819055507f4944f1bb890742e6929853c2e03499a2438afb211e23e1cc762a64423e60d81e8383604051610c559291906110d8565b60405180910390a1505050565b610cfa8282604051602401610c7892919061119a565b6040516020818303038152906040527f319af333000000000000000000000000000000000000000000000000000000007bffffffffffffffffffffffffffffffffffffffffffffffffffffffff19166020820180517bffffffffffffffffffffffffffffffffffffffffffffffffffffffff8381831617835250505050610d97565b5050565b610d9481604051602401610d1291906111ca565b6040516020818303038152906040527f41304fac000000000000000000000000000000000000000000000000000000007bffffffffffffffffffffffffffffffffffffffffffffffffffffffff19166020820180517bffffffffffffffffffffffffffffffffffffffffffffffffffffffff8381831617835250505050610d97565b50565b60008151905060006a636f6e736f6c652e6c6f679050602083016000808483855afa5050505050565b600080fd5b600073ffffffffffffffffffffffffffffffffffffffff82169050919050565b6000610df082610dc5565b9050919050565b610e0081610de5565b8114610e0b57600080fd5b50565b600081359050610e1d81610df7565b92915050565b600060208284031215610e3957610e38610dc0565b5b6000610e4784828501610e0e565b91505092915050565b6000819050919050565b610e6381610e50565b82525050565b6000602082019050610e7e6000830184610e5a565b92915050565b610e8d81610e50565b8114610e9857600080fd5b50565b600081359050610eaa81610e84565b92915050565b600080600060608486031215610ec957610ec8610dc0565b5b6000610ed786828701610e0e565b9350506020610ee886828701610e0e565b9250506040610ef986828701610e9b565b9150509250925092565b610f0c81610de5565b82525050565b6000608082019050610f276000830187610e5a565b610f346020830186610e5a565b610f416040830185610f03565b610f4e6060830184610e5a565b95945050505050565b60008060408385031215610f6e57610f6d610dc0565b5b6000610f7c85828601610e0e565b9250506020610f8d85828601610e9b565b9150509250929050565b6000606082019050610fac6000830186610e5a565b610fb96020830185610e5a565b610fc66040830184610e5a565b949350505050565b600080600060608486031215610fe757610fe6610dc0565b5b6000610ff586828701610e0e565b935050602061100686828701610e9b565b925050604061101786828701610e9b565b9150509250925092565b60006020820190506110366000830184610f03565b92915050565b60008115159050919050565b6110518161103c565b811461105c57600080fd5b50565b60008151905061106e81611048565b92915050565b60006020828403121561108a57611089610dc0565b5b60006110988482850161105f565b91505092915050565b60006060820190506110b66000830186610f03565b6110c36020830185610f03565b6110d06040830184610e5a565b949350505050565b60006040820190506110ed6000830185610f03565b6110fa6020830184610e5a565b9392505050565b600081519050919050565b600082825260208201905092915050565b60005b8381101561113b578082015181840152602081019050611120565b8381111561114a576000848401525b50505050565b6000601f19601f8301169050919050565b600061116c82611101565b611176818561110c565b935061118681856020860161111d565b61118f81611150565b840191505092915050565b600060408201905081810360008301526111b48185611161565b90506111c36020830184610f03565b9392505050565b600060208201905081810360008301526111e48184611161565b90509291505056fea26469706673582212208e72a3763f5d3790ab287ebc1f6188a3cf96ea2d722818d81b7712e9003f599564736f6c63430008090033696e205468616e6b735061794461746120636f6e7374727563746f722c206164647265737320666f722073656375726974792069733a20",
  "linkReferences": {},
  "deployedLinkReferences": {}
}