{
  "_format": "hh-sol-artifact-1",
  "contractName": "ThanksPayCheck",
  "sourceName": "contracts/check/ThanksPayCheck.sol",
  "abi": [
    {
      "inputs": [
        {
          "internalType": "address",
          "name": "dataAddr",
          "type": "address"
        },
        {
          "internalType": "address",
          "name": "securityAddr",
          "type": "address"
        }
      ],
      "stateMutability": "nonpayable",
      "type": "constructor"
    },
    {
      "inputs": [],
      "name": "registerPartnerCheck",
      "outputs": [
        {
          "internalType": "bool",
          "name": "",
          "type": "bool"
        }
      ],
      "stateMutability": "view",
      "type": "function"
    },
    {
      "inputs": [],
      "name": "registerWorkerCheck",
      "outputs": [
        {
          "internalType": "bool",
          "name": "",
          "type": "bool"
        }
      ],
      "stateMutability": "view",
      "type": "function"
    },
    {
      "inputs": [],
      "name": "setCompanyBalanceCheck",
      "outputs": [
        {
          "internalType": "bool",
          "name": "",
          "type": "bool"
        }
      ],
      "stateMutability": "view",
      "type": "function"
    },
    {
      "inputs": [],
      "name": "setLatestRequestCheck",
      "outputs": [
        {
          "internalType": "bool",
          "name": "",
          "type": "bool"
        }
      ],
      "stateMutability": "view",
      "type": "function"
    },
    {
      "inputs": [],
      "name": "setLatestWagePayCheck",
      "outputs": [
        {
          "internalType": "bool",
          "name": "",
          "type": "bool"
        }
      ],
      "stateMutability": "view",
      "type": "function"
    },
    {
      "inputs": [],
      "name": "setPartnerBalanceCheck",
      "outputs": [
        {
          "internalType": "bool",
          "name": "",
          "type": "bool"
        }
      ],
      "stateMutability": "view",
      "type": "function"
    },
    {
      "inputs": [],
      "name": "setWorkerBalanceCheck",
      "outputs": [
        {
          "internalType": "bool",
          "name": "",
          "type": "bool"
        }
      ],
      "stateMutability": "view",
      "type": "function"
    },
    {
      "inputs": [
        {
          "internalType": "uint256",
          "name": "wId",
          "type": "uint256"
        },
        {
          "internalType": "uint256",
          "name": "amount",
          "type": "uint256"
        }
      ],
      "name": "workerGetSalaryEarlyCheck",
      "outputs": [
        {
          "internalType": "bool",
          "name": "",
          "type": "bool"
        }
      ],
      "stateMutability": "view",
      "type": "function"
    }
  ],
  "bytecode": "0x608060405234801561001057600080fd5b50604051610d85380380610d858339818101604052810190610032919061011d565b806000806101000a81548173ffffffffffffffffffffffffffffffffffffffff021916908373ffffffffffffffffffffffffffffffffffffffff16021790555081600160006101000a81548173ffffffffffffffffffffffffffffffffffffffff021916908373ffffffffffffffffffffffffffffffffffffffff160217905550505061015d565b600080fd5b600073ffffffffffffffffffffffffffffffffffffffff82169050919050565b60006100ea826100bf565b9050919050565b6100fa816100df565b811461010557600080fd5b50565b600081519050610117816100f1565b92915050565b60008060408385031215610134576101336100ba565b5b600061014285828601610108565b925050602061015385828601610108565b9150509250929050565b610c198061016c6000396000f3fe608060405234801561001057600080fd5b50600436106100885760003560e01c80635c7a12bc1161005b5780635c7a12bc14610117578063a1f6a37714610135578063b4f779c314610153578063c0ce5e861461017157610088565b8063278475a01461008d5780632dc22765146100ab57806358531865146100c9578063589161c3146100e7575b600080fd5b61009561018f565b6040516100a291906108ed565b60405180910390f35b6100b3610240565b6040516100c091906108ed565b60405180910390f35b6100d16102f1565b6040516100de91906108ed565b60405180910390f35b61010160048036038101906100fc9190610943565b6103a2565b60405161010e91906108ed565b60405180910390f35b61011f6105f8565b60405161012c91906108ed565b60405180910390f35b61013d6106a9565b60405161014a91906108ed565b60405180910390f35b61015b61075a565b60405161016891906108ed565b60405180910390f35b61017961080b565b60405161018691906108ed565b60405180910390f35b60008060009054906101000a900473ffffffffffffffffffffffffffffffffffffffff1673ffffffffffffffffffffffffffffffffffffffff1663fe9fbb80336040518263ffffffff1660e01b81526004016101eb91906109c4565b60206040518083038186803b15801561020357600080fd5b505afa158015610217573d6000803e3d6000fd5b505050506040513d601f19601f8201168201806040525081019061023b9190610a0b565b905090565b60008060009054906101000a900473ffffffffffffffffffffffffffffffffffffffff1673ffffffffffffffffffffffffffffffffffffffff1663fe9fbb80336040518263ffffffff1660e01b815260040161029c91906109c4565b60206040518083038186803b1580156102b457600080fd5b505afa1580156102c8573d6000803e3d6000fd5b505050506040513d601f19601f820116820180604052508101906102ec9190610a0b565b905090565b60008060009054906101000a900473ffffffffffffffffffffffffffffffffffffffff1673ffffffffffffffffffffffffffffffffffffffff1663fe9fbb80336040518263ffffffff1660e01b815260040161034d91906109c4565b60206040518083038186803b15801561036557600080fd5b505afa158015610379573d6000803e3d6000fd5b505050506040513d601f19601f8201168201806040525081019061039d9190610a0b565b905090565b600080600160009054906101000a900473ffffffffffffffffffffffffffffffffffffffff1673ffffffffffffffffffffffffffffffffffffffff16638fe9e3d4856040518263ffffffff1660e01b81526004016104009190610a47565b60206040518083038186803b15801561041857600080fd5b505afa15801561042c573d6000803e3d6000fd5b505050506040513d601f19601f820116820180604052508101906104509190610a77565b90506000600160009054906101000a900473ffffffffffffffffffffffffffffffffffffffff1673ffffffffffffffffffffffffffffffffffffffff1663a39dbdb9866040518263ffffffff1660e01b81526004016104af9190610a47565b60806040518083038186803b1580156104c757600080fd5b505afa1580156104db573d6000803e3d6000fd5b505050506040513d601f19601f820116820180604052508101906104ff9190610aa4565b5092505050600080600160009054906101000a900473ffffffffffffffffffffffffffffffffffffffff1673ffffffffffffffffffffffffffffffffffffffff16637fc96619846040518263ffffffff1660e01b81526004016105629190610a47565b60606040518083038186803b15801561057a57600080fd5b505afa15801561058e573d6000803e3d6000fd5b505050506040513d601f19601f820116820180604052508101906105b29190610b0b565b509150915085841080156105d75750856105d582846108bc90919063ffffffff16565b105b156105e95760009450505050506105f2565b60019450505050505b92915050565b60008060009054906101000a900473ffffffffffffffffffffffffffffffffffffffff1673ffffffffffffffffffffffffffffffffffffffff1663fe9fbb80336040518263ffffffff1660e01b815260040161065491906109c4565b60206040518083038186803b15801561066c57600080fd5b505afa158015610680573d6000803e3d6000fd5b505050506040513d601f19601f820116820180604052508101906106a49190610a0b565b905090565b60008060009054906101000a900473ffffffffffffffffffffffffffffffffffffffff1673ffffffffffffffffffffffffffffffffffffffff1663fe9fbb80336040518263ffffffff1660e01b815260040161070591906109c4565b60206040518083038186803b15801561071d57600080fd5b505afa158015610731573d6000803e3d6000fd5b505050506040513d601f19601f820116820180604052508101906107559190610a0b565b905090565b60008060009054906101000a900473ffffffffffffffffffffffffffffffffffffffff1673ffffffffffffffffffffffffffffffffffffffff1663fe9fbb80336040518263ffffffff1660e01b81526004016107b691906109c4565b60206040518083038186803b1580156107ce57600080fd5b505afa1580156107e2573d6000803e3d6000fd5b505050506040513d601f19601f820116820180604052508101906108069190610a0b565b905090565b60008060009054906101000a900473ffffffffffffffffffffffffffffffffffffffff1673ffffffffffffffffffffffffffffffffffffffff1663fe9fbb80336040518263ffffffff1660e01b815260040161086791906109c4565b60206040518083038186803b15801561087f57600080fd5b505afa158015610893573d6000803e3d6000fd5b505050506040513d601f19601f820116820180604052508101906108b79190610a0b565b905090565b600081836108ca9190610b8d565b905092915050565b60008115159050919050565b6108e7816108d2565b82525050565b600060208201905061090260008301846108de565b92915050565b600080fd5b6000819050919050565b6109208161090d565b811461092b57600080fd5b50565b60008135905061093d81610917565b92915050565b6000806040838503121561095a57610959610908565b5b60006109688582860161092e565b92505060206109798582860161092e565b9150509250929050565b600073ffffffffffffffffffffffffffffffffffffffff82169050919050565b60006109ae82610983565b9050919050565b6109be816109a3565b82525050565b60006020820190506109d960008301846109b5565b92915050565b6109e8816108d2565b81146109f357600080fd5b50565b600081519050610a05816109df565b92915050565b600060208284031215610a2157610a20610908565b5b6000610a2f848285016109f6565b91505092915050565b610a418161090d565b82525050565b6000602082019050610a5c6000830184610a38565b92915050565b600081519050610a7181610917565b92915050565b600060208284031215610a8d57610a8c610908565b5b6000610a9b84828501610a62565b91505092915050565b60008060008060808587031215610abe57610abd610908565b5b6000610acc87828801610a62565b9450506020610add87828801610a62565b9350506040610aee87828801610a62565b9250506060610aff87828801610a62565b91505092959194509250565b600080600060608486031215610b2457610b23610908565b5b6000610b3286828701610a62565b9350506020610b4386828701610a62565b9250506040610b5486828701610a62565b9150509250925092565b7f4e487b7100000000000000000000000000000000000000000000000000000000600052601160045260246000fd5b6000610b988261090d565b9150610ba38361090d565b9250827fffffffffffffffffffffffffffffffffffffffffffffffffffffffffffffffff03821115610bd857610bd7610b5e565b5b82820190509291505056fea26469706673582212209f760b000e88c5b7adf9c0e936c2e1843d7c8b9d09229595ad1310b7f4f6a89d64736f6c63430008090033",
  "linkReferences": {},
  "deployedLinkReferences": {}
}