{
  "_format": "hh-sol-artifact-1",
  "contractName": "thanksSecurity",
  "sourceName": "contracts/security/thanksSecurity.sol",
  "abi": [
    {
      "inputs": [
        {
          "internalType": "address[]",
          "name": "authorized",
          "type": "address[]"
        }
      ],
      "stateMutability": "nonpayable",
      "type": "constructor"
    },
    {
      "anonymous": false,
      "inputs": [
        {
          "indexed": true,
          "internalType": "bytes32",
          "name": "role",
          "type": "bytes32"
        },
        {
          "indexed": true,
          "internalType": "bytes32",
          "name": "previousAdminRole",
          "type": "bytes32"
        },
        {
          "indexed": true,
          "internalType": "bytes32",
          "name": "newAdminRole",
          "type": "bytes32"
        }
      ],
      "name": "RoleAdminChanged",
      "type": "event"
    },
    {
      "anonymous": false,
      "inputs": [
        {
          "indexed": true,
          "internalType": "bytes32",
          "name": "role",
          "type": "bytes32"
        },
        {
          "indexed": true,
          "internalType": "address",
          "name": "account",
          "type": "address"
        },
        {
          "indexed": true,
          "internalType": "address",
          "name": "sender",
          "type": "address"
        }
      ],
      "name": "RoleGranted",
      "type": "event"
    },
    {
      "anonymous": false,
      "inputs": [
        {
          "indexed": true,
          "internalType": "bytes32",
          "name": "role",
          "type": "bytes32"
        },
        {
          "indexed": true,
          "internalType": "address",
          "name": "account",
          "type": "address"
        },
        {
          "indexed": true,
          "internalType": "address",
          "name": "sender",
          "type": "address"
        }
      ],
      "name": "RoleRevoked",
      "type": "event"
    },
    {
      "inputs": [],
      "name": "AUTHORIZED",
      "outputs": [
        {
          "internalType": "bytes32",
          "name": "",
          "type": "bytes32"
        }
      ],
      "stateMutability": "view",
      "type": "function"
    },
    {
      "inputs": [],
      "name": "DEFAULT_ADMIN_ROLE",
      "outputs": [
        {
          "internalType": "bytes32",
          "name": "",
          "type": "bytes32"
        }
      ],
      "stateMutability": "view",
      "type": "function"
    },
    {
      "inputs": [
        {
          "internalType": "address[]",
          "name": "authorized",
          "type": "address[]"
        }
      ],
      "name": "authorize",
      "outputs": [],
      "stateMutability": "nonpayable",
      "type": "function"
    },
    {
      "inputs": [
        {
          "internalType": "bytes32",
          "name": "role",
          "type": "bytes32"
        }
      ],
      "name": "getRoleAdmin",
      "outputs": [
        {
          "internalType": "bytes32",
          "name": "",
          "type": "bytes32"
        }
      ],
      "stateMutability": "view",
      "type": "function"
    },
    {
      "inputs": [
        {
          "internalType": "bytes32",
          "name": "role",
          "type": "bytes32"
        },
        {
          "internalType": "address",
          "name": "account",
          "type": "address"
        }
      ],
      "name": "grantRole",
      "outputs": [],
      "stateMutability": "nonpayable",
      "type": "function"
    },
    {
      "inputs": [
        {
          "internalType": "bytes32",
          "name": "role",
          "type": "bytes32"
        },
        {
          "internalType": "address",
          "name": "account",
          "type": "address"
        }
      ],
      "name": "hasRole",
      "outputs": [
        {
          "internalType": "bool",
          "name": "",
          "type": "bool"
        }
      ],
      "stateMutability": "view",
      "type": "function"
    },
    {
      "inputs": [
        {
          "internalType": "address",
          "name": "account",
          "type": "address"
        }
      ],
      "name": "isAuthorized",
      "outputs": [
        {
          "internalType": "bool",
          "name": "",
          "type": "bool"
        }
      ],
      "stateMutability": "view",
      "type": "function"
    },
    {
      "inputs": [
        {
          "internalType": "bytes32",
          "name": "role",
          "type": "bytes32"
        },
        {
          "internalType": "address",
          "name": "account",
          "type": "address"
        }
      ],
      "name": "renounceRole",
      "outputs": [],
      "stateMutability": "nonpayable",
      "type": "function"
    },
    {
      "inputs": [
        {
          "internalType": "bytes32",
          "name": "role",
          "type": "bytes32"
        },
        {
          "internalType": "address",
          "name": "account",
          "type": "address"
        }
      ],
      "name": "revokeRole",
      "outputs": [],
      "stateMutability": "nonpayable",
      "type": "function"
    },
    {
      "inputs": [
        {
          "internalType": "bytes4",
          "name": "interfaceId",
          "type": "bytes4"
        }
      ],
      "name": "supportsInterface",
      "outputs": [
        {
          "internalType": "bool",
          "name": "",
          "type": "bool"
        }
      ],
      "stateMutability": "view",
      "type": "function"
    }
  ],
  "bytecode": "0x60806040523480156200001157600080fd5b5060405162001e7538038062001e758339818101604052810190620000379190620007e4565b6200004c6000801b33620000f860201b60201c565b6200007e7f50e75b23f8ec51bbcb044fe377457e835f3b5ccc7ebf69e80906452015dff60733620001e960201b60201c565b60005b8151811015620000f057620000da7f50e75b23f8ec51bbcb044fe377457e835f3b5ccc7ebf69e80906452015dff607838381518110620000c657620000c562000835565b5b6020026020010151620001e960201b60201c565b8080620000e7906200089d565b91505062000081565b505062000c25565b6200010a82826200022260201b60201c565b620001e557600160008084815260200190815260200160002060000160008373ffffffffffffffffffffffffffffffffffffffff1673ffffffffffffffffffffffffffffffffffffffff16815260200190815260200160002060006101000a81548160ff0219169083151502179055506200018a6200028c60201b60201c565b73ffffffffffffffffffffffffffffffffffffffff168173ffffffffffffffffffffffffffffffffffffffff16837f2f8788117e7eff1d82e926ec794901d17c78024a50270940304540a733656f0d60405160405180910390a45b5050565b620001fa826200029460201b60201c565b6200020b81620002b360201b60201c565b6200021d8383620000f860201b60201c565b505050565b600080600084815260200190815260200160002060000160008373ffffffffffffffffffffffffffffffffffffffff1673ffffffffffffffffffffffffffffffffffffffff16815260200190815260200160002060009054906101000a900460ff16905092915050565b600033905090565b6000806000838152602001908152602001600020600101549050919050565b620002d481620002c86200028c60201b60201c565b620002d760201b60201c565b50565b620002e982826200022260201b60201c565b62000397576200031c8173ffffffffffffffffffffffffffffffffffffffff1660146200039b60201b620004e01760201c565b620003378360001c60206200039b60201b620004e01760201c565b6040516020016200034a92919062000a0e565b6040516020818303038152906040526040517f08c379a00000000000000000000000000000000000000000000000000000000081526004016200038e919062000aa2565b60405180910390fd5b5050565b606060006002836002620003b0919062000ac6565b620003bc919062000b27565b67ffffffffffffffff811115620003d857620003d762000620565b5b6040519080825280601f01601f1916602001820160405280156200040b5781602001600182028036833780820191505090505b5090507f30000000000000000000000000000000000000000000000000000000000000008160008151811062000446576200044562000835565b5b60200101907effffffffffffffffffffffffffffffffffffffffffffffffffffffffffffff1916908160001a9053507f780000000000000000000000000000000000000000000000000000000000000081600181518110620004ad57620004ac62000835565b5b60200101907effffffffffffffffffffffffffffffffffffffffffffffffffffffffffffff1916908160001a90535060006001846002620004ef919062000ac6565b620004fb919062000b27565b90505b6001811115620005a5577f3031323334353637383961626364656600000000000000000000000000000000600f86166010811062000541576200054062000835565b5b1a60f81b8282815181106200055b576200055a62000835565b5b60200101907effffffffffffffffffffffffffffffffffffffffffffffffffffffffffffff1916908160001a905350600485901c9450806200059d9062000b84565b9050620004fe565b5060008414620005ec576040517f08c379a0000000000000000000000000000000000000000000000000000000008152600401620005e39062000c03565b60405180910390fd5b8091505092915050565b6000604051905090565b600080fd5b600080fd5b600080fd5b6000601f19601f8301169050919050565b7f4e487b7100000000000000000000000000000000000000000000000000000000600052604160045260246000fd5b6200065a826200060f565b810181811067ffffffffffffffff821117156200067c576200067b62000620565b5b80604052505050565b600062000691620005f6565b90506200069f82826200064f565b919050565b600067ffffffffffffffff821115620006c257620006c162000620565b5b602082029050602081019050919050565b600080fd5b600073ffffffffffffffffffffffffffffffffffffffff82169050919050565b60006200070582620006d8565b9050919050565b6200071781620006f8565b81146200072357600080fd5b50565b60008151905062000737816200070c565b92915050565b6000620007546200074e84620006a4565b62000685565b905080838252602082019050602084028301858111156200077a5762000779620006d3565b5b835b81811015620007a7578062000792888262000726565b8452602084019350506020810190506200077c565b5050509392505050565b600082601f830112620007c957620007c86200060a565b5b8151620007db8482602086016200073d565b91505092915050565b600060208284031215620007fd57620007fc62000600565b5b600082015167ffffffffffffffff8111156200081e576200081d62000605565b5b6200082c84828501620007b1565b91505092915050565b7f4e487b7100000000000000000000000000000000000000000000000000000000600052603260045260246000fd5b7f4e487b7100000000000000000000000000000000000000000000000000000000600052601160045260246000fd5b6000819050919050565b6000620008aa8262000893565b91507fffffffffffffffffffffffffffffffffffffffffffffffffffffffffffffffff821415620008e057620008df62000864565b5b600182019050919050565b600081905092915050565b7f416363657373436f6e74726f6c3a206163636f756e7420000000000000000000600082015250565b60006200092e601783620008eb565b91506200093b82620008f6565b601782019050919050565b600081519050919050565b60005b838110156200097157808201518184015260208101905062000954565b8381111562000981576000848401525b50505050565b6000620009948262000946565b620009a08185620008eb565b9350620009b281856020860162000951565b80840191505092915050565b7f206973206d697373696e6720726f6c6520000000000000000000000000000000600082015250565b6000620009f6601183620008eb565b915062000a0382620009be565b601182019050919050565b600062000a1b826200091f565b915062000a29828562000987565b915062000a3682620009e7565b915062000a44828462000987565b91508190509392505050565b600082825260208201905092915050565b600062000a6e8262000946565b62000a7a818562000a50565b935062000a8c81856020860162000951565b62000a97816200060f565b840191505092915050565b6000602082019050818103600083015262000abe818462000a61565b905092915050565b600062000ad38262000893565b915062000ae08362000893565b9250817fffffffffffffffffffffffffffffffffffffffffffffffffffffffffffffffff048311821515161562000b1c5762000b1b62000864565b5b828202905092915050565b600062000b348262000893565b915062000b418362000893565b9250827fffffffffffffffffffffffffffffffffffffffffffffffffffffffffffffffff0382111562000b795762000b7862000864565b5b828201905092915050565b600062000b918262000893565b9150600082141562000ba85762000ba762000864565b5b600182039050919050565b7f537472696e67733a20686578206c656e67746820696e73756666696369656e74600082015250565b600062000beb60208362000a50565b915062000bf88262000bb3565b602082019050919050565b6000602082019050818103600083015262000c1e8162000bdc565b9050919050565b6112408062000c356000396000f3fe608060405234801561001057600080fd5b506004361061009e5760003560e01c806384e456891161006657806384e456891461015957806391d1485414610175578063a217fddf146101a5578063d547741f146101c3578063fe9fbb80146101df5761009e565b806301ffc9a7146100a35780632360eb39146100d3578063248a9ca3146100f15780632f2ff15d1461012157806336568abe1461013d575b600080fd5b6100bd60048036038101906100b89190610a6c565b61020f565b6040516100ca9190610ab4565b60405180910390f35b6100db610289565b6040516100e89190610ae8565b60405180910390f35b61010b60048036038101906101069190610b2f565b6102ad565b6040516101189190610ae8565b60405180910390f35b61013b60048036038101906101369190610bba565b6102cc565b005b61015760048036038101906101529190610bba565b6102ed565b005b610173600480360381019061016e9190610d53565b610370565b005b61018f600480360381019061018a9190610bba565b61040a565b60405161019c9190610ab4565b60405180910390f35b6101ad610474565b6040516101ba9190610ae8565b60405180910390f35b6101dd60048036038101906101d89190610bba565b61047b565b005b6101f960048036038101906101f49190610d9c565b61049c565b6040516102069190610ab4565b60405180910390f35b60007f7965db0b000000000000000000000000000000000000000000000000000000007bffffffffffffffffffffffffffffffffffffffffffffffffffffffff1916827bffffffffffffffffffffffffffffffffffffffffffffffffffffffff1916148061028257506102818261071c565b5b9050919050565b7f50e75b23f8ec51bbcb044fe377457e835f3b5ccc7ebf69e80906452015dff60781565b6000806000838152602001908152602001600020600101549050919050565b6102d5826102ad565b6102de81610786565b6102e8838361079a565b505050565b6102f561087a565b73ffffffffffffffffffffffffffffffffffffffff168173ffffffffffffffffffffffffffffffffffffffff1614610362576040517f08c379a000000000000000000000000000000000000000000000000000000000815260040161035990610e4c565b60405180910390fd5b61036c8282610882565b5050565b61039a7f50e75b23f8ec51bbcb044fe377457e835f3b5ccc7ebf69e80906452015dff6073361040a565b6103a357600080fd5b60005b8151811015610406576103f37f50e75b23f8ec51bbcb044fe377457e835f3b5ccc7ebf69e80906452015dff6078383815181106103e6576103e5610e6c565b5b60200260200101516102cc565b80806103fe90610ed4565b9150506103a6565b5050565b600080600084815260200190815260200160002060000160008373ffffffffffffffffffffffffffffffffffffffff1673ffffffffffffffffffffffffffffffffffffffff16815260200190815260200160002060009054906101000a900460ff16905092915050565b6000801b81565b610484826102ad565b61048d81610786565b6104978383610882565b505050565b60006104c87f50e75b23f8ec51bbcb044fe377457e835f3b5ccc7ebf69e80906452015dff6078361040a565b156104d657600190506104db565b600090505b919050565b6060600060028360026104f39190610f1d565b6104fd9190610f77565b67ffffffffffffffff81111561051657610515610c10565b5b6040519080825280601f01601f1916602001820160405280156105485781602001600182028036833780820191505090505b5090507f3000000000000000000000000000000000000000000000000000000000000000816000815181106105805761057f610e6c565b5b60200101907effffffffffffffffffffffffffffffffffffffffffffffffffffffffffffff1916908160001a9053507f7800000000000000000000000000000000000000000000000000000000000000816001815181106105e4576105e3610e6c565b5b60200101907effffffffffffffffffffffffffffffffffffffffffffffffffffffffffffff1916908160001a905350600060018460026106249190610f1d565b61062e9190610f77565b90505b60018111156106ce577f3031323334353637383961626364656600000000000000000000000000000000600f8616601081106106705761066f610e6c565b5b1a60f81b82828151811061068757610686610e6c565b5b60200101907effffffffffffffffffffffffffffffffffffffffffffffffffffffffffffff1916908160001a905350600485901c9450806106c790610fcd565b9050610631565b5060008414610712576040517f08c379a000000000000000000000000000000000000000000000000000000000815260040161070990611043565b60405180910390fd5b8091505092915050565b60007f01ffc9a7000000000000000000000000000000000000000000000000000000007bffffffffffffffffffffffffffffffffffffffffffffffffffffffff1916827bffffffffffffffffffffffffffffffffffffffffffffffffffffffff1916149050919050565b6107978161079261087a565b610963565b50565b6107a4828261040a565b61087657600160008084815260200190815260200160002060000160008373ffffffffffffffffffffffffffffffffffffffff1673ffffffffffffffffffffffffffffffffffffffff16815260200190815260200160002060006101000a81548160ff02191690831515021790555061081b61087a565b73ffffffffffffffffffffffffffffffffffffffff168173ffffffffffffffffffffffffffffffffffffffff16837f2f8788117e7eff1d82e926ec794901d17c78024a50270940304540a733656f0d60405160405180910390a45b5050565b600033905090565b61088c828261040a565b1561095f57600080600084815260200190815260200160002060000160008373ffffffffffffffffffffffffffffffffffffffff1673ffffffffffffffffffffffffffffffffffffffff16815260200190815260200160002060006101000a81548160ff02191690831515021790555061090461087a565b73ffffffffffffffffffffffffffffffffffffffff168173ffffffffffffffffffffffffffffffffffffffff16837ff6391f5c32d9c69d2a47ea670b442974b53935d1edc7fd64eb21e047a839171b60405160405180910390a45b5050565b61096d828261040a565b6109fc576109928173ffffffffffffffffffffffffffffffffffffffff1660146104e0565b6109a08360001c60206104e0565b6040516020016109b1929190611175565b6040516020818303038152906040526040517f08c379a00000000000000000000000000000000000000000000000000000000081526004016109f391906111e8565b60405180910390fd5b5050565b6000604051905090565b600080fd5b600080fd5b60007fffffffff0000000000000000000000000000000000000000000000000000000082169050919050565b610a4981610a14565b8114610a5457600080fd5b50565b600081359050610a6681610a40565b92915050565b600060208284031215610a8257610a81610a0a565b5b6000610a9084828501610a57565b91505092915050565b60008115159050919050565b610aae81610a99565b82525050565b6000602082019050610ac96000830184610aa5565b92915050565b6000819050919050565b610ae281610acf565b82525050565b6000602082019050610afd6000830184610ad9565b92915050565b610b0c81610acf565b8114610b1757600080fd5b50565b600081359050610b2981610b03565b92915050565b600060208284031215610b4557610b44610a0a565b5b6000610b5384828501610b1a565b91505092915050565b600073ffffffffffffffffffffffffffffffffffffffff82169050919050565b6000610b8782610b5c565b9050919050565b610b9781610b7c565b8114610ba257600080fd5b50565b600081359050610bb481610b8e565b92915050565b60008060408385031215610bd157610bd0610a0a565b5b6000610bdf85828601610b1a565b9250506020610bf085828601610ba5565b9150509250929050565b600080fd5b6000601f19601f8301169050919050565b7f4e487b7100000000000000000000000000000000000000000000000000000000600052604160045260246000fd5b610c4882610bff565b810181811067ffffffffffffffff82111715610c6757610c66610c10565b5b80604052505050565b6000610c7a610a00565b9050610c868282610c3f565b919050565b600067ffffffffffffffff821115610ca657610ca5610c10565b5b602082029050602081019050919050565b600080fd5b6000610ccf610cca84610c8b565b610c70565b90508083825260208201905060208402830185811115610cf257610cf1610cb7565b5b835b81811015610d1b5780610d078882610ba5565b845260208401935050602081019050610cf4565b5050509392505050565b600082601f830112610d3a57610d39610bfa565b5b8135610d4a848260208601610cbc565b91505092915050565b600060208284031215610d6957610d68610a0a565b5b600082013567ffffffffffffffff811115610d8757610d86610a0f565b5b610d9384828501610d25565b91505092915050565b600060208284031215610db257610db1610a0a565b5b6000610dc084828501610ba5565b91505092915050565b600082825260208201905092915050565b7f416363657373436f6e74726f6c3a2063616e206f6e6c792072656e6f756e636560008201527f20726f6c657320666f722073656c660000000000000000000000000000000000602082015250565b6000610e36602f83610dc9565b9150610e4182610dda565b604082019050919050565b60006020820190508181036000830152610e6581610e29565b9050919050565b7f4e487b7100000000000000000000000000000000000000000000000000000000600052603260045260246000fd5b7f4e487b7100000000000000000000000000000000000000000000000000000000600052601160045260246000fd5b6000819050919050565b6000610edf82610eca565b91507fffffffffffffffffffffffffffffffffffffffffffffffffffffffffffffffff821415610f1257610f11610e9b565b5b600182019050919050565b6000610f2882610eca565b9150610f3383610eca565b9250817fffffffffffffffffffffffffffffffffffffffffffffffffffffffffffffffff0483118215151615610f6c57610f6b610e9b565b5b828202905092915050565b6000610f8282610eca565b9150610f8d83610eca565b9250827fffffffffffffffffffffffffffffffffffffffffffffffffffffffffffffffff03821115610fc257610fc1610e9b565b5b828201905092915050565b6000610fd882610eca565b91506000821415610fec57610feb610e9b565b5b600182039050919050565b7f537472696e67733a20686578206c656e67746820696e73756666696369656e74600082015250565b600061102d602083610dc9565b915061103882610ff7565b602082019050919050565b6000602082019050818103600083015261105c81611020565b9050919050565b600081905092915050565b7f416363657373436f6e74726f6c3a206163636f756e7420000000000000000000600082015250565b60006110a4601783611063565b91506110af8261106e565b601782019050919050565b600081519050919050565b60005b838110156110e35780820151818401526020810190506110c8565b838111156110f2576000848401525b50505050565b6000611103826110ba565b61110d8185611063565b935061111d8185602086016110c5565b80840191505092915050565b7f206973206d697373696e6720726f6c6520000000000000000000000000000000600082015250565b600061115f601183611063565b915061116a82611129565b601182019050919050565b600061118082611097565b915061118c82856110f8565b915061119782611152565b91506111a382846110f8565b91508190509392505050565b60006111ba826110ba565b6111c48185610dc9565b93506111d48185602086016110c5565b6111dd81610bff565b840191505092915050565b6000602082019050818103600083015261120281846111af565b90509291505056fea26469706673582212209a2a79e5c365428c45aa0e3d9a3ecb5697f85325397a184e5a2aa659f89ab7f864736f6c63430008090033",
  "linkReferences": {},
  "deployedLinkReferences": {}
}