{
  "_format": "hh-sol-artifact-1",
  "contractName": "ThanksPayRelay",
  "sourceName": "contracts/data/ThanksPayRelay.sol",
  "abi": [
    {
      "inputs": [
        {
          "internalType": "address",
          "name": "securityAddr",
          "type": "address"
        }
      ],
      "stateMutability": "nonpayable",
      "type": "constructor"
    },
    {
      "anonymous": false,
      "inputs": [
        {
          "indexed": false,
          "internalType": "uint256",
          "name": "entityID",
          "type": "uint256"
        },
        {
          "indexed": false,
          "internalType": "uint256[]",
          "name": "propertyIDs",
          "type": "uint256[]"
        },
        {
          "indexed": false,
          "internalType": "string[]",
          "name": "propertyNames",
          "type": "string[]"
        }
      ],
      "name": "propertyAdded",
      "type": "event"
    },
    {
      "anonymous": false,
      "inputs": [
        {
          "indexed": false,
          "internalType": "uint256",
          "name": "entityID",
          "type": "uint256"
        },
        {
          "indexed": false,
          "internalType": "uint256[]",
          "name": "propertyIDs",
          "type": "uint256[]"
        },
        {
          "indexed": false,
          "internalType": "string[]",
          "name": "propertyNames",
          "type": "string[]"
        }
      ],
      "name": "propertyEdited",
      "type": "event"
    },
    {
      "anonymous": false,
      "inputs": [
        {
          "indexed": false,
          "internalType": "uint256",
          "name": "entityID",
          "type": "uint256"
        },
        {
          "indexed": false,
          "internalType": "uint256",
          "name": "blockchainID",
          "type": "uint256"
        },
        {
          "indexed": false,
          "internalType": "uint256[]",
          "name": "propertyID",
          "type": "uint256[]"
        },
        {
          "indexed": false,
          "internalType": "string[]",
          "name": "propertyValue",
          "type": "string[]"
        }
      ],
      "name": "propertySet",
      "type": "event"
    },
    {
      "inputs": [
        {
          "internalType": "uint256",
          "name": "entityID",
          "type": "uint256"
        },
        {
          "internalType": "uint256[]",
          "name": "propertyIDs",
          "type": "uint256[]"
        },
        {
          "internalType": "string[]",
          "name": "_propertyNames",
          "type": "string[]"
        }
      ],
      "name": "addProperty",
      "outputs": [],
      "stateMutability": "nonpayable",
      "type": "function"
    },
    {
      "inputs": [
        {
          "internalType": "uint256",
          "name": "entityID",
          "type": "uint256"
        },
        {
          "internalType": "uint256[]",
          "name": "propertyIDs",
          "type": "uint256[]"
        },
        {
          "internalType": "string[]",
          "name": "_propertyNames",
          "type": "string[]"
        }
      ],
      "name": "editProperty",
      "outputs": [],
      "stateMutability": "nonpayable",
      "type": "function"
    },
    {
      "inputs": [
        {
          "internalType": "uint256",
          "name": "entityID",
          "type": "uint256"
        },
        {
          "internalType": "uint256",
          "name": "propertyID",
          "type": "uint256"
        }
      ],
      "name": "getPropertyName",
      "outputs": [
        {
          "internalType": "string",
          "name": "",
          "type": "string"
        }
      ],
      "stateMutability": "view",
      "type": "function"
    },
    {
      "inputs": [
        {
          "internalType": "uint256",
          "name": "entityID",
          "type": "uint256"
        },
        {
          "internalType": "uint256",
          "name": "blockchainID",
          "type": "uint256"
        },
        {
          "internalType": "uint256[]",
          "name": "propertyIDs",
          "type": "uint256[]"
        },
        {
          "internalType": "string[]",
          "name": "propertyValues",
          "type": "string[]"
        }
      ],
      "name": "setProperty",
      "outputs": [],
      "stateMutability": "nonpayable",
      "type": "function"
    }
  ],
  "bytecode": "0x60806040523480156200001157600080fd5b506040516200124c3803806200124c8339818101604052810190620000379190620000ea565b80806000806101000a81548173ffffffffffffffffffffffffffffffffffffffff021916908373ffffffffffffffffffffffffffffffffffffffff16021790555050506200011c565b600080fd5b600073ffffffffffffffffffffffffffffffffffffffff82169050919050565b6000620000b28262000085565b9050919050565b620000c481620000a5565b8114620000d057600080fd5b50565b600081519050620000e481620000b9565b92915050565b60006020828403121562000103576200010262000080565b5b60006200011384828501620000d3565b91505092915050565b611120806200012c6000396000f3fe608060405234801561001057600080fd5b506004361061004c5760003560e01c806314f7d5f0146100515780631ffa80d01461006d57806346854ec614610089578063eb84ff5e146100a5575b600080fd5b61006b60048036038101906100669190610a30565b6100d5565b005b61008760048036038101906100829190610acf565b610209565b005b6100a3600480360381019061009e9190610acf565b6103d3565b005b6100bf60048036038101906100ba9190610b5a565b61059d565b6040516100cc9190610c22565b60405180910390f35b336001151560008054906101000a900473ffffffffffffffffffffffffffffffffffffffff1673ffffffffffffffffffffffffffffffffffffffff1663fe9fbb80836040518263ffffffff1660e01b81526004016101339190610c85565b60206040518083038186803b15801561014b57600080fd5b505afa15801561015f573d6000803e3d6000fd5b505050506040513d601f19601f820116820180604052508101906101839190610cd8565b1515146101c5576040517f08c379a00000000000000000000000000000000000000000000000000000000081526004016101bc90610d51565b60405180910390fd5b7f5e9433a707f11b690faa5448fbf2d3a29123a874e3e0c33a0ac2ee3a71ffc573858585856040516101fa9493929190610f4a565b60405180910390a15050505050565b336001151560008054906101000a900473ffffffffffffffffffffffffffffffffffffffff1673ffffffffffffffffffffffffffffffffffffffff1663fe9fbb80836040518263ffffffff1660e01b81526004016102679190610c85565b60206040518083038186803b15801561027f57600080fd5b505afa158015610293573d6000803e3d6000fd5b505050506040513d601f19601f820116820180604052508101906102b79190610cd8565b1515146102f9576040517f08c379a00000000000000000000000000000000000000000000000000000000081526004016102f090610d51565b60405180910390fd5b60005b825181101561039157600084828151811061031a57610319610f9d565b5b60200260200101519050600084838151811061033957610338610f9d565b5b6020026020010151905080600160008981526020019081526020016000206000848152602001908152602001600020908051906020019061037b929190610654565b505050808061038990610ffb565b9150506102fc565b507f6a2e1d166f9cde3a595415f577a4cf0debdc1927d7e415593bbbdb12074cbe5c8484846040516103c593929190611044565b60405180910390a150505050565b336001151560008054906101000a900473ffffffffffffffffffffffffffffffffffffffff1673ffffffffffffffffffffffffffffffffffffffff1663fe9fbb80836040518263ffffffff1660e01b81526004016104319190610c85565b60206040518083038186803b15801561044957600080fd5b505afa15801561045d573d6000803e3d6000fd5b505050506040513d601f19601f820116820180604052508101906104819190610cd8565b1515146104c3576040517f08c379a00000000000000000000000000000000000000000000000000000000081526004016104ba90610d51565b60405180910390fd5b60005b825181101561055b5760008482815181106104e4576104e3610f9d565b5b60200260200101519050600084838151811061050357610502610f9d565b5b60200260200101519050806001600089815260200190815260200160002060008481526020019081526020016000209080519060200190610545929190610654565b505050808061055390610ffb565b9150506104c6565b507f22d88da6b50d3d82fa579f1f6b35f03d27a1615e663b1c74ced2368932027bc784848460405161058f93929190611044565b60405180910390a150505050565b606060016000848152602001908152602001600020600083815260200190815260200160002080546105ce906110b8565b80601f01602080910402602001604051908101604052809291908181526020018280546105fa906110b8565b80156106475780601f1061061c57610100808354040283529160200191610647565b820191906000526020600020905b81548152906001019060200180831161062a57829003601f168201915b5050505050905092915050565b828054610660906110b8565b90600052602060002090601f01602090048101928261068257600085556106c9565b82601f1061069b57805160ff19168380011785556106c9565b828001600101855582156106c9579182015b828111156106c85782518255916020019190600101906106ad565b5b5090506106d691906106da565b5090565b5b808211156106f35760008160009055506001016106db565b5090565b6000604051905090565b600080fd5b600080fd5b6000819050919050565b61071e8161070b565b811461072957600080fd5b50565b60008135905061073b81610715565b92915050565b600080fd5b6000601f19601f8301169050919050565b7f4e487b7100000000000000000000000000000000000000000000000000000000600052604160045260246000fd5b61078f82610746565b810181811067ffffffffffffffff821117156107ae576107ad610757565b5b80604052505050565b60006107c16106f7565b90506107cd8282610786565b919050565b600067ffffffffffffffff8211156107ed576107ec610757565b5b602082029050602081019050919050565b600080fd5b6000610816610811846107d2565b6107b7565b90508083825260208201905060208402830185811115610839576108386107fe565b5b835b81811015610862578061084e888261072c565b84526020840193505060208101905061083b565b5050509392505050565b600082601f83011261088157610880610741565b5b8135610891848260208601610803565b91505092915050565b600067ffffffffffffffff8211156108b5576108b4610757565b5b602082029050602081019050919050565b600080fd5b600067ffffffffffffffff8211156108e6576108e5610757565b5b6108ef82610746565b9050602081019050919050565b82818337600083830152505050565b600061091e610919846108cb565b6107b7565b90508281526020810184848401111561093a576109396108c6565b5b6109458482856108fc565b509392505050565b600082601f83011261096257610961610741565b5b813561097284826020860161090b565b91505092915050565b600061098e6109898461089a565b6107b7565b905080838252602082019050602084028301858111156109b1576109b06107fe565b5b835b818110156109f857803567ffffffffffffffff8111156109d6576109d5610741565b5b8086016109e3898261094d565b855260208501945050506020810190506109b3565b5050509392505050565b600082601f830112610a1757610a16610741565b5b8135610a2784826020860161097b565b91505092915050565b60008060008060808587031215610a4a57610a49610701565b5b6000610a588782880161072c565b9450506020610a698782880161072c565b935050604085013567ffffffffffffffff811115610a8a57610a89610706565b5b610a968782880161086c565b925050606085013567ffffffffffffffff811115610ab757610ab6610706565b5b610ac387828801610a02565b91505092959194509250565b600080600060608486031215610ae857610ae7610701565b5b6000610af68682870161072c565b935050602084013567ffffffffffffffff811115610b1757610b16610706565b5b610b238682870161086c565b925050604084013567ffffffffffffffff811115610b4457610b43610706565b5b610b5086828701610a02565b9150509250925092565b60008060408385031215610b7157610b70610701565b5b6000610b7f8582860161072c565b9250506020610b908582860161072c565b9150509250929050565b600081519050919050565b600082825260208201905092915050565b60005b83811015610bd4578082015181840152602081019050610bb9565b83811115610be3576000848401525b50505050565b6000610bf482610b9a565b610bfe8185610ba5565b9350610c0e818560208601610bb6565b610c1781610746565b840191505092915050565b60006020820190508181036000830152610c3c8184610be9565b905092915050565b600073ffffffffffffffffffffffffffffffffffffffff82169050919050565b6000610c6f82610c44565b9050919050565b610c7f81610c64565b82525050565b6000602082019050610c9a6000830184610c76565b92915050565b60008115159050919050565b610cb581610ca0565b8114610cc057600080fd5b50565b600081519050610cd281610cac565b92915050565b600060208284031215610cee57610ced610701565b5b6000610cfc84828501610cc3565b91505092915050565b7f4655434b00000000000000000000000000000000000000000000000000000000600082015250565b6000610d3b600483610ba5565b9150610d4682610d05565b602082019050919050565b60006020820190508181036000830152610d6a81610d2e565b9050919050565b610d7a8161070b565b82525050565b600081519050919050565b600082825260208201905092915050565b6000819050602082019050919050565b610db58161070b565b82525050565b6000610dc78383610dac565b60208301905092915050565b6000602082019050919050565b6000610deb82610d80565b610df58185610d8b565b9350610e0083610d9c565b8060005b83811015610e31578151610e188882610dbb565b9750610e2383610dd3565b925050600181019050610e04565b5085935050505092915050565b600081519050919050565b600082825260208201905092915050565b6000819050602082019050919050565b600082825260208201905092915050565b6000610e8682610b9a565b610e908185610e6a565b9350610ea0818560208601610bb6565b610ea981610746565b840191505092915050565b6000610ec08383610e7b565b905092915050565b6000602082019050919050565b6000610ee082610e3e565b610eea8185610e49565b935083602082028501610efc85610e5a565b8060005b85811015610f385784840389528151610f198582610eb4565b9450610f2483610ec8565b925060208a01995050600181019050610f00565b50829750879550505050505092915050565b6000608082019050610f5f6000830187610d71565b610f6c6020830186610d71565b8181036040830152610f7e8185610de0565b90508181036060830152610f928184610ed5565b905095945050505050565b7f4e487b7100000000000000000000000000000000000000000000000000000000600052603260045260246000fd5b7f4e487b7100000000000000000000000000000000000000000000000000000000600052601160045260246000fd5b60006110068261070b565b91507fffffffffffffffffffffffffffffffffffffffffffffffffffffffffffffffff82141561103957611038610fcc565b5b600182019050919050565b60006060820190506110596000830186610d71565b818103602083015261106b8185610de0565b9050818103604083015261107f8184610ed5565b9050949350505050565b7f4e487b7100000000000000000000000000000000000000000000000000000000600052602260045260246000fd5b600060028204905060018216806110d057607f821691505b602082108114156110e4576110e3611089565b5b5091905056fea2646970667358221220e44dff544965deb74924d32d6bc879e273b1986c1e73f244054a2fbf73d0a12b64736f6c63430008090033",
  "linkReferences": {},
  "deployedLinkReferences": {}
}