{
  "_format": "hh-sol-artifact-1",
  "contractName": "ThanksPayRelay",
  "sourceName": "contracts/data/ThanksPayRelay.sol",
  "abi": [
    {
      "inputs": [
        {
          "internalType": "address",
          "name": "securityAddr",
          "type": "address"
        }
      ],
      "stateMutability": "nonpayable",
      "type": "constructor"
    },
    {
      "anonymous": false,
      "inputs": [
        {
          "indexed": false,
          "internalType": "uint256",
          "name": "entityID",
          "type": "uint256"
        },
        {
          "indexed": false,
          "internalType": "uint256[]",
          "name": "propertyIDs",
          "type": "uint256[]"
        },
        {
          "indexed": false,
          "internalType": "string[]",
          "name": "propertyNames",
          "type": "string[]"
        }
      ],
      "name": "propertyAdded",
      "type": "event"
    },
    {
      "anonymous": false,
      "inputs": [
        {
          "indexed": false,
          "internalType": "uint256",
          "name": "entityID",
          "type": "uint256"
        },
        {
          "indexed": false,
          "internalType": "uint256",
          "name": "blockchainID",
          "type": "uint256"
        },
        {
          "indexed": false,
          "internalType": "uint256[]",
          "name": "propertyID",
          "type": "uint256[]"
        },
        {
          "indexed": false,
          "internalType": "string[]",
          "name": "propertyValue",
          "type": "string[]"
        }
      ],
      "name": "propertySet",
      "type": "event"
    },
    {
      "inputs": [
        {
          "internalType": "uint256",
          "name": "entityID",
          "type": "uint256"
        },
        {
          "internalType": "uint256[]",
          "name": "propertyIDs",
          "type": "uint256[]"
        },
        {
          "internalType": "string[]",
          "name": "_propertyNames",
          "type": "string[]"
        }
      ],
      "name": "addProperty",
      "outputs": [],
      "stateMutability": "nonpayable",
      "type": "function"
    },
    {
      "inputs": [
        {
          "internalType": "uint256",
          "name": "entityID",
          "type": "uint256"
        },
        {
          "internalType": "uint256",
          "name": "propertyID",
          "type": "uint256"
        }
      ],
      "name": "getPropertyName",
      "outputs": [
        {
          "internalType": "string",
          "name": "",
          "type": "string"
        }
      ],
      "stateMutability": "view",
      "type": "function"
    },
    {
      "inputs": [
        {
          "internalType": "uint256",
          "name": "entityID",
          "type": "uint256"
        },
        {
          "internalType": "uint256",
          "name": "blockchainID",
          "type": "uint256"
        },
        {
          "internalType": "uint256[]",
          "name": "propertyIDs",
          "type": "uint256[]"
        },
        {
          "internalType": "string[]",
          "name": "propertyValues",
          "type": "string[]"
        }
      ],
      "name": "setProperty",
      "outputs": [],
      "stateMutability": "nonpayable",
      "type": "function"
    }
  ],
  "bytecode": "0x608060405234801561001057600080fd5b506040516200104b3803806200104b833981810160405281019061003491906100df565b80806000806101000a81548173ffffffffffffffffffffffffffffffffffffffff021916908373ffffffffffffffffffffffffffffffffffffffff160217905550505061010c565b600080fd5b600073ffffffffffffffffffffffffffffffffffffffff82169050919050565b60006100ac82610081565b9050919050565b6100bc816100a1565b81146100c757600080fd5b50565b6000815190506100d9816100b3565b92915050565b6000602082840312156100f5576100f461007c565b5b6000610103848285016100ca565b91505092915050565b610f2f806200011c6000396000f3fe608060405234801561001057600080fd5b50600436106100415760003560e01c806314f7d5f0146100465780631ffa80d014610062578063eb84ff5e1461007e575b600080fd5b610060600480360381019061005b919061083f565b6100ae565b005b61007c600480360381019061007791906108de565b6101e2565b005b61009860048036038101906100939190610969565b6103ac565b6040516100a59190610a31565b60405180910390f35b336001151560008054906101000a900473ffffffffffffffffffffffffffffffffffffffff1673ffffffffffffffffffffffffffffffffffffffff1663fe9fbb80836040518263ffffffff1660e01b815260040161010c9190610a94565b60206040518083038186803b15801561012457600080fd5b505afa158015610138573d6000803e3d6000fd5b505050506040513d601f19601f8201168201806040525081019061015c9190610ae7565b15151461019e576040517f08c379a000000000000000000000000000000000000000000000000000000000815260040161019590610b60565b60405180910390fd5b7f5e9433a707f11b690faa5448fbf2d3a29123a874e3e0c33a0ac2ee3a71ffc573858585856040516101d39493929190610d59565b60405180910390a15050505050565b336001151560008054906101000a900473ffffffffffffffffffffffffffffffffffffffff1673ffffffffffffffffffffffffffffffffffffffff1663fe9fbb80836040518263ffffffff1660e01b81526004016102409190610a94565b60206040518083038186803b15801561025857600080fd5b505afa15801561026c573d6000803e3d6000fd5b505050506040513d601f19601f820116820180604052508101906102909190610ae7565b1515146102d2576040517f08c379a00000000000000000000000000000000000000000000000000000000081526004016102c990610b60565b60405180910390fd5b60005b825181101561036a5760008482815181106102f3576102f2610dac565b5b60200260200101519050600084838151811061031257610311610dac565b5b60200260200101519050806001600089815260200190815260200160002060008481526020019081526020016000209080519060200190610354929190610463565b505050808061036290610e0a565b9150506102d5565b507f6a2e1d166f9cde3a595415f577a4cf0debdc1927d7e415593bbbdb12074cbe5c84848460405161039e93929190610e53565b60405180910390a150505050565b606060016000848152602001908152602001600020600083815260200190815260200160002080546103dd90610ec7565b80601f016020809104026020016040519081016040528092919081815260200182805461040990610ec7565b80156104565780601f1061042b57610100808354040283529160200191610456565b820191906000526020600020905b81548152906001019060200180831161043957829003601f168201915b5050505050905092915050565b82805461046f90610ec7565b90600052602060002090601f01602090048101928261049157600085556104d8565b82601f106104aa57805160ff19168380011785556104d8565b828001600101855582156104d8579182015b828111156104d75782518255916020019190600101906104bc565b5b5090506104e591906104e9565b5090565b5b808211156105025760008160009055506001016104ea565b5090565b6000604051905090565b600080fd5b600080fd5b6000819050919050565b61052d8161051a565b811461053857600080fd5b50565b60008135905061054a81610524565b92915050565b600080fd5b6000601f19601f8301169050919050565b7f4e487b7100000000000000000000000000000000000000000000000000000000600052604160045260246000fd5b61059e82610555565b810181811067ffffffffffffffff821117156105bd576105bc610566565b5b80604052505050565b60006105d0610506565b90506105dc8282610595565b919050565b600067ffffffffffffffff8211156105fc576105fb610566565b5b602082029050602081019050919050565b600080fd5b6000610625610620846105e1565b6105c6565b905080838252602082019050602084028301858111156106485761064761060d565b5b835b81811015610671578061065d888261053b565b84526020840193505060208101905061064a565b5050509392505050565b600082601f8301126106905761068f610550565b5b81356106a0848260208601610612565b91505092915050565b600067ffffffffffffffff8211156106c4576106c3610566565b5b602082029050602081019050919050565b600080fd5b600067ffffffffffffffff8211156106f5576106f4610566565b5b6106fe82610555565b9050602081019050919050565b82818337600083830152505050565b600061072d610728846106da565b6105c6565b905082815260208101848484011115610749576107486106d5565b5b61075484828561070b565b509392505050565b600082601f83011261077157610770610550565b5b813561078184826020860161071a565b91505092915050565b600061079d610798846106a9565b6105c6565b905080838252602082019050602084028301858111156107c0576107bf61060d565b5b835b8181101561080757803567ffffffffffffffff8111156107e5576107e4610550565b5b8086016107f2898261075c565b855260208501945050506020810190506107c2565b5050509392505050565b600082601f83011261082657610825610550565b5b813561083684826020860161078a565b91505092915050565b6000806000806080858703121561085957610858610510565b5b60006108678782880161053b565b94505060206108788782880161053b565b935050604085013567ffffffffffffffff81111561089957610898610515565b5b6108a58782880161067b565b925050606085013567ffffffffffffffff8111156108c6576108c5610515565b5b6108d287828801610811565b91505092959194509250565b6000806000606084860312156108f7576108f6610510565b5b60006109058682870161053b565b935050602084013567ffffffffffffffff81111561092657610925610515565b5b6109328682870161067b565b925050604084013567ffffffffffffffff81111561095357610952610515565b5b61095f86828701610811565b9150509250925092565b600080604083850312156109805761097f610510565b5b600061098e8582860161053b565b925050602061099f8582860161053b565b9150509250929050565b600081519050919050565b600082825260208201905092915050565b60005b838110156109e35780820151818401526020810190506109c8565b838111156109f2576000848401525b50505050565b6000610a03826109a9565b610a0d81856109b4565b9350610a1d8185602086016109c5565b610a2681610555565b840191505092915050565b60006020820190508181036000830152610a4b81846109f8565b905092915050565b600073ffffffffffffffffffffffffffffffffffffffff82169050919050565b6000610a7e82610a53565b9050919050565b610a8e81610a73565b82525050565b6000602082019050610aa96000830184610a85565b92915050565b60008115159050919050565b610ac481610aaf565b8114610acf57600080fd5b50565b600081519050610ae181610abb565b92915050565b600060208284031215610afd57610afc610510565b5b6000610b0b84828501610ad2565b91505092915050565b7f4655434b00000000000000000000000000000000000000000000000000000000600082015250565b6000610b4a6004836109b4565b9150610b5582610b14565b602082019050919050565b60006020820190508181036000830152610b7981610b3d565b9050919050565b610b898161051a565b82525050565b600081519050919050565b600082825260208201905092915050565b6000819050602082019050919050565b610bc48161051a565b82525050565b6000610bd68383610bbb565b60208301905092915050565b6000602082019050919050565b6000610bfa82610b8f565b610c048185610b9a565b9350610c0f83610bab565b8060005b83811015610c40578151610c278882610bca565b9750610c3283610be2565b925050600181019050610c13565b5085935050505092915050565b600081519050919050565b600082825260208201905092915050565b6000819050602082019050919050565b600082825260208201905092915050565b6000610c95826109a9565b610c9f8185610c79565b9350610caf8185602086016109c5565b610cb881610555565b840191505092915050565b6000610ccf8383610c8a565b905092915050565b6000602082019050919050565b6000610cef82610c4d565b610cf98185610c58565b935083602082028501610d0b85610c69565b8060005b85811015610d475784840389528151610d288582610cc3565b9450610d3383610cd7565b925060208a01995050600181019050610d0f565b50829750879550505050505092915050565b6000608082019050610d6e6000830187610b80565b610d7b6020830186610b80565b8181036040830152610d8d8185610bef565b90508181036060830152610da18184610ce4565b905095945050505050565b7f4e487b7100000000000000000000000000000000000000000000000000000000600052603260045260246000fd5b7f4e487b7100000000000000000000000000000000000000000000000000000000600052601160045260246000fd5b6000610e158261051a565b91507fffffffffffffffffffffffffffffffffffffffffffffffffffffffffffffffff821415610e4857610e47610ddb565b5b600182019050919050565b6000606082019050610e686000830186610b80565b8181036020830152610e7a8185610bef565b90508181036040830152610e8e8184610ce4565b9050949350505050565b7f4e487b7100000000000000000000000000000000000000000000000000000000600052602260045260246000fd5b60006002820490506001821680610edf57607f821691505b60208210811415610ef357610ef2610e98565b5b5091905056fea2646970667358221220923d5e9a366ff7ad6e1aa9592a007ff59e8048836c23a4c689a2772a4e3502f664736f6c63430008090033",
  "linkReferences": {},
  "deployedLinkReferences": {}
}