{
  "_format": "hh-sol-artifact-1",
  "contractName": "readData",
  "sourceName": "contracts/data/readData.sol",
  "abi": [
    {
      "inputs": [
        {
          "internalType": "address",
          "name": "dataAddress",
          "type": "address"
        }
      ],
      "stateMutability": "nonpayable",
      "type": "constructor"
    },
    {
      "inputs": [
        {
          "internalType": "address",
          "name": "account",
          "type": "address"
        }
      ],
      "name": "getPartnerBalance",
      "outputs": [
        {
          "internalType": "uint256",
          "name": "",
          "type": "uint256"
        }
      ],
      "stateMutability": "view",
      "type": "function"
    },
    {
      "inputs": [
        {
          "internalType": "address",
          "name": "account",
          "type": "address"
        }
      ],
      "name": "getWorkerBalance",
      "outputs": [
        {
          "internalType": "uint256",
          "name": "",
          "type": "uint256"
        }
      ],
      "stateMutability": "view",
      "type": "function"
    },
    {
      "inputs": [
        {
          "internalType": "address",
          "name": "pId",
          "type": "address"
        }
      ],
      "name": "readPartner",
      "outputs": [
        {
          "internalType": "uint256",
          "name": "balance",
          "type": "uint256"
        },
        {
          "internalType": "uint256",
          "name": "latestPay",
          "type": "uint256"
        }
      ],
      "stateMutability": "view",
      "type": "function"
    },
    {
      "inputs": [
        {
          "internalType": "address",
          "name": "wId",
          "type": "address"
        }
      ],
      "name": "readWorker",
      "outputs": [
        {
          "internalType": "uint256",
          "name": "balance",
          "type": "uint256"
        },
        {
          "internalType": "uint256",
          "name": "wage",
          "type": "uint256"
        },
        {
          "internalType": "address",
          "name": "pId",
          "type": "address"
        },
        {
          "internalType": "uint256",
          "name": "latestRequest",
          "type": "uint256"
        }
      ],
      "stateMutability": "view",
      "type": "function"
    }
  ],
  "bytecode": "0x608060405234801561001057600080fd5b5060405161067a38038061067a833981810160405281019061003291906100db565b806000806101000a81548173ffffffffffffffffffffffffffffffffffffffff021916908373ffffffffffffffffffffffffffffffffffffffff16021790555050610108565b600080fd5b600073ffffffffffffffffffffffffffffffffffffffff82169050919050565b60006100a88261007d565b9050919050565b6100b88161009d565b81146100c357600080fd5b50565b6000815190506100d5816100af565b92915050565b6000602082840312156100f1576100f0610078565b5b60006100ff848285016100c6565b91505092915050565b610563806101176000396000f3fe608060405234801561001057600080fd5b506004361061004c5760003560e01c8063016fa0181461005157806306561155146100815780634d0de225146100b4578063ba49cdb5146100e4575b600080fd5b61006b6004803603810190610066919061034c565b610115565b6040516100789190610392565b60405180910390f35b61009b6004803603810190610096919061034c565b61012d565b6040516100ab94939291906103bc565b60405180910390f35b6100ce60048036038101906100c9919061034c565b6101eb565b6040516100db9190610392565b60405180910390f35b6100fe60048036038101906100f9919061034c565b610235565b60405161010c929190610401565b60405180910390f35b60008061012183610235565b50905080915050919050565b60008060008060008054906101000a900473ffffffffffffffffffffffffffffffffffffffff1673ffffffffffffffffffffffffffffffffffffffff16634048a257866040518263ffffffff1660e01b815260040161018c919061042a565b60806040518083038186803b1580156101a457600080fd5b505afa1580156101b8573d6000803e3d6000fd5b505050506040513d601f19601f820116820180604052508101906101dc9190610486565b93509350935093509193509193565b60008060008060006101fc8661012d565b9350935093509350600061020f83610235565b91505080821015610227578395505050505050610230565b84955050505050505b919050565b60008060008054906101000a900473ffffffffffffffffffffffffffffffffffffffff1673ffffffffffffffffffffffffffffffffffffffff166395c33652846040518263ffffffff1660e01b8152600401610291919061042a565b604080518083038186803b1580156102a857600080fd5b505afa1580156102bc573d6000803e3d6000fd5b505050506040513d601f19601f820116820180604052508101906102e091906104ed565b91509150915091565b600080fd5b600073ffffffffffffffffffffffffffffffffffffffff82169050919050565b6000610319826102ee565b9050919050565b6103298161030e565b811461033457600080fd5b50565b60008135905061034681610320565b92915050565b600060208284031215610362576103616102e9565b5b600061037084828501610337565b91505092915050565b6000819050919050565b61038c81610379565b82525050565b60006020820190506103a76000830184610383565b92915050565b6103b68161030e565b82525050565b60006080820190506103d16000830187610383565b6103de6020830186610383565b6103eb60408301856103ad565b6103f86060830184610383565b95945050505050565b60006040820190506104166000830185610383565b6104236020830184610383565b9392505050565b600060208201905061043f60008301846103ad565b92915050565b61044e81610379565b811461045957600080fd5b50565b60008151905061046b81610445565b92915050565b60008151905061048081610320565b92915050565b600080600080608085870312156104a05761049f6102e9565b5b60006104ae8782880161045c565b94505060206104bf8782880161045c565b93505060406104d087828801610471565b92505060606104e18782880161045c565b91505092959194509250565b60008060408385031215610504576105036102e9565b5b60006105128582860161045c565b92505060206105238582860161045c565b915050925092905056fea26469706673582212200c63b67446e82841e5a0760084e1073feee43d3c8a06edc5d58e4ae86dd5c57064736f6c63430008090033",
  "linkReferences": {},
  "deployedLinkReferences": {}
}