{
  "_format": "hh-sol-artifact-1",
  "contractName": "LeagueMaker",
  "sourceName": "contracts/LM.sol",
  "abi": [
    {
      "inputs": [],
      "stateMutability": "nonpayable",
      "type": "constructor"
    },
    {
      "inputs": [
        {
          "internalType": "uint256",
          "name": "exitcode",
          "type": "uint256"
        }
      ],
      "name": "revertExitCode",
      "type": "error"
    },
    {
      "anonymous": false,
      "inputs": [
        {
          "indexed": false,
          "internalType": "uint256",
          "name": "_leagueId",
          "type": "uint256"
        },
        {
          "indexed": false,
          "internalType": "string",
          "name": "_name",
          "type": "string"
        }
      ],
      "name": "blockPlayerEvent",
      "type": "event"
    },
    {
      "anonymous": false,
      "inputs": [
        {
          "indexed": false,
          "internalType": "address[]",
          "name": "_userAddrs",
          "type": "address[]"
        }
      ],
      "name": "blockUsersEvent",
      "type": "event"
    },
    {
      "anonymous": false,
      "inputs": [
        {
          "indexed": false,
          "internalType": "address",
          "name": "_userAddr",
          "type": "address"
        },
        {
          "indexed": false,
          "internalType": "uint256",
          "name": "_state",
          "type": "uint256"
        },
        {
          "indexed": false,
          "internalType": "string",
          "name": "_name",
          "type": "string"
        },
        {
          "indexed": false,
          "internalType": "uint256",
          "name": "_time",
          "type": "uint256"
        }
      ],
      "name": "createUserEvent",
      "type": "event"
    },
    {
      "anonymous": false,
      "inputs": [
        {
          "indexed": false,
          "internalType": "uint256",
          "name": "_leagueId",
          "type": "uint256"
        },
        {
          "indexed": false,
          "internalType": "string",
          "name": "_gameName",
          "type": "string"
        },
        {
          "indexed": false,
          "internalType": "uint256",
          "name": "_liveTime",
          "type": "uint256"
        },
        {
          "indexed": false,
          "internalType": "uint256",
          "name": "_closeTime",
          "type": "uint256"
        },
        {
          "indexed": false,
          "internalType": "uint256",
          "name": "_maxPlayer",
          "type": "uint256"
        },
        {
          "indexed": false,
          "internalType": "string[]",
          "name": "_winConds",
          "type": "string[]"
        },
        {
          "indexed": false,
          "internalType": "string[]",
          "name": "_winCondOps",
          "type": "string[]"
        }
      ],
      "name": "editLeagueEvent",
      "type": "event"
    },
    {
      "anonymous": false,
      "inputs": [
        {
          "indexed": false,
          "internalType": "uint256",
          "name": "_leagueId",
          "type": "uint256"
        },
        {
          "indexed": false,
          "internalType": "string[]",
          "name": "_names",
          "type": "string[]"
        }
      ],
      "name": "kickPlayersEvent",
      "type": "event"
    },
    {
      "anonymous": false,
      "inputs": [
        {
          "indexed": false,
          "internalType": "uint256",
          "name": "_leagueId",
          "type": "uint256"
        },
        {
          "indexed": false,
          "internalType": "uint256",
          "name": "_time",
          "type": "uint256"
        },
        {
          "indexed": false,
          "internalType": "address",
          "name": "_byAdmin",
          "type": "address"
        }
      ],
      "name": "leagueIsCancelledEvent",
      "type": "event"
    },
    {
      "anonymous": false,
      "inputs": [
        {
          "indexed": false,
          "internalType": "uint256",
          "name": "_leagueId",
          "type": "uint256"
        },
        {
          "indexed": false,
          "internalType": "uint256",
          "name": "_time",
          "type": "uint256"
        },
        {
          "indexed": false,
          "internalType": "string[]",
          "name": "_winners",
          "type": "string[]"
        },
        {
          "indexed": false,
          "internalType": "uint256",
          "name": "_prizePerParticipant",
          "type": "uint256"
        },
        {
          "indexed": false,
          "internalType": "address",
          "name": "_byAdmin",
          "type": "address"
        }
      ],
      "name": "leagueIsDoneEvent",
      "type": "event"
    },
    {
      "anonymous": false,
      "inputs": [
        {
          "indexed": false,
          "internalType": "uint256",
          "name": "_leagueId",
          "type": "uint256"
        },
        {
          "indexed": false,
          "internalType": "uint256",
          "name": "_time",
          "type": "uint256"
        },
        {
          "indexed": false,
          "internalType": "address",
          "name": "_byAdmin",
          "type": "address"
        }
      ],
      "name": "leagueIsPlayingEvent",
      "type": "event"
    },
    {
      "anonymous": false,
      "inputs": [
        {
          "indexed": false,
          "internalType": "uint256",
          "name": "_leagueId",
          "type": "uint256"
        },
        {
          "indexed": false,
          "internalType": "string",
          "name": "_gameName",
          "type": "string"
        },
        {
          "indexed": false,
          "internalType": "uint256",
          "name": "_openTime",
          "type": "uint256"
        },
        {
          "indexed": false,
          "internalType": "uint256",
          "name": "_liveTime",
          "type": "uint256"
        },
        {
          "indexed": false,
          "internalType": "uint256",
          "name": "_closeTime",
          "type": "uint256"
        },
        {
          "indexed": false,
          "internalType": "uint256",
          "name": "_minEntry",
          "type": "uint256"
        },
        {
          "indexed": false,
          "internalType": "address",
          "name": "_byAdmin",
          "type": "address"
        },
        {
          "indexed": false,
          "internalType": "uint256",
          "name": "_initReward",
          "type": "uint256"
        },
        {
          "indexed": false,
          "internalType": "uint256",
          "name": "_maxPlayer",
          "type": "uint256"
        },
        {
          "indexed": false,
          "internalType": "string[]",
          "name": "_winConds",
          "type": "string[]"
        },
        {
          "indexed": false,
          "internalType": "string[]",
          "name": "_winCondOps",
          "type": "string[]"
        }
      ],
      "name": "leagueIsWaitingEvent",
      "type": "event"
    },
    {
      "anonymous": false,
      "inputs": [
        {
          "indexed": false,
          "internalType": "uint256",
          "name": "_leagueId",
          "type": "uint256"
        },
        {
          "indexed": false,
          "internalType": "uint256",
          "name": "_time",
          "type": "uint256"
        },
        {
          "indexed": false,
          "internalType": "address",
          "name": "_pAddress",
          "type": "address"
        },
        {
          "indexed": false,
          "internalType": "string",
          "name": "_nickName",
          "type": "string"
        },
        {
          "indexed": false,
          "internalType": "bool",
          "name": "isBlocked",
          "type": "bool"
        },
        {
          "indexed": false,
          "internalType": "uint256",
          "name": "_uniqueIdCnt",
          "type": "uint256"
        }
      ],
      "name": "leagueJoined",
      "type": "event"
    },
    {
      "anonymous": false,
      "inputs": [
        {
          "indexed": false,
          "internalType": "uint256",
          "name": "_leagueId",
          "type": "uint256"
        },
        {
          "indexed": false,
          "internalType": "uint256",
          "name": "_time",
          "type": "uint256"
        },
        {
          "indexed": false,
          "internalType": "address",
          "name": "_pAddress",
          "type": "address"
        },
        {
          "indexed": false,
          "internalType": "string",
          "name": "_nickName",
          "type": "string"
        },
        {
          "indexed": false,
          "internalType": "uint256",
          "name": "_amount",
          "type": "uint256"
        }
      ],
      "name": "prizeClaimed",
      "type": "event"
    },
    {
      "anonymous": false,
      "inputs": [
        {
          "indexed": false,
          "internalType": "address",
          "name": "userAddr",
          "type": "address"
        },
        {
          "indexed": false,
          "internalType": "uint256",
          "name": "state",
          "type": "uint256"
        },
        {
          "indexed": false,
          "internalType": "string",
          "name": "_name",
          "type": "string"
        },
        {
          "indexed": false,
          "internalType": "uint256",
          "name": "_time",
          "type": "uint256"
        }
      ],
      "name": "setAdminStateEvent",
      "type": "event"
    },
    {
      "anonymous": false,
      "inputs": [
        {
          "indexed": false,
          "internalType": "uint256",
          "name": "_leagueId",
          "type": "uint256"
        },
        {
          "indexed": false,
          "internalType": "string",
          "name": "_name",
          "type": "string"
        }
      ],
      "name": "unblockPlayerEvent",
      "type": "event"
    },
    {
      "anonymous": false,
      "inputs": [
        {
          "indexed": false,
          "internalType": "address[]",
          "name": "_userAddrs",
          "type": "address[]"
        }
      ],
      "name": "unblockUsersEvent",
      "type": "event"
    },
    {
      "anonymous": false,
      "inputs": [
        {
          "indexed": false,
          "internalType": "uint256",
          "name": "_amount",
          "type": "uint256"
        },
        {
          "indexed": false,
          "internalType": "uint256",
          "name": "_time",
          "type": "uint256"
        }
      ],
      "name": "updateContractBalanceEvent",
      "type": "event"
    },
    {
      "anonymous": false,
      "inputs": [
        {
          "indexed": false,
          "internalType": "address",
          "name": "_userAddr",
          "type": "address"
        },
        {
          "indexed": false,
          "internalType": "uint256",
          "name": "_state",
          "type": "uint256"
        },
        {
          "indexed": false,
          "internalType": "string",
          "name": "_name",
          "type": "string"
        },
        {
          "indexed": false,
          "internalType": "bool",
          "name": "_blockState",
          "type": "bool"
        }
      ],
      "name": "updateUserEvent",
      "type": "event"
    },
    {
      "anonymous": false,
      "inputs": [
        {
          "indexed": false,
          "internalType": "uint256",
          "name": "_time",
          "type": "uint256"
        },
        {
          "indexed": false,
          "internalType": "address",
          "name": "_from",
          "type": "address"
        },
        {
          "indexed": false,
          "internalType": "address",
          "name": "_to",
          "type": "address"
        },
        {
          "indexed": false,
          "internalType": "uint256",
          "name": "_amount",
          "type": "uint256"
        },
        {
          "indexed": false,
          "internalType": "string",
          "name": "_message",
          "type": "string"
        }
      ],
      "name": "withdrawAsAdminEvent",
      "type": "event"
    },
    {
      "inputs": [
        {
          "internalType": "uint256",
          "name": "leagueId",
          "type": "uint256"
        },
        {
          "internalType": "string[]",
          "name": "players",
          "type": "string[]"
        }
      ],
      "name": "blockPlayers",
      "outputs": [],
      "stateMutability": "nonpayable",
      "type": "function"
    },
    {
      "inputs": [
        {
          "internalType": "address[]",
          "name": "userAddrs",
          "type": "address[]"
        }
      ],
      "name": "blockUsers",
      "outputs": [],
      "stateMutability": "nonpayable",
      "type": "function"
    },
    {
      "inputs": [
        {
          "internalType": "uint256",
          "name": "leagueId",
          "type": "uint256"
        },
        {
          "internalType": "string",
          "name": "gameName",
          "type": "string"
        },
        {
          "internalType": "uint256",
          "name": "liveTime",
          "type": "uint256"
        },
        {
          "internalType": "uint256",
          "name": "closeTime",
          "type": "uint256"
        },
        {
          "internalType": "uint256",
          "name": "maxPlayer",
          "type": "uint256"
        },
        {
          "internalType": "string[]",
          "name": "winConds",
          "type": "string[]"
        },
        {
          "internalType": "string[]",
          "name": "winCondOps",
          "type": "string[]"
        }
      ],
      "name": "editLeague",
      "outputs": [],
      "stateMutability": "nonpayable",
      "type": "function"
    },
    {
      "inputs": [],
      "name": "getContractBalance",
      "outputs": [
        {
          "internalType": "uint256",
          "name": "",
          "type": "uint256"
        }
      ],
      "stateMutability": "view",
      "type": "function"
    },
    {
      "inputs": [
        {
          "internalType": "uint256",
          "name": "leagueId",
          "type": "uint256"
        },
        {
          "internalType": "string",
          "name": "nickName",
          "type": "string"
        }
      ],
      "name": "joinLeague",
      "outputs": [],
      "stateMutability": "payable",
      "type": "function"
    },
    {
      "inputs": [
        {
          "internalType": "uint256",
          "name": "leagueId",
          "type": "uint256"
        },
        {
          "internalType": "string[]",
          "name": "players",
          "type": "string[]"
        }
      ],
      "name": "kickPlayers",
      "outputs": [],
      "stateMutability": "nonpayable",
      "type": "function"
    },
    {
      "inputs": [],
      "name": "lastLeagueId",
      "outputs": [
        {
          "internalType": "uint256",
          "name": "",
          "type": "uint256"
        }
      ],
      "stateMutability": "view",
      "type": "function"
    },
    {
      "inputs": [
        {
          "internalType": "uint256",
          "name": "leagueId",
          "type": "uint256"
        }
      ],
      "name": "makeCancelledLeague",
      "outputs": [],
      "stateMutability": "nonpayable",
      "type": "function"
    },
    {
      "inputs": [
        {
          "internalType": "uint256",
          "name": "leagueId",
          "type": "uint256"
        },
        {
          "internalType": "string[]",
          "name": "winners",
          "type": "string[]"
        }
      ],
      "name": "makeDoneLeague",
      "outputs": [],
      "stateMutability": "nonpayable",
      "type": "function"
    },
    {
      "inputs": [
        {
          "internalType": "uint256",
          "name": "leagueId",
          "type": "uint256"
        }
      ],
      "name": "makePlayingLeague",
      "outputs": [],
      "stateMutability": "nonpayable",
      "type": "function"
    },
    {
      "inputs": [
        {
          "internalType": "string",
          "name": "gameName",
          "type": "string"
        },
        {
          "internalType": "uint256",
          "name": "minEntry",
          "type": "uint256"
        },
        {
          "internalType": "uint256",
          "name": "liveTime",
          "type": "uint256"
        },
        {
          "internalType": "uint256",
          "name": "closeTime",
          "type": "uint256"
        },
        {
          "internalType": "uint256",
          "name": "maxPlayer",
          "type": "uint256"
        },
        {
          "internalType": "uint256",
          "name": "initReward",
          "type": "uint256"
        },
        {
          "internalType": "string[]",
          "name": "winConds",
          "type": "string[]"
        },
        {
          "internalType": "string[]",
          "name": "winCondOps",
          "type": "string[]"
        }
      ],
      "name": "makeWaitingLeague",
      "outputs": [],
      "stateMutability": "payable",
      "type": "function"
    },
    {
      "inputs": [
        {
          "internalType": "address",
          "name": "userAddr",
          "type": "address"
        },
        {
          "internalType": "uint256",
          "name": "state",
          "type": "uint256"
        },
        {
          "internalType": "string",
          "name": "name",
          "type": "string"
        }
      ],
      "name": "setAdminState",
      "outputs": [],
      "stateMutability": "nonpayable",
      "type": "function"
    },
    {
      "inputs": [
        {
          "internalType": "uint256",
          "name": "leagueId",
          "type": "uint256"
        },
        {
          "internalType": "string[]",
          "name": "players",
          "type": "string[]"
        }
      ],
      "name": "unblockPlayers",
      "outputs": [],
      "stateMutability": "nonpayable",
      "type": "function"
    },
    {
      "inputs": [
        {
          "internalType": "address[]",
          "name": "userAddrs",
          "type": "address[]"
        }
      ],
      "name": "unblockUsers",
      "outputs": [],
      "stateMutability": "nonpayable",
      "type": "function"
    },
    {
      "inputs": [
        {
          "internalType": "address",
          "name": "to",
          "type": "address"
        },
        {
          "internalType": "uint256",
          "name": "amount",
          "type": "uint256"
        },
        {
          "internalType": "string",
          "name": "message",
          "type": "string"
        }
      ],
      "name": "withdrawAsAdmin",
      "outputs": [],
      "stateMutability": "nonpayable",
      "type": "function"
    },
    {
      "inputs": [
        {
          "internalType": "uint256[]",
          "name": "leagueId",
          "type": "uint256[]"
        }
      ],
      "name": "withdrawRewards",
      "outputs": [],
      "stateMutability": "nonpayable",
      "type": "function"
    }
  ],
  "bytecode": "0x608060405260006001553480156200001657600080fd5b506003600460003373ffffffffffffffffffffffffffffffffffffffff1673ffffffffffffffffffffffffffffffffffffffff168152602001908152602001600020600101819055506001600460003373ffffffffffffffffffffffffffffffffffffffff1673ffffffffffffffffffffffffffffffffffffffff16815260200190815260200160002060000160006101000a81548160ff0219169083151502179055507f5950e3858c63f81d599e5d837d3e46f9886eebc5a036c02bd004a9793cf9da0333600342604051620000f0939291906200015f565b60405180910390a1600080819055506200023d565b6200011081620001c2565b82525050565b620001218162000200565b82525050565b600062000136600483620001b1565b9150620001438262000214565b602082019050919050565b6200015981620001f6565b82525050565b600060808201905062000176600083018662000105565b62000185602083018562000116565b8181036040830152620001988162000127565b9050620001a960608301846200014e565b949350505050565b600082825260208201905092915050565b6000620001cf82620001d6565b9050919050565b600073ffffffffffffffffffffffffffffffffffffffff82169050919050565b6000819050919050565b60006200020d82620001f6565b9050919050565b7f4544445900000000000000000000000000000000000000000000000000000000600082015250565b614633806200024d6000396000f3fe6080604052600436106100f35760003560e01c80636cdb7b121161008a578063b757538411610059578063b7575384146102d9578063ccada7f0146102f5578063e161fa561461031e578063e7a48d7314610347576100f3565b80636cdb7b12146102335780636f9fb98a1461025c5780638030a8861461028757806396913382146102b0576100f3565b8063522fa53f116100c6578063522fa53f1461018f5780635c335f07146101b85780635cc14add146101e15780636c6eb43d1461020a576100f3565b8063321ceb01146100f85780633b013de9146101215780633e9e1c1b1461014a57806349156fc714610166575b600080fd5b34801561010457600080fd5b5061011f600480360381019061011a9190613830565b610372565b005b34801561012d57600080fd5b5061014860048036038101906101439190613807565b6106be565b005b610164600480360381019061015f919061370d565b610933565b005b34801561017257600080fd5b5061018d60048036038101906101889190613807565b610c0f565b005b34801561019b57600080fd5b506101b660048036038101906101b1919061368b565b610f41565b005b3480156101c457600080fd5b506101df60048036038101906101da91906136cc565b611086565b005b3480156101ed57600080fd5b5061020860048036038101906102039190613830565b6114b1565b005b34801561021657600080fd5b50610231600480360381019061022c9190613830565b611bb3565b005b34801561023f57600080fd5b5061025a600480360381019061025591906138d8565b611fc3565b005b34801561026857600080fd5b50610271612399565b60405161027e9190613d24565b60405180910390f35b34801561029357600080fd5b506102ae60048036038101906102a99190613624565b6123f5565b005b3480156102bc57600080fd5b506102d760048036038101906102d2919061368b565b6124f7565b005b6102f360048036038101906102ee9190613884565b61263c565b005b34801561030157600080fd5b5061031c60048036038101906103179190613624565b612d25565b005b34801561032a57600080fd5b5061034560048036038101906103409190613830565b612e95565b005b34801561035357600080fd5b5061035c6131e1565b6040516103699190613d24565b60405180910390f35b816103a8600115156002600084815260200190815260200160002060000160009054906101000a900460ff1615151460016131e7565b823373ffffffffffffffffffffffffffffffffffffffff166002600083815260200190815260200160002060000160019054906101000a900473ffffffffffffffffffffffffffffffffffffffff1673ffffffffffffffffffffffffffffffffffffffff161415801561045e57506003600460003373ffffffffffffffffffffffffffffffffffffffff1673ffffffffffffffffffffffffffffffffffffffff1681526020019081526020016000206001015414155b156104a15760026040517f519fe5850000000000000000000000000000000000000000000000000000000081526004016104989190613ce9565b60405180910390fd5b60005b83518110156106b75761053e6001151560066000888152602001908152602001600020868481518110610500577f4e487b7100000000000000000000000000000000000000000000000000000000600052603260045260246000fd5b60200260200101516040516105159190613c4d565b908152602001604051809103902060000160009054906101000a900460ff1615151460036131e7565b60006004600060066000898152602001908152602001600020878581518110610590577f4e487b7100000000000000000000000000000000000000000000000000000000600052603260045260246000fd5b60200260200101516040516105a59190613c4d565b908152602001604051809103902060000160029054906101000a900473ffffffffffffffffffffffffffffffffffffffff1673ffffffffffffffffffffffffffffffffffffffff1673ffffffffffffffffffffffffffffffffffffffff16815260200190815260200160002060000160016101000a81548160ff0219169083151502179055507fa6f7be5fa40eea4dd0954a2142b2de0a2bec525118f73d0bf61fc5ee2673f23385858381518110610686577f4e487b7100000000000000000000000000000000000000000000000000000000600052603260045260246000fd5b602002602001015160405161069c929190613dc9565b60405180910390a180806106af90614490565b9150506104a4565b5050505050565b803373ffffffffffffffffffffffffffffffffffffffff166002600083815260200190815260200160002060000160019054906101000a900473ffffffffffffffffffffffffffffffffffffffff1673ffffffffffffffffffffffffffffffffffffffff161415801561077457506003600460003373ffffffffffffffffffffffffffffffffffffffff1673ffffffffffffffffffffffffffffffffffffffff1681526020019081526020016000206001015414155b156107b75760026040517f519fe5850000000000000000000000000000000000000000000000000000000081526004016107ae9190613ce9565b60405180910390fd5b816107ed600115156002600084815260200190815260200160002060000160009054906101000a900460ff1615151460016131e7565b61088e6000600281111561082a577f4e487b7100000000000000000000000000000000000000000000000000000000600052602160045260246000fd5b6002600086815260200190815260200160002060080160009054906101000a900460ff166002811115610886577f4e487b7100000000000000000000000000000000000000000000000000000000600052602160045260246000fd5b14600c6131e7565b60016002600085815260200190815260200160002060080160006101000a81548160ff021916908360028111156108ee577f4e487b7100000000000000000000000000000000000000000000000000000000600052602160045260246000fd5b02179055507fe8f80d6e674c037093abaa113cc1fcaa25356099cb70883e0bf5c935697c5ec283423360405161092693929190613f66565b60405180910390a1505050565b600180600460003373ffffffffffffffffffffffffffffffffffffffff1673ffffffffffffffffffffffffffffffffffffffff16815260200190815260200160002060010154101561098457600080fd5b61099f600183516109959190614252565b84511460056131e7565b6109ac843414600a6131e7565b6109bb6000891015600b6131e7565b6109ca600088101560066131e7565b6109d88787101560076131e7565b6109e7600086101560086131e7565b6000808154809291906109f990614490565b91905055506040518061014001604052806001151581526020013373ffffffffffffffffffffffffffffffffffffffff168152602001600054815260200189815260200185815260200160008152602001868152602001600081526020016000815260200160006002811115610a98577f4e487b7100000000000000000000000000000000000000000000000000000000600052602160045260246000fd5b815250600260008054815260200190815260200160002060008201518160000160006101000a81548160ff02191690831515021790555060208201518160000160016101000a81548173ffffffffffffffffffffffffffffffffffffffff021916908373ffffffffffffffffffffffffffffffffffffffff16021790555060408201518160010155606082015181600201556080820151816003015560a0820151816004015560c0820151816005015560e0820151816006015561010082015181600701556101208201518160080160006101000a81548160ff02191690836002811115610baf577f4e487b7100000000000000000000000000000000000000000000000000000000600052602160045260246000fd5b02179055509050507f743e21cacab930b91bba0f10d490ed4910592af7fd84cb2f9e8c8e60f2fb9d366000548a428a8a8d338b8d8c8c604051610bfc9b9a99989796959493929190613e7d565b60405180910390a1505050505050505050565b803373ffffffffffffffffffffffffffffffffffffffff166002600083815260200190815260200160002060000160019054906101000a900473ffffffffffffffffffffffffffffffffffffffff1673ffffffffffffffffffffffffffffffffffffffff1614158015610cc557506003600460003373ffffffffffffffffffffffffffffffffffffffff1673ffffffffffffffffffffffffffffffffffffffff1681526020019081526020016000206001015414155b15610d085760026040517f519fe585000000000000000000000000000000000000000000000000000000008152600401610cff9190613ce9565b60405180910390fd5b81610d3e600115156002600084815260200190815260200160002060000160009054906101000a900460ff1615151460016131e7565b60005b6005600085815260200190815260200160002080549050811015610e4457600560008581526020019081526020016000208181548110610daa577f4e487b7100000000000000000000000000000000000000000000000000000000600052603260045260246000fd5b9060005260206000200160009054906101000a900473ffffffffffffffffffffffffffffffffffffffff1673ffffffffffffffffffffffffffffffffffffffff166108fc60026000878152602001908152602001600020600201549081150290604051600060405180830381858888f19350505050158015610e30573d6000803e3d6000fd5b508080610e3c90614490565b915050610d41565b50600560008481526020019081526020016000206000610e6491906132b2565b60026000848152602001908152602001600020600080820160006101000a81549060ff02191690556000820160016101000a81549073ffffffffffffffffffffffffffffffffffffffff021916905560018201600090556002820160009055600382016000905560048201600090556005820160009055600682016000905560078201600090556008820160006101000a81549060ff021916905550507f6102766111f946b72d07100345f19336ab4f6430348ad9e3b8e51c79c619d2c8834233604051610f3493929190613f66565b60405180910390a1505050565b600380600460003373ffffffffffffffffffffffffffffffffffffffff1673ffffffffffffffffffffffffffffffffffffffff168152602001908152602001600020600101541015610f9257600080fd5b60005b825181101561104a57600160046000858481518110610fdd577f4e487b7100000000000000000000000000000000000000000000000000000000600052603260045260246000fd5b602002602001015173ffffffffffffffffffffffffffffffffffffffff1673ffffffffffffffffffffffffffffffffffffffff16815260200190815260200160002060000160016101000a81548160ff0219169083151502179055508061104390614490565b9050610f95565b507f34788ddd1f4c46454a3ab0f4e41c2afe0ed9e665afa2cde9d7f7cb76867f62448260405161107a9190613cc7565b60405180910390a15050565b60001515600460003373ffffffffffffffffffffffffffffffffffffffff1673ffffffffffffffffffffffffffffffffffffffff16815260200190815260200160002060000160019054906101000a900460ff1615151461111c576040517f08c379a000000000000000000000000000000000000000000000000000000000815260040161111390613d04565b60405180910390fd5b6000805b825181101561146557600060036000858481518110611168577f4e487b7100000000000000000000000000000000000000000000000000000000600052603260045260246000fd5b6020026020010151815260200190815260200160002060003373ffffffffffffffffffffffffffffffffffffffff1673ffffffffffffffffffffffffffffffffffffffff16815260200190815260200160002080546111c69061442d565b80601f01602080910402602001604051908101604052809291908181526020018280546111f29061442d565b801561123f5780601f106112145761010080835404028352916020019161123f565b820191906000526020600020905b81548152906001019060200180831161122257829003601f168201915b50505050509050600060076000868581518110611285577f4e487b7100000000000000000000000000000000000000000000000000000000600052603260045260246000fd5b6020026020010151815260200190815260200160002060003373ffffffffffffffffffffffffffffffffffffffff1673ffffffffffffffffffffffffffffffffffffffff16815260200190815260200160002054905060026000868581518110611318577f4e487b7100000000000000000000000000000000000000000000000000000000600052603260045260246000fd5b60200260200101518152602001908152602001600020600401548461133d9190614252565b93507f09199bafcaa4fd64cbd617079d51763bdca9d9626ac41b9928e1d079d9fb4a5e858481518110611399577f4e487b7100000000000000000000000000000000000000000000000000000000600052603260045260246000fd5b6020026020010151423385856040516113b6959493929190614005565b60405180910390a1600760008685815181106113fb577f4e487b7100000000000000000000000000000000000000000000000000000000600052603260045260246000fd5b6020026020010151815260200190815260200160002060003373ffffffffffffffffffffffffffffffffffffffff1673ffffffffffffffffffffffffffffffffffffffff1681526020019081526020016000206000905550508061145e90614490565b9050611120565b503373ffffffffffffffffffffffffffffffffffffffff166108fc829081150290604051600060405180830381858888f193505050501580156114ac573d6000803e3d6000fd5b505050565b813373ffffffffffffffffffffffffffffffffffffffff166002600083815260200190815260200160002060000160019054906101000a900473ffffffffffffffffffffffffffffffffffffffff1673ffffffffffffffffffffffffffffffffffffffff161415801561156757506003600460003373ffffffffffffffffffffffffffffffffffffffff1673ffffffffffffffffffffffffffffffffffffffff1681526020019081526020016000206001015414155b156115aa5760026040517f519fe5850000000000000000000000000000000000000000000000000000000081526004016115a19190613ce9565b60405180910390fd5b826115e0600115156002600084815260200190815260200160002060000160009054906101000a900460ff1615151460016131e7565b600060026000868152602001908152602001600020604051806101400160405290816000820160009054906101000a900460ff161515151581526020016000820160019054906101000a900473ffffffffffffffffffffffffffffffffffffffff1673ffffffffffffffffffffffffffffffffffffffff1673ffffffffffffffffffffffffffffffffffffffff168152602001600182015481526020016002820154815260200160038201548152602001600482015481526020016005820154815260200160068201548152602001600782015481526020016008820160009054906101000a900460ff166002811115611703577f4e487b7100000000000000000000000000000000000000000000000000000000600052602160045260246000fd5b600281111561173b577f4e487b7100000000000000000000000000000000000000000000000000000000600052602160045260246000fd5b8152505090506117c46001600281111561177e577f4e487b7100000000000000000000000000000000000000000000000000000000600052602160045260246000fd5b82610120015160028111156117bc577f4e487b7100000000000000000000000000000000000000000000000000000000600052602160045260246000fd5b1460146131e7565b60005b8451811015611872576118616001151560066000898152602001908152602001600020878481518110611823577f4e487b7100000000000000000000000000000000000000000000000000000000600052603260045260246000fd5b60200260200101516040516118389190613c4d565b908152602001604051809103902060000160009054906101000a900460ff1615151460156131e7565b8061186b90614490565b90506117c7565b5060008160800151905060006118a5605a61189760508561322d90919063ffffffff16565b61324390919063ffffffff16565b905060006118bd87518361324390919063ffffffff16565b905060006118e76118d889518461322d90919063ffffffff16565b8461325990919063ffffffff16565b905060005b8851811015611a54576000600660008c81526020019081526020016000208a8381518110611943577f4e487b7100000000000000000000000000000000000000000000000000000000600052603260045260246000fd5b60200260200101516040516119589190613c4d565b908152602001604051809103902060000160029054906101000a900473ffffffffffffffffffffffffffffffffffffffff1690506119ed60001515600460008473ffffffffffffffffffffffffffffffffffffffff1673ffffffffffffffffffffffffffffffffffffffff16815260200190815260200160002060000160019054906101000a900460ff1615151460166131e7565b83600760008d815260200190815260200160002060008373ffffffffffffffffffffffffffffffffffffffff1673ffffffffffffffffffffffffffffffffffffffff168152602001908152602001600020819055505080611a4d90614490565b90506118ec565b506000611a7e6064611a7060328561322d90919063ffffffff16565b61324390919063ffffffff16565b9050856020015173ffffffffffffffffffffffffffffffffffffffff166108fc829081150290604051600060405180830381858888f19350505050158015611aca573d6000803e3d6000fd5b50600260008b8152602001908152602001600020600080820160006101000a81549060ff02191690556000820160016101000a81549073ffffffffffffffffffffffffffffffffffffffff021916905560018201600090556002820160009055600382016000905560048201600090556005820160009055600682016000905560078201600090556008820160006101000a81549060ff021916905550507f1ece7e8c034a8777790470b6beae6f20b4ba4025c6a2e10d0ce31f49844198e38a428b8633604051611b9f95949392919061405f565b60405180910390a150505050505050505050565b81611be9600115156002600084815260200190815260200160002060000160009054906101000a900460ff1615151460016131e7565b823373ffffffffffffffffffffffffffffffffffffffff166002600083815260200190815260200160002060000160019054906101000a900473ffffffffffffffffffffffffffffffffffffffff1673ffffffffffffffffffffffffffffffffffffffff1614158015611c9f57506003600460003373ffffffffffffffffffffffffffffffffffffffff1673ffffffffffffffffffffffffffffffffffffffff1681526020019081526020016000206001015414155b15611ce25760026040517f519fe585000000000000000000000000000000000000000000000000000000008152600401611cd99190613ce9565b60405180910390fd5b60005b8351811015611f8357600060066000878152602001908152602001600020858381518110611d3c577f4e487b7100000000000000000000000000000000000000000000000000000000600052603260045260246000fd5b6020026020010151604051611d519190613c4d565b908152602001604051809103902060000160029054906101000a900473ffffffffffffffffffffffffffffffffffffffff169050611e166001151560066000898152602001908152602001600020878581518110611dd8577f4e487b7100000000000000000000000000000000000000000000000000000000600052603260045260246000fd5b6020026020010151604051611ded9190613c4d565b908152602001604051809103902060000160009054906101000a900460ff1615151460036131e7565b60066000878152602001908152602001600020858381518110611e62577f4e487b7100000000000000000000000000000000000000000000000000000000600052603260045260246000fd5b6020026020010151604051611e779190613c4d565b9081526020016040518091039020600080820160006101000a81549060ff02191690556000820160016101000a81549060ff02191690556000820160026101000a81549073ffffffffffffffffffffffffffffffffffffffff0219169055600182016000611ee591906132d3565b50506003600087815260200190815260200160002060008273ffffffffffffffffffffffffffffffffffffffff1673ffffffffffffffffffffffffffffffffffffffff1681526020019081526020016000206000611f4391906132d3565b600260008781526020019081526020016000206006016000815480929190611f6a90614403565b9190505550508080611f7b90614490565b915050611ce5565b507fbc5039a4310bf43c37f40d85fb2972fc632365bd59bce272219fbe3592180d038484604051611fb5929190613d99565b60405180910390a150505050565b863373ffffffffffffffffffffffffffffffffffffffff166002600083815260200190815260200160002060000160019054906101000a900473ffffffffffffffffffffffffffffffffffffffff1673ffffffffffffffffffffffffffffffffffffffff161415801561207957506003600460003373ffffffffffffffffffffffffffffffffffffffff1673ffffffffffffffffffffffffffffffffffffffff1681526020019081526020016000206001015414155b156120bc5760026040517f519fe5850000000000000000000000000000000000000000000000000000000081526004016120b39190613ce9565b60405180910390fd5b876120f2600115156002600084815260200190815260200160002060000160009054906101000a900460ff1615151460016131e7565b6000600260008b8152602001908152602001600020604051806101400160405290816000820160009054906101000a900460ff161515151581526020016000820160019054906101000a900473ffffffffffffffffffffffffffffffffffffffff1673ffffffffffffffffffffffffffffffffffffffff1673ffffffffffffffffffffffffffffffffffffffff168152602001600182015481526020016002820154815260200160038201548152602001600482015481526020016005820154815260200160068201548152602001600782015481526020016008820160009054906101000a900460ff166002811115612215577f4e487b7100000000000000000000000000000000000000000000000000000000600052602160045260246000fd5b600281111561224d577f4e487b7100000000000000000000000000000000000000000000000000000000600052602160045260246000fd5b8152505090506122d660006002811115612290577f4e487b7100000000000000000000000000000000000000000000000000000000600052602160045260246000fd5b82610120015160028111156122ce577f4e487b7100000000000000000000000000000000000000000000000000000000600052602160045260246000fd5b1460046131e7565b6122f1600185516122e79190614252565b86511460056131e7565b612300600089101560066131e7565b61230e8888101560076131e7565b61231d600087101560086131e7565b61232f8160e0015187101560096131e7565b85600260008c8152602001908152602001600020600501819055507f37cd4ca5b4bbadf09b2593aa9d55aa469c0678891cbb40e5ee8e108ce7deaad68a8a8a8a8a8a8a6040516123859796959493929190613df9565b60405180910390a150505050505050505050565b6000600380600460003373ffffffffffffffffffffffffffffffffffffffff1673ffffffffffffffffffffffffffffffffffffffff1681526020019081526020016000206001015410156123ec57600080fd5b60015491505090565b600380600460003373ffffffffffffffffffffffffffffffffffffffff1673ffffffffffffffffffffffffffffffffffffffff16815260200190815260200160002060010154101561244657600080fd5b612455600154841060136131e7565b8373ffffffffffffffffffffffffffffffffffffffff166108fc849081150290604051600060405180830381858888f1935050505015801561249b573d6000803e3d6000fd5b506124b2836001546124ad9190614333565b61326f565b7f2cd85b2197fe6195d4e9fdf807788d580886dc3480c971efcc0b09e5f1f9b4df42338686866040516124e9959493929190613d3f565b60405180910390a150505050565b600380600460003373ffffffffffffffffffffffffffffffffffffffff1673ffffffffffffffffffffffffffffffffffffffff16815260200190815260200160002060010154101561254857600080fd5b60005b825181101561260057600060046000858481518110612593577f4e487b7100000000000000000000000000000000000000000000000000000000600052603260045260246000fd5b602002602001015173ffffffffffffffffffffffffffffffffffffffff1673ffffffffffffffffffffffffffffffffffffffff16815260200190815260200160002060000160016101000a81548160ff021916908315150217905550806125f990614490565b905061254b565b507fad256ecfc6240b528a1f02bc4d637b7524b0271205d9b20359515a54b3773626826040516126309190613cc7565b60405180910390a15050565b81612672600115156002600084815260200190815260200160002060000160009054906101000a900460ff1615151460016131e7565b6126c360001515600660008681526020019081526020016000208460405161269a9190613c4d565b908152602001604051809103902060000160009054906101000a900460ff16151514600f6131e7565b60405180608001604052806001151581526020016000151581526020013373ffffffffffffffffffffffffffffffffffffffff1681526020018381525060066000858152602001908152602001600020836040516127219190613c4d565b908152602001604051809103902060008201518160000160006101000a81548160ff02191690831515021790555060208201518160000160016101000a81548160ff02191690831515021790555060408201518160000160026101000a81548173ffffffffffffffffffffffffffffffffffffffff021916908373ffffffffffffffffffffffffffffffffffffffff16021790555060608201518160010190805190602001906127d2929190613313565b5090505061287660001515600660008681526020019081526020016000206003600087815260200190815260200160002060003373ffffffffffffffffffffffffffffffffffffffff1673ffffffffffffffffffffffffffffffffffffffff16815260200190815260200160002060405161284d9190613c64565b908152602001604051809103902060000160009054906101000a900460ff1615151460106131e7565b600060026000858152602001908152602001600020604051806101400160405290816000820160009054906101000a900460ff161515151581526020016000820160019054906101000a900473ffffffffffffffffffffffffffffffffffffffff1673ffffffffffffffffffffffffffffffffffffffff1673ffffffffffffffffffffffffffffffffffffffff168152602001600182015481526020016002820154815260200160038201548152602001600482015481526020016005820154815260200160068201548152602001600782015481526020016008820160009054906101000a900460ff166002811115612999577f4e487b7100000000000000000000000000000000000000000000000000000000600052602160045260246000fd5b60028111156129d1577f4e487b7100000000000000000000000000000000000000000000000000000000600052602160045260246000fd5b8152505090506129e88160600151341460126131e7565b612a6b60006002811115612a25577f4e487b7100000000000000000000000000000000000000000000000000000000600052602160045260246000fd5b8261012001516002811115612a63577f4e487b7100000000000000000000000000000000000000000000000000000000600052602160045260246000fd5b14600c6131e7565b612aa93373ffffffffffffffffffffffffffffffffffffffff16826020015173ffffffffffffffffffffffffffffffffffffffff161415600d6131e7565b612abe8160e001518260c0015111600e6131e7565b612b1f60001515600460003373ffffffffffffffffffffffffffffffffffffffff1673ffffffffffffffffffffffffffffffffffffffff16815260200190815260200160002060000160019054906101000a900460ff1615151460116131e7565b60056000858152602001908152602001600020339080600181540180825580915050600190039060005260206000200160009091909190916101000a81548173ffffffffffffffffffffffffffffffffffffffff021916908373ffffffffffffffffffffffffffffffffffffffff160217905550600260008581526020019081526020016000206006016000815480929190612bba90614490565b9190505550600260008581526020019081526020016000206007016000815480929190612be690614490565b9190505550826003600086815260200190815260200160002060003373ffffffffffffffffffffffffffffffffffffffff1673ffffffffffffffffffffffffffffffffffffffff1681526020019081526020016000209080519060200190612c4f929190613313565b506000612c796064612c6b605a3461322d90919063ffffffff16565b61324390919063ffffffff16565b9050808260800151612c8b9190614252565b6002600087815260200190815260200160002060030181905550612cb8813461325990919063ffffffff16565b600154612cc59190614252565b6001819055507f811920f4be18c704a8c9f64314c8e9fc9dbc0e1a0d21139ec7b6062754af4d108542338760006001886101000151612d049190614252565b604051612d1696959493929190613f9d565b60405180910390a15050505050565b600280600460003373ffffffffffffffffffffffffffffffffffffffff1673ffffffffffffffffffffffffffffffffffffffff168152602001908152602001600020600101541015612d7657600080fd5b612db03373ffffffffffffffffffffffffffffffffffffffff168573ffffffffffffffffffffffffffffffffffffffff16141560006131e7565b82600460008673ffffffffffffffffffffffffffffffffffffffff1673ffffffffffffffffffffffffffffffffffffffff168152602001908152602001600020600101819055506001600460008673ffffffffffffffffffffffffffffffffffffffff1673ffffffffffffffffffffffffffffffffffffffff16815260200190815260200160002060000160006101000a81548160ff0219169083151502179055507f5950e3858c63f81d599e5d837d3e46f9886eebc5a036c02bd004a9793cf9da0384848442604051612e879493929190613c7b565b60405180910390a150505050565b81612ecb600115156002600084815260200190815260200160002060000160009054906101000a900460ff1615151460016131e7565b823373ffffffffffffffffffffffffffffffffffffffff166002600083815260200190815260200160002060000160019054906101000a900473ffffffffffffffffffffffffffffffffffffffff1673ffffffffffffffffffffffffffffffffffffffff1614158015612f8157506003600460003373ffffffffffffffffffffffffffffffffffffffff1673ffffffffffffffffffffffffffffffffffffffff1681526020019081526020016000206001015414155b15612fc45760026040517f519fe585000000000000000000000000000000000000000000000000000000008152600401612fbb9190613ce9565b60405180910390fd5b60005b83518110156131da576130616001151560066000888152602001908152602001600020868481518110613023577f4e487b7100000000000000000000000000000000000000000000000000000000600052603260045260246000fd5b60200260200101516040516130389190613c4d565b908152602001604051809103902060000160009054906101000a900460ff1615151460036131e7565b600160046000600660008981526020019081526020016000208785815181106130b3577f4e487b7100000000000000000000000000000000000000000000000000000000600052603260045260246000fd5b60200260200101516040516130c89190613c4d565b908152602001604051809103902060000160029054906101000a900473ffffffffffffffffffffffffffffffffffffffff1673ffffffffffffffffffffffffffffffffffffffff1673ffffffffffffffffffffffffffffffffffffffff16815260200190815260200160002060000160016101000a81548160ff0219169083151502179055507fb44e6b6b111fe6c82f30a64b7f55593ce4e34d2070e40a36e8cd11c29e0efe02858583815181106131a9577f4e487b7100000000000000000000000000000000000000000000000000000000600052603260045260246000fd5b60200260200101516040516131bf929190613dc9565b60405180910390a180806131d290614490565b915050612fc7565b5050505050565b60005481565b8161322957806040517f519fe5850000000000000000000000000000000000000000000000000000000081526004016132209190613d24565b60405180910390fd5b5050565b6000818361323b91906142d9565b905092915050565b6000818361325191906142a8565b905092915050565b600081836132679190614333565b905092915050565b806001819055507fcdc0c78d1fdcc506a06721a2f4f3c2f9e7ccf6c8719ad05b61b0d5da1684f1e181426040516132a7929190613f3d565b60405180910390a150565b50805460008255906000526020600020908101906132d09190613399565b50565b5080546132df9061442d565b6000825580601f106132f15750613310565b601f01602090049060005260206000209081019061330f9190613399565b5b50565b82805461331f9061442d565b90600052602060002090601f0160209004810192826133415760008555613388565b82601f1061335a57805160ff1916838001178555613388565b82800160010185558215613388579182015b8281111561338757825182559160200191906001019061336c565b5b5090506133959190613399565b5090565b5b808211156133b257600081600090555060010161339a565b5090565b60006133c96133c4846140de565b6140b9565b905080838252602082019050828560208602820111156133e857600080fd5b60005b8581101561341857816133fe8882613552565b8452602084019350602083019250506001810190506133eb565b5050509392505050565b60006134356134308461410a565b6140b9565b9050808382526020820190508285602086028201111561345457600080fd5b60005b8581101561349e57813567ffffffffffffffff81111561347657600080fd5b80860161348389826135e5565b85526020850194506020840193505050600181019050613457565b5050509392505050565b60006134bb6134b684614136565b6140b9565b905080838252602082019050828560208602820111156134da57600080fd5b60005b8581101561350a57816134f0888261360f565b8452602084019350602083019250506001810190506134dd565b5050509392505050565b600061352761352284614162565b6140b9565b90508281526020810184848401111561353f57600080fd5b61354a8482856143c1565b509392505050565b600081359050613561816145cf565b92915050565b600082601f83011261357857600080fd5b81356135888482602086016133b6565b91505092915050565b600082601f8301126135a257600080fd5b81356135b2848260208601613422565b91505092915050565b600082601f8301126135cc57600080fd5b81356135dc8482602086016134a8565b91505092915050565b600082601f8301126135f657600080fd5b8135613606848260208601613514565b91505092915050565b60008135905061361e816145e6565b92915050565b60008060006060848603121561363957600080fd5b600061364786828701613552565b93505060206136588682870161360f565b925050604084013567ffffffffffffffff81111561367557600080fd5b613681868287016135e5565b9150509250925092565b60006020828403121561369d57600080fd5b600082013567ffffffffffffffff8111156136b757600080fd5b6136c384828501613567565b91505092915050565b6000602082840312156136de57600080fd5b600082013567ffffffffffffffff8111156136f857600080fd5b613704848285016135bb565b91505092915050565b600080600080600080600080610100898b03121561372a57600080fd5b600089013567ffffffffffffffff81111561374457600080fd5b6137508b828c016135e5565b98505060206137618b828c0161360f565b97505060406137728b828c0161360f565b96505060606137838b828c0161360f565b95505060806137948b828c0161360f565b94505060a06137a58b828c0161360f565b93505060c089013567ffffffffffffffff8111156137c257600080fd5b6137ce8b828c01613591565b92505060e089013567ffffffffffffffff8111156137eb57600080fd5b6137f78b828c01613591565b9150509295985092959890939650565b60006020828403121561381957600080fd5b60006138278482850161360f565b91505092915050565b6000806040838503121561384357600080fd5b60006138518582860161360f565b925050602083013567ffffffffffffffff81111561386e57600080fd5b61387a85828601613591565b9150509250929050565b6000806040838503121561389757600080fd5b60006138a58582860161360f565b925050602083013567ffffffffffffffff8111156138c257600080fd5b6138ce858286016135e5565b9150509250929050565b600080600080600080600060e0888a0312156138f357600080fd5b60006139018a828b0161360f565b975050602088013567ffffffffffffffff81111561391e57600080fd5b61392a8a828b016135e5565b965050604061393b8a828b0161360f565b955050606061394c8a828b0161360f565b945050608061395d8a828b0161360f565b93505060a088013567ffffffffffffffff81111561397a57600080fd5b6139868a828b01613591565b92505060c088013567ffffffffffffffff8111156139a357600080fd5b6139af8a828b01613591565b91505092959891949750929550565b60006139ca83836139ea565b60208301905092915050565b60006139e28383613af9565b905092915050565b6139f381614367565b82525050565b613a0281614367565b82525050565b6000613a13826141c8565b613a1d8185614203565b9350613a2883614193565b8060005b83811015613a59578151613a4088826139be565b9750613a4b836141e9565b925050600181019050613a2c565b5085935050505092915050565b6000613a71826141d3565b613a7b8185614214565b935083602082028501613a8d856141a3565b8060005b85811015613ac95784840389528151613aaa85826139d6565b9450613ab5836141f6565b925060208a01995050600181019050613a91565b50829750879550505050505092915050565b613ae481614379565b82525050565b613af3816143af565b82525050565b6000613b04826141de565b613b0e8185614225565b9350613b1e8185602086016143d0565b613b2781614595565b840191505092915050565b6000613b3d826141de565b613b478185614236565b9350613b578185602086016143d0565b613b6081614595565b840191505092915050565b6000613b76826141de565b613b808185614247565b9350613b908185602086016143d0565b80840191505092915050565b60008154613ba98161442d565b613bb38186614247565b94506001821660008114613bce5760018114613bdf57613c12565b60ff19831686528186019350613c12565b613be8856141b3565b60005b83811015613c0a57815481890152600182019150602081019050613beb565b838801955050505b50505092915050565b6000613c28601183614236565b9150613c33826145a6565b602082019050919050565b613c47816143a5565b82525050565b6000613c598284613b6b565b915081905092915050565b6000613c708284613b9c565b915081905092915050565b6000608082019050613c9060008301876139f9565b613c9d6020830186613c3e565b8181036040830152613caf8185613b32565b9050613cbe6060830184613c3e565b95945050505050565b60006020820190508181036000830152613ce18184613a08565b905092915050565b6000602082019050613cfe6000830184613aea565b92915050565b60006020820190508181036000830152613d1d81613c1b565b9050919050565b6000602082019050613d396000830184613c3e565b92915050565b600060a082019050613d546000830188613c3e565b613d6160208301876139f9565b613d6e60408301866139f9565b613d7b6060830185613c3e565b8181036080830152613d8d8184613b32565b90509695505050505050565b6000604082019050613dae6000830185613c3e565b8181036020830152613dc08184613a66565b90509392505050565b6000604082019050613dde6000830185613c3e565b8181036020830152613df08184613b32565b90509392505050565b600060e082019050613e0e600083018a613c3e565b8181036020830152613e208189613b32565b9050613e2f6040830188613c3e565b613e3c6060830187613c3e565b613e496080830186613c3e565b81810360a0830152613e5b8185613a66565b905081810360c0830152613e6f8184613a66565b905098975050505050505050565b600061016082019050613e93600083018e613c3e565b8181036020830152613ea5818d613b32565b9050613eb4604083018c613c3e565b613ec1606083018b613c3e565b613ece608083018a613c3e565b613edb60a0830189613c3e565b613ee860c08301886139f9565b613ef560e0830187613c3e565b613f03610100830186613c3e565b818103610120830152613f168185613a66565b9050818103610140830152613f2b8184613a66565b90509c9b505050505050505050505050565b6000604082019050613f526000830185613c3e565b613f5f6020830184613c3e565b9392505050565b6000606082019050613f7b6000830186613c3e565b613f886020830185613c3e565b613f9560408301846139f9565b949350505050565b600060c082019050613fb26000830189613c3e565b613fbf6020830188613c3e565b613fcc60408301876139f9565b8181036060830152613fde8186613b32565b9050613fed6080830185613adb565b613ffa60a0830184613c3e565b979650505050505050565b600060a08201905061401a6000830188613c3e565b6140276020830187613c3e565b61403460408301866139f9565b81810360608301526140468185613b32565b90506140556080830184613c3e565b9695505050505050565b600060a0820190506140746000830188613c3e565b6140816020830187613c3e565b81810360408301526140938186613a66565b90506140a26060830185613c3e565b6140af60808301846139f9565b9695505050505050565b60006140c36140d4565b90506140cf828261445f565b919050565b6000604051905090565b600067ffffffffffffffff8211156140f9576140f8614566565b5b602082029050602081019050919050565b600067ffffffffffffffff82111561412557614124614566565b5b602082029050602081019050919050565b600067ffffffffffffffff82111561415157614150614566565b5b602082029050602081019050919050565b600067ffffffffffffffff82111561417d5761417c614566565b5b61418682614595565b9050602081019050919050565b6000819050602082019050919050565b6000819050602082019050919050565b60008190508160005260206000209050919050565b600081519050919050565b600081519050919050565b600081519050919050565b6000602082019050919050565b6000602082019050919050565b600082825260208201905092915050565b600082825260208201905092915050565b600082825260208201905092915050565b600082825260208201905092915050565b600081905092915050565b600061425d826143a5565b9150614268836143a5565b9250827fffffffffffffffffffffffffffffffffffffffffffffffffffffffffffffffff0382111561429d5761429c6144d9565b5b828201905092915050565b60006142b3826143a5565b91506142be836143a5565b9250826142ce576142cd614508565b5b828204905092915050565b60006142e4826143a5565b91506142ef836143a5565b9250817fffffffffffffffffffffffffffffffffffffffffffffffffffffffffffffffff0483118215151615614328576143276144d9565b5b828202905092915050565b600061433e826143a5565b9150614349836143a5565b92508282101561435c5761435b6144d9565b5b828203905092915050565b600061437282614385565b9050919050565b60008115159050919050565b600073ffffffffffffffffffffffffffffffffffffffff82169050919050565b6000819050919050565b60006143ba826143a5565b9050919050565b82818337600083830152505050565b60005b838110156143ee5780820151818401526020810190506143d3565b838111156143fd576000848401525b50505050565b600061440e826143a5565b91506000821415614422576144216144d9565b5b600182039050919050565b6000600282049050600182168061444557607f821691505b6020821081141561445957614458614537565b5b50919050565b61446882614595565b810181811067ffffffffffffffff8211171561448757614486614566565b5b80604052505050565b600061449b826143a5565b91507fffffffffffffffffffffffffffffffffffffffffffffffffffffffffffffffff8214156144ce576144cd6144d9565b5b600182019050919050565b7f4e487b7100000000000000000000000000000000000000000000000000000000600052601160045260246000fd5b7f4e487b7100000000000000000000000000000000000000000000000000000000600052601260045260246000fd5b7f4e487b7100000000000000000000000000000000000000000000000000000000600052602260045260246000fd5b7f4e487b7100000000000000000000000000000000000000000000000000000000600052604160045260246000fd5b6000601f19601f8301169050919050565b7f706c6179617220697320626c6f636b6564000000000000000000000000000000600082015250565b6145d881614367565b81146145e357600080fd5b50565b6145ef816143a5565b81146145fa57600080fd5b5056fea2646970667358221220a07f89e3b6b6efaa6b1a5d329ceaac77fdc614c66d56d71b6c5994f97c134ded64736f6c63430008040033",
  "linkReferences": {},
  "deployedLinkReferences": {}
}